{"abi":[{"type":"function","name":"DEFAULT_ADMIN_ROLE","inputs":[],"outputs":[{"name":"","type":"bytes32","internalType":"bytes32"}],"stateMutability":"view"},{"type":"function","name":"Requirements","inputs":[],"outputs":[{"name":"acre","type":"address","internalType":"address"},{"name":"plot","type":"address","internalType":"address"},{"name":"yard","type":"address","internalType":"address"},{"name":"acreV2","type":"address","internalType":"address"},{"name":"plotV2","type":"address","internalType":"address"},{"name":"yardV2","type":"address","internalType":"address"},{"name":"tokenV1","type":"address","internalType":"address"},{"name":"tokenV2","type":"address","internalType":"address"},{"name":"price","type":"uint256","internalType":"uint256"}],"stateMutability":"view"},{"type":"function","name":"SIGNER_ROLE","inputs":[],"outputs":[{"name":"","type":"bytes32","internalType":"bytes32"}],"stateMutability":"view"},{"type":"function","name":"getRoleAdmin","inputs":[{"name":"role","type":"bytes32","internalType":"bytes32"}],"outputs":[{"name":"","type":"bytes32","internalType":"bytes32"}],"stateMutability":"view"},{"type":"function","name":"grantRole","inputs":[{"name":"role","type":"bytes32","internalType":"bytes32"},{"name":"account","type":"address","internalType":"address"}],"outputs":[],"stateMutability":"nonpayable"},{"type":"function","name":"hasRole","inputs":[{"name":"role","type":"bytes32","internalType":"bytes32"},{"name":"account","type":"address","internalType":"address"}],"outputs":[{"name":"","type":"bool","internalType":"bool"}],"stateMutability":"view"},{"type":"function","name":"initialize","inputs":[],"outputs":[],"stateMutability":"nonpayable"},{"type":"function","name":"lastAssetIdMinted","inputs":[{"name":"","type":"address","internalType":"address"}],"outputs":[{"name":"","type":"uint256","internalType":"uint256"}],"stateMutability":"view"},{"type":"function","name":"migrateAllAsset","inputs":[{"name":"_acre","type":"uint256[]","internalType":"uint256[]"},{"name":"_plot","type":"uint256[]","internalType":"uint256[]"},{"name":"_yard","type":"uint256[]","internalType":"uint256[]"}],"outputs":[{"name":"success","type":"bool","internalType":"bool"}],"stateMutability":"nonpayable"},{"type":"function","name":"migrateERC20Token","inputs":[{"name":"_amount","type":"uint256","internalType":"uint256"},{"name":"_token1","type":"address","internalType":"address"},{"name":"_token2","type":"address","internalType":"address"}],"outputs":[{"name":"result","type":"bool","internalType":"bool"}],"stateMutability":"nonpayable"},{"type":"function","name":"onERC721Received","inputs":[{"name":"","type":"address","internalType":"address"},{"name":"","type":"address","internalType":"address"},{"name":"","type":"uint256","internalType":"uint256"},{"name":"","type":"bytes","internalType":"bytes"}],"outputs":[{"name":"","type":"bytes4","internalType":"bytes4"}],"stateMutability":"pure"},{"type":"function","name":"renounceRole","inputs":[{"name":"role","type":"bytes32","internalType":"bytes32"},{"name":"account","type":"address","internalType":"address"}],"outputs":[],"stateMutability":"nonpayable"},{"type":"function","name":"revokeRole","inputs":[{"name":"role","type":"bytes32","internalType":"bytes32"},{"name":"account","type":"address","internalType":"address"}],"outputs":[],"stateMutability":"nonpayable"},{"type":"function","name":"setERC721Requirements","inputs":[{"name":"_acre","type":"address","internalType":"address"},{"name":"_yard","type":"address","internalType":"address"},{"name":"_plot","type":"address","internalType":"address"},{"name":"_acreV2","type":"address","internalType":"address"},{"name":"_yardV2","type":"address","internalType":"address"},{"name":"_plotV2","type":"address","internalType":"address"}],"outputs":[{"name":"success","type":"bool","internalType":"bool"}],"stateMutability":"nonpayable"},{"type":"function","name":"setTokenInfo","inputs":[{"name":"_tokenV1","type":"address","internalType":"address"},{"name":"_tokenV2","type":"address","internalType":"address"},{"name":"_price","type":"uint256","internalType":"uint256"}],"outputs":[],"stateMutability":"nonpayable"},{"type":"function","name":"supportsInterface","inputs":[{"name":"interfaceId","type":"bytes4","internalType":"bytes4"}],"outputs":[{"name":"","type":"bool","internalType":"bool"}],"stateMutability":"view"},{"type":"function","name":"tokensMigrated","inputs":[{"name":"","type":"address","internalType":"address"}],"outputs":[{"name":"","type":"uint256","internalType":"uint256"}],"stateMutability":"view"},{"type":"function","name":"totalAcreMigrated","inputs":[],"outputs":[{"name":"","type":"uint256","internalType":"uint256"}],"stateMutability":"view"},{"type":"function","name":"totalPlotMigrated","inputs":[],"outputs":[{"name":"","type":"uint256","internalType":"uint256"}],"stateMutability":"view"},{"type":"function","name":"totalYardMigrated","inputs":[],"outputs":[{"name":"","type":"uint256","internalType":"uint256"}],"stateMutability":"view"},{"type":"event","name":"Initialized","inputs":[{"name":"version","type":"uint8","indexed":false,"internalType":"uint8"}],"anonymous":false},{"type":"event","name":"MigrationTokenSet","inputs":[{"name":"token1","type":"address","indexed":true,"internalType":"address"},{"name":"token2","type":"address","indexed":true,"internalType":"address"},{"name":"price","type":"uint256","indexed":true,"internalType":"uint256"},{"name":"date","type":"uint256","indexed":false,"internalType":"uint256"}],"anonymous":false},{"type":"event","name":"NFTMigrationCompleted","inputs":[{"name":"user","type":"address","indexed":true,"internalType":"address"},{"name":"nft1","type":"address","indexed":true,"internalType":"address"},{"name":"nft2","type":"address","indexed":true,"internalType":"address"},{"name":"oldId","type":"uint256","indexed":false,"internalType":"uint256"},{"name":"newId","type":"uint256","indexed":false,"internalType":"uint256"},{"name":"date","type":"uint256","indexed":false,"internalType":"uint256"}],"anonymous":false},{"type":"event","name":"RoleAdminChanged","inputs":[{"name":"role","type":"bytes32","indexed":true,"internalType":"bytes32"},{"name":"previousAdminRole","type":"bytes32","indexed":true,"internalType":"bytes32"},{"name":"newAdminRole","type":"bytes32","indexed":true,"internalType":"bytes32"}],"anonymous":false},{"type":"event","name":"RoleGranted","inputs":[{"name":"role","type":"bytes32","indexed":true,"internalType":"bytes32"},{"name":"account","type":"address","indexed":true,"internalType":"address"},{"name":"sender","type":"address","indexed":true,"internalType":"address"}],"anonymous":false},{"type":"event","name":"RoleRevoked","inputs":[{"name":"role","type":"bytes32","indexed":true,"internalType":"bytes32"},{"name":"account","type":"address","indexed":true,"internalType":"address"},{"name":"sender","type":"address","indexed":true,"internalType":"address"}],"anonymous":false},{"type":"event","name":"TokenMigrationCompleted","inputs":[{"name":"user","type":"address","indexed":true,"internalType":"address"},{"name":"token1","type":"address","indexed":true,"internalType":"address"},{"name":"token2","type":"address","indexed":true,"internalType":"address"},{"name":"amount1","type":"uint256","indexed":false,"internalType":"uint256"},{"name":"amount2","type":"uint256","indexed":false,"internalType":"uint256"},{"name":"date","type":"uint256","indexed":false,"internalType":"uint256"}],"anonymous":false},{"type":"error","name":"TransactionMessage","inputs":[{"name":"message","type":"string","internalType":"string"}]}],"bytecode":{"object":"0x6080604052348015600f57600080fd5b50611d758061001f6000396000f3fe608060405234801561001057600080fd5b506004361061012c5760003560e01c80638129fc1c116100ad578063d547741f11610071578063d547741f14610359578063db5d0aad1461036c578063df8f332d14610375578063e27fff5a1461037e578063e780ae691461039157600080fd5b80638129fc1c146102ef57806391d14854146102f7578063a1ebf35d1461030a578063a217fddf14610331578063b0c67d971461033957600080fd5b806336568abe116100f457806336568abe14610203578063590782a91461021657806361b5d621146102295780636bed4a40146102c65780636e327de3146102e657600080fd5b806301ffc9a7146101315780630c1d3d3614610159578063150b7a021461016c578063248a9ca3146101bd5780632f2ff15d146101ee575b600080fd5b61014461013f366004611801565b6103a4565b60405190151581526020015b60405180910390f35b610144610167366004611840565b6103db565b6101a461017a3660046118c2565b7f150b7a023d4804d13e8c85fb27262cb750cf6ba9f9dd3bb30d90f482ceeb4b1f95945050505050565b6040516001600160e01b03199091168152602001610150565b6101e06101cb366004611963565b60009081526065602052604090206001015490565b604051908152602001610150565b6102016101fc36600461197c565b6104f4565b005b61020161021136600461197c565b61051e565b6102016102243660046119ac565b6105a1565b609754609854609954609a54609b54609c54609d54609e54609f5461026b986001600160a01b0390811698811697811696811695811694811693811692169089565b604080516001600160a01b039a8b168152988a1660208a01529689169688019690965293871660608701529186166080860152851660a0850152841660c084015290921660e082015261010081019190915261012001610150565b6101e06102d43660046119ed565b60a06020526000908152604090205481565b6101e060a25481565b61020161069f565b61014461030536600461197c565b6107b8565b6101e07fe2f4eaae4a9751e85a3e4a7b9587827a877f29914755229b07a7b2da98285f7081565b6101e0600081565b6101e06103473660046119ed565b60a16020526000908152604090205481565b61020161036736600461197c565b6107e3565b6101e060a45481565b6101e060a35481565b61014461038c366004611abf565b610808565b61014461039f366004611b53565b6109bc565b60006001600160e01b03198216637965db0b60e01b14806103d557506301ffc9a760e01b6001600160e01b03198316145b92915050565b60006103e5610fc0565b6001600160a01b0387161561041057609780546001600160a01b0319166001600160a01b0389161790555b6001600160a01b0386161561043b57609980546001600160a01b0319166001600160a01b0388161790555b6001600160a01b0385161561046657609880546001600160a01b0319166001600160a01b0387161790555b6001600160a01b0384161561049157609a80546001600160a01b0319166001600160a01b0386161790555b6001600160a01b038316156104bc57609c80546001600160a01b0319166001600160a01b0385161790555b6001600160a01b038216156104e757609b80546001600160a01b0319166001600160a01b0384161790555b5060019695505050505050565b60008281526065602052604090206001015461050f81611028565b6105198383611032565b505050565b6001600160a01b03811633146105935760405162461bcd60e51b815260206004820152602f60248201527f416363657373436f6e74726f6c3a2063616e206f6e6c792072656e6f756e636560448201526e103937b632b9903337b91039b2b63360891b60648201526084015b60405180910390fd5b61059d82826110b8565b5050565b6105a9610fc0565b6001600160a01b038316156105d457609d80546001600160a01b0319166001600160a01b0385161790555b6001600160a01b038216156105ff57609e80546001600160a01b0319166001600160a01b0384161790555b80600003610650576040516305cd6c7b60e41b815260206004820152601860248201527f5072696365206d7573742062652061626f7665207a65726f0000000000000000604482015260640161058a565b609f81905560405142815281906001600160a01b0380851691908616907f1a92c4f85f9ab079e8a986c99fac3f01e171c1d84076066f20578b2b66039cc69060200160405180910390a4505050565b600054610100900460ff16158080156106bf5750600054600160ff909116105b806106d95750303b1580156106d9575060005460ff166001145b61073c5760405162461bcd60e51b815260206004820152602e60248201527f496e697469616c697a61626c653a20636f6e747261637420697320616c72656160448201526d191e481a5b9a5d1a585b1a5e995960921b606482015260840161058a565b6000805460ff19166001179055801561075f576000805461ff0019166101001790555b61076a60003361111f565b6001609f5580156107b5576000805461ff0019169055604051600181527f7f26b83ff96e1f2b6a682f133852f6798a09c465da95921460cefb38474024989060200160405180910390a15b50565b60009182526065602090815260408084206001600160a01b0393909316845291905290205460ff1690565b6000828152606560205260409020600101546107fe81611028565b61051983836110b8565b60008082518451865161081b9190611bab565b6108259190611bab565b905080600003610878576040516305cd6c7b60e41b815260206004820152601960248201527f4e6f7420656e6f756768206e667420746f206d69677261746500000000000000604482015260640161058a565b8451156108e95760005b85518110156108c65760975486516108bd916001600160a01b0316908890849081106108b0576108b0611bbe565b6020026020010151611129565b50600101610882565b50609754609a546108e7916001600160a01b03908116911633885189611337565b505b83511561094d5760005b845181101561092a576098548551610921916001600160a01b0316908790849081106108b0576108b0611bbe565b506001016108f3565b50609854609b5461094b916001600160a01b03908116911633875188611337565b505b8251156109b15760005b835181101561098e576099548451610985916001600160a01b0316908690849081106108b0576108b0611bbe565b50600101610957565b50609954609c546109af916001600160a01b03908116911633865187611337565b505b506001949350505050565b600083600003610a00576040516305cd6c7b60e41b815260206004820152600e60248201526d416d6f756e74206973207a65726f60901b604482015260640161058a565b609d546001600160a01b03848116911614610a57576040516305cd6c7b60e41b8152602060048201526016602482015275496e76616c696420746f6b656e31206164647265737360501b604482015260640161058a565b609e546001600160a01b03838116911614610aae576040516305cd6c7b60e41b8152602060048201526016602482015275496e76616c696420746f6b656e32206164647265737360501b604482015260640161058a565b609f54600003610af5576040516305cd6c7b60e41b8152602060048201526011602482015270125b9d985b1a59081c1c9a58d9481cd95d607a1b604482015260640161058a565b60006001600160a01b03841663dd62ed3e336040516001600160e01b031960e084901b1681526001600160a01b039091166004820152306024820152604401602060405180830381865afa158015610b51573d6000803e3d6000fd5b505050506040513d601f19601f82011682018060405250810190610b759190611bd4565b905080851115610bc1576040516305cd6c7b60e41b8152602060048201526016602482015275496e73756666696369656e7420616c6c6f77616e636560501b604482015260640161058a565b609d546000906001600160a01b03166370a08231336040516001600160e01b031960e084901b1681526001600160a01b039091166004820152602401602060405180830381865afa158015610c1a573d6000803e3d6000fd5b505050506040513d601f19601f82011682018060405250810190610c3e9190611bd4565b905080861115610c88576040516305cd6c7b60e41b8152602060048201526014602482015273496e73756666696369656e742062616c616e636560601b604482015260640161058a565b609f54600090610c9890886115e7565b609e546040516370a0823160e01b81523060048201529192506001600160a01b0316906370a0823190602401602060405180830381865afa158015610ce1573d6000803e3d6000fd5b505050506040513d601f19601f82011682018060405250810190610d059190611bd4565b915081811115610d67576040516305cd6c7b60e41b815260206004820152602660248201527f496e73756666696369656e7420746f6b656e2062616c616e6365206f6e206d6960448201526533b930ba37b960d11b606482015260840161058a565b609d546000906001600160a01b03166323b872dd336040516001600160e01b031960e084901b1681526001600160a01b039091166004820152306024820152604481018b90526064016020604051808303816000875af1158015610dcf573d6000803e3d6000fd5b505050506040513d601f19601f82011682018060405250810190610df39190611bed565b905080610e38576040516305cd6c7b60e41b8152602060048201526012602482015271151c985b9cd858dd1a5bdb8819985a5b195960721b604482015260640161058a565b609e546001600160a01b031663a9059cbb336040516001600160e01b031960e084901b1681526001600160a01b039091166004820152602481018b90526044016020604051808303816000875af1158015610e97573d6000803e3d6000fd5b505050506040513d601f19601f82011682018060405250810190610ebb9190611bed565b905080610f00576040516305cd6c7b60e41b8152602060048201526012602482015271151c985b9cd858dd1a5bdb8819985a5b195960721b604482015260640161058a565b6001600160a01b038716600090815260a16020526040812080548a9290610f28908490611bab565b90915550506001600160a01b038616600090815260a1602052604081208054849290610f55908490611bab565b9091555050609e54609d54604080518b815260208101869052428183015290516001600160a01b03938416939092169133917f6275c95c8590ee4ab8ea2f92984d95800f6e3aaa4fd0efd9d4781143eb8155e9919081900360600190a4506001979650505050505050565b610fea7fe2f4eaae4a9751e85a3e4a7b9587827a877f29914755229b07a7b2da98285f70336107b8565b611026576040516305cd6c7b60e41b815260206004820152600c60248201526b155b905d5d1a1bdc9a5e995960a21b604482015260640161058a565b565b6107b581336115fa565b61103c82826107b8565b61059d5760008281526065602090815260408083206001600160a01b03851684529091529020805460ff191660011790556110743390565b6001600160a01b0316816001600160a01b0316837f2f8788117e7eff1d82e926ec794901d17c78024a50270940304540a733656f0d60405160405180910390a45050565b6110c282826107b8565b1561059d5760008281526065602090815260408083206001600160a01b0385168085529252808320805460ff1916905551339285917ff6391f5c32d9c69d2a47ea670b442974b53935d1edc7fd64eb21e047a839171b9190a45050565b61059d8282611032565b6040516331a9108f60e11b81526004810182905260009081906001600160a01b03851690636352211e90602401602060405180830381865afa158015611173573d6000803e3d6000fd5b505050506040513d601f19601f820116820180604052508101906111979190611c0f565b90506001600160a01b03811633146111e6576040516305cd6c7b60e41b815260206004820152601160248201527024b73b30b634b21037333a1037bbb732b960791b604482015260640161058a565b60006001600160a01b03851663e985e9c5336040516001600160e01b031960e084901b1681526001600160a01b039091166004820152306024820152604401602060405180830381865afa158015611242573d6000803e3d6000fd5b505050506040513d601f19601f820116820180604052508101906112669190611bed565b9050806112b6576040516305cd6c7b60e41b815260206004820152601e60248201527f4d69677261746f7220646f65736e2774206861766520617070726f76616c0000604482015260640161058a565b6001600160a01b0385166323b872dd336040516001600160e01b031960e084901b1681526001600160a01b03909116600482015230602482015260448101879052606401600060405180830381600087803b15801561131457600080fd5b505af1158015611328573d6000803e3d6000fd5b50600198975050505050505050565b60405163233cd33b60e01b81526004810183905260009085906001600160a01b0382169063233cd33b90602401600060405180830381600087803b15801561137e57600080fd5b505af1158015611392573d6000803e3d6000fd5b505050506000816001600160a01b03166318160ddd6040518163ffffffff1660e01b81526004016020604051808303816000875af11580156113d8573d6000803e3d6000fd5b505050506040513d601f19601f820116820180604052508101906113fc9190611bd4565b6001600160a01b038816600090815260a06020526040812054919250908180825b858110156115b9576040516331a9108f60e11b81526004810182905230906001600160a01b03891690636352211e90602401602060405180830381865afa15801561146c573d6000803e3d6000fd5b505050506040513d601f19601f820116820180604052508101906114909190611c0f565b6001600160a01b0316036115b1576114a9856001611bab565b6040516323b872dd60e01b81523060048201526001600160a01b038d8116602483015260448201849052919650908816906323b872dd90606401600060405180830381600087803b1580156114fd57600080fd5b505af1158015611511573d6000803e3d6000fd5b505050508092508b6001600160a01b03168d6001600160a01b03168c6001600160a01b03167fe713d12943f3c605dddf2934287c1c4d25ddde54c6c9bcfd5de3b57ecb88e97e8c868151811061156957611569611bbe565b60200260200101518542604051611593939291909283526020830191909152604082015260600190565b60405180910390a4898510156115b957816115ad81611c2c565b9250505b60010161141d565b50506001600160a01b03909916600090815260a0602052604090209890985550600198975050505050505050565b60006115f38284611c45565b9392505050565b61160482826107b8565b61059d5761161181611653565b61161c836020611665565b60405160200161162d929190611c80565b60408051601f198184030181529082905262461bcd60e51b825261058a91600401611cf5565b60606103d56001600160a01b03831660145b60606000611674836002611c45565b61167f906002611bab565b67ffffffffffffffff81111561169757611697611a0a565b6040519080825280601f01601f1916602001820160405280156116c1576020820181803683370190505b509050600360fc1b816000815181106116dc576116dc611bbe565b60200101906001600160f81b031916908160001a905350600f60fb1b8160018151811061170b5761170b611bbe565b60200101906001600160f81b031916908160001a905350600061172f846002611c45565b61173a906001611bab565b90505b60018111156117b2576f181899199a1a9b1b9c1cb0b131b232b360811b85600f166010811061176e5761176e611bbe565b1a60f81b82828151811061178457611784611bbe565b60200101906001600160f81b031916908160001a90535060049490941c936117ab81611d28565b905061173d565b5083156115f35760405162461bcd60e51b815260206004820181905260248201527f537472696e67733a20686578206c656e67746820696e73756666696369656e74604482015260640161058a565b60006020828403121561181357600080fd5b81356001600160e01b0319811681146115f357600080fd5b6001600160a01b03811681146107b557600080fd5b60008060008060008060c0878903121561185957600080fd5b86356118648161182b565b955060208701356118748161182b565b945060408701356118848161182b565b935060608701356118948161182b565b925060808701356118a48161182b565b915060a08701356118b48161182b565b809150509295509295509295565b6000806000806000608086880312156118da57600080fd5b85356118e58161182b565b945060208601356118f58161182b565b935060408601359250606086013567ffffffffffffffff81111561191857600080fd5b8601601f8101881361192957600080fd5b803567ffffffffffffffff81111561194057600080fd5b88602082840101111561195257600080fd5b959894975092955050506020019190565b60006020828403121561197557600080fd5b5035919050565b6000806040838503121561198f57600080fd5b8235915060208301356119a18161182b565b809150509250929050565b6000806000606084860312156119c157600080fd5b83356119cc8161182b565b925060208401356119dc8161182b565b929592945050506040919091013590565b6000602082840312156119ff57600080fd5b81356115f38161182b565b634e487b7160e01b600052604160045260246000fd5b600082601f830112611a3157600080fd5b813567ffffffffffffffff811115611a4b57611a4b611a0a565b8060051b604051601f19603f830116810181811067ffffffffffffffff82111715611a7857611a78611a0a565b604052918252602081850181019290810186841115611a9657600080fd5b6020860192505b83831015611ab5578235815260209283019201611a9d565b5095945050505050565b600080600060608486031215611ad457600080fd5b833567ffffffffffffffff811115611aeb57600080fd5b611af786828701611a20565b935050602084013567ffffffffffffffff811115611b1457600080fd5b611b2086828701611a20565b925050604084013567ffffffffffffffff811115611b3d57600080fd5b611b4986828701611a20565b9150509250925092565b600080600060608486031215611b6857600080fd5b833592506020840135611b7a8161182b565b91506040840135611b8a8161182b565b809150509250925092565b634e487b7160e01b600052601160045260246000fd5b808201808211156103d5576103d5611b95565b634e487b7160e01b600052603260045260246000fd5b600060208284031215611be657600080fd5b5051919050565b600060208284031215611bff57600080fd5b815180151581146115f357600080fd5b600060208284031215611c2157600080fd5b81516115f38161182b565b600060018201611c3e57611c3e611b95565b5060010190565b80820281158282048414176103d5576103d5611b95565b60005b83811015611c77578181015183820152602001611c5f565b50506000910152565b7f416363657373436f6e74726f6c3a206163636f756e7420000000000000000000815260008351611cb8816017850160208801611c5c565b7001034b99036b4b9b9b4b733903937b6329607d1b6017918401918201528351611ce9816028840160208801611c5c565b01602801949350505050565b6020815260008251806020840152611d14816040850160208701611c5c565b601f01601f19169190910160400192915050565b600081611d3757611d37611b95565b50600019019056fea26469706673582212205dad42790252bee31df5aa598b5a28a79d9b7e183b28338858e1689407caf4d164736f6c634300081a0033","linkReferences":{}},"methodIdentifiers":{"DEFAULT_ADMIN_ROLE()":"a217fddf","Requirements()":"61b5d621","SIGNER_ROLE()":"a1ebf35d","getRoleAdmin(bytes32)":"248a9ca3","grantRole(bytes32,address)":"2f2ff15d","hasRole(bytes32,address)":"91d14854","initialize()":"8129fc1c","lastAssetIdMinted(address)":"6bed4a40","migrateAllAsset(uint256[],uint256[],uint256[])":"e27fff5a","migrateERC20Token(uint256,address,address)":"e780ae69","onERC721Received(address,address,uint256,bytes)":"150b7a02","renounceRole(bytes32,address)":"36568abe","revokeRole(bytes32,address)":"d547741f","setERC721Requirements(address,address,address,address,address,address)":"0c1d3d36","setTokenInfo(address,address,uint256)":"590782a9","supportsInterface(bytes4)":"01ffc9a7","tokensMigrated(address)":"b0c67d97","totalAcreMigrated()":"6e327de3","totalPlotMigrated()":"df8f332d","totalYardMigrated()":"db5d0aad"},"id":10}