{"abi":[{"type":"constructor","inputs":[],"stateMutability":"nonpayable"},{"type":"function","name":"getBalance","inputs":[{"name":"addr","type":"address","internalType":"address"}],"outputs":[{"name":"","type":"uint256","internalType":"uint256"}],"stateMutability":"view"},{"type":"function","name":"getBalanceInEth","inputs":[{"name":"addr","type":"address","internalType":"address"}],"outputs":[{"name":"","type":"uint256","internalType":"uint256"}],"stateMutability":"view"},{"type":"function","name":"sendCoin","inputs":[{"name":"receiver","type":"address","internalType":"address"},{"name":"amount","type":"uint256","internalType":"uint256"}],"outputs":[{"name":"sufficient","type":"bool","internalType":"bool"}],"stateMutability":"nonpayable"},{"type":"event","name":"Transfer","inputs":[{"name":"_from","type":"address","indexed":true,"internalType":"address"},{"name":"_to","type":"address","indexed":true,"internalType":"address"},{"name":"_value","type":"uint256","indexed":false,"internalType":"uint256"}],"anonymous":false}],"bytecode":{"object":"0x608060405234801561001057600080fd5b503260009081526020819052604090206127109055610254806100346000396000f3fe608060405234801561001057600080fd5b50600436106100415760003560e01c80637bd703e81461004657806390b98a111461007e578063f8b2cb4f146100be575b600080fd5b61006c6004803603602081101561005c57600080fd5b50356001600160a01b03166100e4565b60408051918252519081900360200190f35b6100aa6004803603604081101561009457600080fd5b506001600160a01b038135169060200135610178565b604080519115158252519081900360200190f35b61006c600480360360208110156100d457600080fd5b50356001600160a01b0316610204565b600073__$491ea375df30d42730007cba4424511bbb$__6396e4ee3d61010984610204565b60026040518363ffffffff1660e01b8152600401808381526020018281526020019250505060206040518083038186803b15801561014657600080fd5b505af415801561015a573d6000803e3d6000fd5b505050506040513d602081101561017057600080fd5b505192915050565b33600090815260208190526040812054821115610197575060006101fe565b33600081815260208181526040808320805487900390556001600160a01b03871680845292819020805487019055805186815290519293927fddf252ad1be2c89b69c2b068fc378daa952ba7f163c4a11628f55a4df523b3ef929181900390910190a35060015b92915050565b6001600160a01b03166000908152602081905260409020549056fea265627a7a72315820611c40d61c845c99978defa99d7fb7b23dd0fc1e5ac3991f27d27a7e85965cce64736f6c63430005110032","linkReferences":{"v1-migrator/node_modules/eth-gas-reporter/mock/contracts/ConvertLib.sol":{"ConvertLib":[{"start":284,"length":20}]}}},"methodIdentifiers":{"getBalance(address)":"f8b2cb4f","getBalanceInEth(address)":"7bd703e8","sendCoin(address,uint256)":"90b98a11"},"id":7}