{"abi":[{"type":"function","name":"ERC721A_Initialize","inputs":[{"name":"name_","type":"string","internalType":"string"},{"name":"symbol_","type":"string","internalType":"string"}],"outputs":[],"stateMutability":"nonpayable"},{"type":"function","name":"approve","inputs":[{"name":"to","type":"address","internalType":"address"},{"name":"tokenId","type":"uint256","internalType":"uint256"}],"outputs":[],"stateMutability":"nonpayable"},{"type":"function","name":"balanceOf","inputs":[{"name":"owner","type":"address","internalType":"address"}],"outputs":[{"name":"","type":"uint256","internalType":"uint256"}],"stateMutability":"view"},{"type":"function","name":"getApproved","inputs":[{"name":"tokenId","type":"uint256","internalType":"uint256"}],"outputs":[{"name":"","type":"address","internalType":"address"}],"stateMutability":"view"},{"type":"function","name":"isApprovedForAll","inputs":[{"name":"owner","type":"address","internalType":"address"},{"name":"operator","type":"address","internalType":"address"}],"outputs":[{"name":"","type":"bool","internalType":"bool"}],"stateMutability":"view"},{"type":"function","name":"multiOwnerOf","inputs":[{"name":"_ids","type":"uint256[]","internalType":"uint256[]"},{"name":"_owner","type":"address","internalType":"address"}],"outputs":[{"name":"result","type":"bool","internalType":"bool"}],"stateMutability":"view"},{"type":"function","name":"name","inputs":[],"outputs":[{"name":"","type":"string","internalType":"string"}],"stateMutability":"view"},{"type":"function","name":"ownerOf","inputs":[{"name":"tokenId","type":"uint256","internalType":"uint256"}],"outputs":[{"name":"","type":"address","internalType":"address"}],"stateMutability":"view"},{"type":"function","name":"safeTransferFrom","inputs":[{"name":"from","type":"address","internalType":"address"},{"name":"to","type":"address","internalType":"address"},{"name":"tokenId","type":"uint256","internalType":"uint256"}],"outputs":[],"stateMutability":"nonpayable"},{"type":"function","name":"safeTransferFrom","inputs":[{"name":"from","type":"address","internalType":"address"},{"name":"to","type":"address","internalType":"address"},{"name":"tokenId","type":"uint256","internalType":"uint256"},{"name":"_data","type":"bytes","internalType":"bytes"}],"outputs":[],"stateMutability":"nonpayable"},{"type":"function","name":"setApprovalForAll","inputs":[{"name":"operator","type":"address","internalType":"address"},{"name":"approved","type":"bool","internalType":"bool"}],"outputs":[],"stateMutability":"nonpayable"},{"type":"function","name":"supportsInterface","inputs":[{"name":"interfaceId","type":"bytes4","internalType":"bytes4"}],"outputs":[{"name":"","type":"bool","internalType":"bool"}],"stateMutability":"view"},{"type":"function","name":"symbol","inputs":[],"outputs":[{"name":"","type":"string","internalType":"string"}],"stateMutability":"view"},{"type":"function","name":"tokenURI","inputs":[{"name":"tokenId","type":"uint256","internalType":"uint256"}],"outputs":[{"name":"","type":"string","internalType":"string"}],"stateMutability":"view"},{"type":"function","name":"totalSupply","inputs":[],"outputs":[{"name":"","type":"uint256","internalType":"uint256"}],"stateMutability":"view"},{"type":"function","name":"transferBulkFrom","inputs":[{"name":"from","type":"address","internalType":"address"},{"name":"to","type":"address","internalType":"address"},{"name":"tokenIds","type":"uint256[]","internalType":"uint256[]"}],"outputs":[],"stateMutability":"nonpayable"},{"type":"function","name":"transferFrom","inputs":[{"name":"from","type":"address","internalType":"address"},{"name":"to","type":"address","internalType":"address"},{"name":"tokenId","type":"uint256","internalType":"uint256"}],"outputs":[],"stateMutability":"nonpayable"},{"type":"event","name":"Approval","inputs":[{"name":"owner","type":"address","indexed":true,"internalType":"address"},{"name":"approved","type":"address","indexed":true,"internalType":"address"},{"name":"tokenId","type":"uint256","indexed":true,"internalType":"uint256"}],"anonymous":false},{"type":"event","name":"ApprovalForAll","inputs":[{"name":"owner","type":"address","indexed":true,"internalType":"address"},{"name":"operator","type":"address","indexed":true,"internalType":"address"},{"name":"approved","type":"bool","indexed":false,"internalType":"bool"}],"anonymous":false},{"type":"event","name":"Initialized","inputs":[{"name":"version","type":"uint8","indexed":false,"internalType":"uint8"}],"anonymous":false},{"type":"event","name":"Transfer","inputs":[{"name":"from","type":"address","indexed":true,"internalType":"address"},{"name":"to","type":"address","indexed":true,"internalType":"address"},{"name":"tokenId","type":"uint256","indexed":true,"internalType":"uint256"}],"anonymous":false},{"type":"error","name":"ApprovalCallerNotOwnerNorApproved","inputs":[]},{"type":"error","name":"ApprovalQueryForNonexistentToken","inputs":[]},{"type":"error","name":"ApprovalToCurrentOwner","inputs":[]},{"type":"error","name":"ApproveToCaller","inputs":[]},{"type":"error","name":"BalanceQueryForZeroAddress","inputs":[]},{"type":"error","name":"InvalidLength","inputs":[]},{"type":"error","name":"OwnerQueryForNonexistentToken","inputs":[]},{"type":"error","name":"TransferCallerNotOwnerNorApproved","inputs":[]},{"type":"error","name":"TransferFromIncorrectOwner","inputs":[]},{"type":"error","name":"TransferToNonERC721ReceiverImplementer","inputs":[]},{"type":"error","name":"TransferToZeroAddress","inputs":[]},{"type":"error","name":"URIQueryForNonexistentToken","inputs":[]}],"bytecode":{"object":"0x6080604052348015600f57600080fd5b5061128a8061001f6000396000f3fe608060405234801561001057600080fd5b506004361061010b5760003560e01c80636352211e116100a257806395d89b411161007157806395d89b4114610228578063a22cb46514610230578063b88d4fde14610243578063c87b56dd14610256578063e985e9c51461026957600080fd5b80636352211e146101dc57806370a08231146101ef578063889da803146102025780638b0e6a161461021557600080fd5b806318160ddd116100de57806318160ddd1461018d578063224eae36146101a357806323b872dd146101b657806342842e0e146101c957600080fd5b806301ffc9a71461011057806306fdde0314610138578063081812fc1461014d578063095ea7b314610178575b600080fd5b61012361011e366004610c4d565b6102a5565b60405190151581526020015b60405180910390f35b6101406102f7565b60405161012f9190610cb0565b61016061015b366004610cc3565b610389565b6040516001600160a01b03909116815260200161012f565b61018b610186366004610cf8565b6103cd565b005b606654606554035b60405190815260200161012f565b6101236101b1366004610dea565b61045a565b61018b6101c4366004610e37565b6104db565b61018b6101d7366004610e37565b6104e6565b6101606101ea366004610cc3565b610501565b6101956101fd366004610e74565b610513565b61018b610210366004610f0a565b610561565b61018b610223366004610f71565b6105f3565b6101406105fe565b61018b61023e366004610fce565b61060d565b61018b61025136600461100a565b6106a2565b610140610264366004610cc3565b6106f3565b610123610277366004611085565b6001600160a01b039182166000908152606c6020908152604080832093909416825291909152205460ff1690565b60006001600160e01b031982166380ac58cd60e01b14806102d657506001600160e01b03198216635b5e139f60e01b145b806102f157506301ffc9a760e01b6001600160e01b03198316145b92915050565b606060678054610306906110af565b80601f0160208091040260200160405190810160405280929190818152602001828054610332906110af565b801561037f5780601f106103545761010080835404028352916020019161037f565b820191906000526020600020905b81548152906001019060200180831161036257829003601f168201915b5050505050905090565b60006103948261075b565b6103b1576040516333d1c03960e21b815260040160405180910390fd5b506000908152606b60205260409020546001600160a01b031690565b60006103d882610501565b9050806001600160a01b0316836001600160a01b03160361040c5760405163250fdee360e21b815260040160405180910390fd5b336001600160a01b0382161480159061042c575061042a8133610277565b155b1561044a576040516367d9dca160e11b815260040160405180910390fd5b610455838383610787565b505050565b6000825160000361047e5760405163251f56a160e21b815260040160405180910390fd5b50600160005b83518110156104d4576104af8482815181106104a2576104a26110e9565b6020026020010151610501565b6001600160a01b0316836001600160a01b0316146104cc57600091505b600101610484565b5092915050565b6104558383836107e3565b610455838383604051806020016040528060008152506106a2565b600061050c826109f7565b5192915050565b60006001600160a01b03821661053c576040516323d3ad8160e21b815260040160405180910390fd5b506001600160a01b03166000908152606a60205260409020546001600160401b031690565b600054610100900460ff166105d05760405162461bcd60e51b815260206004820152602b60248201527f496e697469616c697a61626c653a20636f6e7472616374206973206e6f74206960448201526a6e697469616c697a696e6760a81b606482015260840160405180910390fd5b60676105dc8382611146565b5060686105e98282611146565b5060006065555050565b610455838383610b11565b606060688054610306906110af565b336001600160a01b038316036106365760405163b06307db60e01b815260040160405180910390fd5b336000818152606c602090815260408083206001600160a01b03871680855290835292819020805460ff191686151590811790915590519081529192917f17307eab39ab6107e8899845ad3d59bd9653f200f220920489ca2b5937696c31910160405180910390a35050565b6106ad8484846107e3565b6001600160a01b0383163b151580156106cf57506106cd84848484610b49565b155b156106ed576040516368d2bf6b60e11b815260040160405180910390fd5b50505050565b60606106fe8261075b565b61071b57604051630a14c4b560e41b815260040160405180910390fd5b600061073260408051602081019091526000815290565b905080516000036107525760405180602001604052806000815250610754565b805b9392505050565b6000606554821080156102f1575050600090815260696020526040902054600160e01b900460ff161590565b6000828152606b602052604080822080546001600160a01b0319166001600160a01b0387811691821790925591518593918516917f8c5be1e5ebec7d5bd14f71427d1e84f3dd0314c0f7b2291e5b200ac8c7c3b92591a4505050565b60006107ee826109f7565b80519091506000906001600160a01b0316336001600160a01b0316148061081c5750815161081c9033610277565b8061083757503361082c84610389565b6001600160a01b0316145b90508061085757604051632ce44b5f60e11b815260040160405180910390fd5b846001600160a01b031682600001516001600160a01b03161461088c5760405162a1148160e81b815260040160405180910390fd5b6001600160a01b0384166108b357604051633a954ecd60e21b815260040160405180910390fd5b6108c36000848460000151610787565b6001600160a01b038581166000908152606a60209081526040808320805467ffffffffffffffff198082166001600160401b0392831660001901831617909255898616808652838620805493841693831660019081018416949094179055898652606990945282852080546001600160e01b031916909417600160a01b4290921691909102179092559086018083529120549091166109ad576065548110156109ad57825160008281526069602090815260409091208054918601516001600160401b0316600160a01b026001600160e01b03199092166001600160a01b03909316929092171790555b5082846001600160a01b0316866001600160a01b03167fddf252ad1be2c89b69c2b068fc378daa952ba7f163c4a11628f55a4df523b3ef60405160405180910390a45b5050505050565b604080516060810182526000808252602082018190529181019190915281606554811015610af857600081815260696020908152604091829020825160608101845290546001600160a01b0381168252600160a01b81046001600160401b031692820192909252600160e01b90910460ff16151591810182905290610af65780516001600160a01b031615610a8d579392505050565b5060001901600081815260696020908152604091829020825160608101845290546001600160a01b038116808352600160a01b82046001600160401b031693830193909352600160e01b900460ff1615159281019290925215610af1579392505050565b610a8d565b505b604051636f96cda160e11b815260040160405180910390fd5b60005b81518110156106ed57610b418484848481518110610b3457610b346110e9565b60200260200101516107e3565b600101610b14565b604051630a85bd0160e11b81526000906001600160a01b0385169063150b7a0290610b7e903390899088908890600401611204565b6020604051808303816000875af1925050508015610bb9575060408051601f3d908101601f19168201909252610bb691810190611237565b60015b610c17573d808015610be7576040519150601f19603f3d011682016040523d82523d6000602084013e610bec565b606091505b508051600003610c0f576040516368d2bf6b60e11b815260040160405180910390fd5b805181602001fd5b6001600160e01b031916630a85bd0160e11b149050949350505050565b6001600160e01b031981168114610c4a57600080fd5b50565b600060208284031215610c5f57600080fd5b813561075481610c34565b6000815180845260005b81811015610c9057602081850181015186830182015201610c74565b506000602082860101526020601f19601f83011685010191505092915050565b6020815260006107546020830184610c6a565b600060208284031215610cd557600080fd5b5035919050565b80356001600160a01b0381168114610cf357600080fd5b919050565b60008060408385031215610d0b57600080fd5b610d1483610cdc565b946020939093013593505050565b634e487b7160e01b600052604160045260246000fd5b604051601f8201601f191681016001600160401b0381118282101715610d6057610d60610d22565b604052919050565b600082601f830112610d7957600080fd5b81356001600160401b03811115610d9257610d92610d22565b8060051b610da260208201610d38565b91825260208185018101929081019086841115610dbe57600080fd5b6020860192505b83831015610de0578235825260209283019290910190610dc5565b9695505050505050565b60008060408385031215610dfd57600080fd5b82356001600160401b03811115610e1357600080fd5b610e1f85828601610d68565b925050610e2e60208401610cdc565b90509250929050565b600080600060608486031215610e4c57600080fd5b610e5584610cdc565b9250610e6360208501610cdc565b929592945050506040919091013590565b600060208284031215610e8657600080fd5b61075482610cdc565b6000806001600160401b03841115610ea957610ea9610d22565b50601f8301601f1916602001610ebe81610d38565b915050828152838383011115610ed357600080fd5b828260208301376000602084830101529392505050565b600082601f830112610efb57600080fd5b61075483833560208501610e8f565b60008060408385031215610f1d57600080fd5b82356001600160401b03811115610f3357600080fd5b610f3f85828601610eea565b92505060208301356001600160401b03811115610f5b57600080fd5b610f6785828601610eea565b9150509250929050565b600080600060608486031215610f8657600080fd5b610f8f84610cdc565b9250610f9d60208501610cdc565b915060408401356001600160401b03811115610fb857600080fd5b610fc486828701610d68565b9150509250925092565b60008060408385031215610fe157600080fd5b610fea83610cdc565b915060208301358015158114610fff57600080fd5b809150509250929050565b6000806000806080858703121561102057600080fd5b61102985610cdc565b935061103760208601610cdc565b92506040850135915060608501356001600160401b0381111561105957600080fd5b8501601f8101871361106a57600080fd5b61107987823560208401610e8f565b91505092959194509250565b6000806040838503121561109857600080fd5b6110a183610cdc565b9150610e2e60208401610cdc565b600181811c908216806110c357607f821691505b6020821081036110e357634e487b7160e01b600052602260045260246000fd5b50919050565b634e487b7160e01b600052603260045260246000fd5b601f82111561045557806000526020600020601f840160051c810160208510156111265750805b601f840160051c820191505b818110156109f05760008155600101611132565b81516001600160401b0381111561115f5761115f610d22565b6111738161116d84546110af565b846110ff565b6020601f8211600181146111a7576000831561118f5750848201515b600019600385901b1c1916600184901b1784556109f0565b600084815260208120601f198516915b828110156111d757878501518255602094850194600190920191016111b7565b50848210156111f55786840151600019600387901b60f8161c191681555b50505050600190811b01905550565b6001600160a01b0385811682528416602082015260408101839052608060608201819052600090610de090830184610c6a565b60006020828403121561124957600080fd5b815161075481610c3456fea2646970667358221220e24cbb6cc2937afca443586a630ae97810f22cbe1cebc9b43ff1283a8132886c64736f6c634300081a0033","linkReferences":{}},"methodIdentifiers":{"ERC721A_Initialize(string,string)":"889da803","approve(address,uint256)":"095ea7b3","balanceOf(address)":"70a08231","getApproved(uint256)":"081812fc","isApprovedForAll(address,address)":"e985e9c5","multiOwnerOf(uint256[],address)":"224eae36","name()":"06fdde03","ownerOf(uint256)":"6352211e","safeTransferFrom(address,address,uint256)":"42842e0e","safeTransferFrom(address,address,uint256,bytes)":"b88d4fde","setApprovalForAll(address,bool)":"a22cb465","supportsInterface(bytes4)":"01ffc9a7","symbol()":"95d89b41","tokenURI(uint256)":"c87b56dd","totalSupply()":"18160ddd","transferBulkFrom(address,address,uint256[])":"8b0e6a16","transferFrom(address,address,uint256)":"23b872dd"},"id":3}