{"abi":[{"type":"function","name":"getAsset","inputs":[],"outputs":[{"name":"","type":"tuple","internalType":"struct EncoderV2.Asset","components":[{"name":"a","type":"uint256","internalType":"uint256"},{"name":"b","type":"uint256","internalType":"uint256"},{"name":"c","type":"string","internalType":"string"}]}],"stateMutability":"view"},{"type":"function","name":"setAsset44","inputs":[{"name":"_id","type":"uint256","internalType":"uint256"},{"name":"_a","type":"tuple","internalType":"struct EncoderV2.Asset","components":[{"name":"a","type":"uint256","internalType":"uint256"},{"name":"b","type":"uint256","internalType":"uint256"},{"name":"c","type":"string","internalType":"string"}]}],"outputs":[],"stateMutability":"nonpayable"}],"bytecode":{"object":"0x608060405234801561001057600080fd5b506104e3806100206000396000f3fe608060405234801561001057600080fd5b50600436106100365760003560e01c80635c222bad1461003b5780637be2c7da14610059575b600080fd5b61004361006e565b60405161005091906103cf565b60405180910390f35b61006c6100673660046102ee565b610128565b005b61007661015d565b604080516060810182526001805482526002805460208085019190915260038054865181861615610100026000190190911693909304601f81018390048302840183018752808452949593949386019390918301828280156101195780601f106100ee57610100808354040283529160200191610119565b820191906000526020600020905b8154815290600101906020018083116100fc57829003601f168201915b50505050508152505090505b90565b600082905580516001908155602080830151600255604083015180518493926101569260039291019061017e565b5050505050565b60405180606001604052806000815260200160008152602001606081525090565b828054600181600116156101000203166002900490600052602060002090601f016020900481019282601f106101bf57805160ff19168380011785556101ec565b828001600101855582156101ec579182015b828111156101ec5782518255916020019190600101906101d1565b506101f89291506101fc565b5090565b61012591905b808211156101f85760008155600101610202565b600082601f83011261022757600080fd5b813561023a6102358261040e565b6103e7565b9150808252602083016020830185838301111561025657600080fd5b610261838284610443565b50505092915050565b60006060828403121561027c57600080fd5b61028660606103e7565b9050600061029484846102dd565b82525060206102a5848483016102dd565b602083015250604082013567ffffffffffffffff8111156102c557600080fd5b6102d184828501610216565b60408301525092915050565b80356102e881610489565b92915050565b6000806040838503121561030157600080fd5b600061030d85856102dd565b925050602083013567ffffffffffffffff81111561032a57600080fd5b6103368582860161026a565b9150509250929050565b600061034b82610436565b610355818561043a565b935061036581856020860161044f565b61036e8161047f565b9093019392505050565b8051600090606084019061038c85826103c0565b50602083015161039f60208601826103c0565b50604083015184820360408601526103b78282610340565b95945050505050565b6103c981610125565b82525050565b602080825281016103e08184610378565b9392505050565b60405181810167ffffffffffffffff8111828210171561040657600080fd5b604052919050565b600067ffffffffffffffff82111561042557600080fd5b506020601f91909101601f19160190565b5190565b90815260200190565b82818337506000910152565b60005b8381101561046a578181015183820152602001610452565b83811115610479576000848401525b50505050565b601f01601f191690565b61049281610125565b811461049d57600080fd5b5056fea365627a7a723158205e7deb61e573b25bbe416dac0d0d389f545c54c5fab122fad9cfcafde28f28f66c6578706572696d656e74616cf564736f6c63430005110040","linkReferences":{}},"methodIdentifiers":{"getAsset()":"5c222bad","setAsset44(uint256,(uint256,uint256,string))":"7be2c7da"},"id":1}