{"abi":[{"type":"receive","stateMutability":"payable"},{"type":"function","name":"CANCELLER_ROLE","inputs":[],"outputs":[{"name":"","type":"bytes32","internalType":"bytes32"}],"stateMutability":"view"},{"type":"function","name":"DEFAULT_ADMIN_ROLE","inputs":[],"outputs":[{"name":"","type":"bytes32","internalType":"bytes32"}],"stateMutability":"view"},{"type":"function","name":"EXECUTOR_ROLE","inputs":[],"outputs":[{"name":"","type":"bytes32","internalType":"bytes32"}],"stateMutability":"view"},{"type":"function","name":"PROPOSER_ROLE","inputs":[],"outputs":[{"name":"","type":"bytes32","internalType":"bytes32"}],"stateMutability":"view"},{"type":"function","name":"TIMELOCK_ADMIN_ROLE","inputs":[],"outputs":[{"name":"","type":"bytes32","internalType":"bytes32"}],"stateMutability":"view"},{"type":"function","name":"cancel","inputs":[{"name":"id","type":"bytes32","internalType":"bytes32"}],"outputs":[],"stateMutability":"nonpayable"},{"type":"function","name":"execute","inputs":[{"name":"target","type":"address","internalType":"address"},{"name":"value","type":"uint256","internalType":"uint256"},{"name":"payload","type":"bytes","internalType":"bytes"},{"name":"predecessor","type":"bytes32","internalType":"bytes32"},{"name":"salt","type":"bytes32","internalType":"bytes32"}],"outputs":[],"stateMutability":"payable"},{"type":"function","name":"executeBatch","inputs":[{"name":"targets","type":"address[]","internalType":"address[]"},{"name":"values","type":"uint256[]","internalType":"uint256[]"},{"name":"payloads","type":"bytes[]","internalType":"bytes[]"},{"name":"predecessor","type":"bytes32","internalType":"bytes32"},{"name":"salt","type":"bytes32","internalType":"bytes32"}],"outputs":[],"stateMutability":"payable"},{"type":"function","name":"getMinDelay","inputs":[],"outputs":[{"name":"","type":"uint256","internalType":"uint256"}],"stateMutability":"view"},{"type":"function","name":"getRoleAdmin","inputs":[{"name":"role","type":"bytes32","internalType":"bytes32"}],"outputs":[{"name":"","type":"bytes32","internalType":"bytes32"}],"stateMutability":"view"},{"type":"function","name":"getTimestamp","inputs":[{"name":"id","type":"bytes32","internalType":"bytes32"}],"outputs":[{"name":"","type":"uint256","internalType":"uint256"}],"stateMutability":"view"},{"type":"function","name":"grantRole","inputs":[{"name":"role","type":"bytes32","internalType":"bytes32"},{"name":"account","type":"address","internalType":"address"}],"outputs":[],"stateMutability":"nonpayable"},{"type":"function","name":"hasRole","inputs":[{"name":"role","type":"bytes32","internalType":"bytes32"},{"name":"account","type":"address","internalType":"address"}],"outputs":[{"name":"","type":"bool","internalType":"bool"}],"stateMutability":"view"},{"type":"function","name":"hashOperation","inputs":[{"name":"target","type":"address","internalType":"address"},{"name":"value","type":"uint256","internalType":"uint256"},{"name":"data","type":"bytes","internalType":"bytes"},{"name":"predecessor","type":"bytes32","internalType":"bytes32"},{"name":"salt","type":"bytes32","internalType":"bytes32"}],"outputs":[{"name":"","type":"bytes32","internalType":"bytes32"}],"stateMutability":"pure"},{"type":"function","name":"hashOperationBatch","inputs":[{"name":"targets","type":"address[]","internalType":"address[]"},{"name":"values","type":"uint256[]","internalType":"uint256[]"},{"name":"payloads","type":"bytes[]","internalType":"bytes[]"},{"name":"predecessor","type":"bytes32","internalType":"bytes32"},{"name":"salt","type":"bytes32","internalType":"bytes32"}],"outputs":[{"name":"","type":"bytes32","internalType":"bytes32"}],"stateMutability":"pure"},{"type":"function","name":"isOperation","inputs":[{"name":"id","type":"bytes32","internalType":"bytes32"}],"outputs":[{"name":"","type":"bool","internalType":"bool"}],"stateMutability":"view"},{"type":"function","name":"isOperationDone","inputs":[{"name":"id","type":"bytes32","internalType":"bytes32"}],"outputs":[{"name":"","type":"bool","internalType":"bool"}],"stateMutability":"view"},{"type":"function","name":"isOperationPending","inputs":[{"name":"id","type":"bytes32","internalType":"bytes32"}],"outputs":[{"name":"","type":"bool","internalType":"bool"}],"stateMutability":"view"},{"type":"function","name":"isOperationReady","inputs":[{"name":"id","type":"bytes32","internalType":"bytes32"}],"outputs":[{"name":"","type":"bool","internalType":"bool"}],"stateMutability":"view"},{"type":"function","name":"migrateTo46","inputs":[],"outputs":[],"stateMutability":"nonpayable"},{"type":"function","name":"onERC1155BatchReceived","inputs":[{"name":"","type":"address","internalType":"address"},{"name":"","type":"address","internalType":"address"},{"name":"","type":"uint256[]","internalType":"uint256[]"},{"name":"","type":"uint256[]","internalType":"uint256[]"},{"name":"","type":"bytes","internalType":"bytes"}],"outputs":[{"name":"","type":"bytes4","internalType":"bytes4"}],"stateMutability":"nonpayable"},{"type":"function","name":"onERC1155Received","inputs":[{"name":"","type":"address","internalType":"address"},{"name":"","type":"address","internalType":"address"},{"name":"","type":"uint256","internalType":"uint256"},{"name":"","type":"uint256","internalType":"uint256"},{"name":"","type":"bytes","internalType":"bytes"}],"outputs":[{"name":"","type":"bytes4","internalType":"bytes4"}],"stateMutability":"nonpayable"},{"type":"function","name":"onERC721Received","inputs":[{"name":"","type":"address","internalType":"address"},{"name":"","type":"address","internalType":"address"},{"name":"","type":"uint256","internalType":"uint256"},{"name":"","type":"bytes","internalType":"bytes"}],"outputs":[{"name":"","type":"bytes4","internalType":"bytes4"}],"stateMutability":"nonpayable"},{"type":"function","name":"renounceRole","inputs":[{"name":"role","type":"bytes32","internalType":"bytes32"},{"name":"account","type":"address","internalType":"address"}],"outputs":[],"stateMutability":"nonpayable"},{"type":"function","name":"revokeRole","inputs":[{"name":"role","type":"bytes32","internalType":"bytes32"},{"name":"account","type":"address","internalType":"address"}],"outputs":[],"stateMutability":"nonpayable"},{"type":"function","name":"schedule","inputs":[{"name":"target","type":"address","internalType":"address"},{"name":"value","type":"uint256","internalType":"uint256"},{"name":"data","type":"bytes","internalType":"bytes"},{"name":"predecessor","type":"bytes32","internalType":"bytes32"},{"name":"salt","type":"bytes32","internalType":"bytes32"},{"name":"delay","type":"uint256","internalType":"uint256"}],"outputs":[],"stateMutability":"nonpayable"},{"type":"function","name":"scheduleBatch","inputs":[{"name":"targets","type":"address[]","internalType":"address[]"},{"name":"values","type":"uint256[]","internalType":"uint256[]"},{"name":"payloads","type":"bytes[]","internalType":"bytes[]"},{"name":"predecessor","type":"bytes32","internalType":"bytes32"},{"name":"salt","type":"bytes32","internalType":"bytes32"},{"name":"delay","type":"uint256","internalType":"uint256"}],"outputs":[],"stateMutability":"nonpayable"},{"type":"function","name":"supportsInterface","inputs":[{"name":"interfaceId","type":"bytes4","internalType":"bytes4"}],"outputs":[{"name":"","type":"bool","internalType":"bool"}],"stateMutability":"view"},{"type":"function","name":"updateDelay","inputs":[{"name":"newDelay","type":"uint256","internalType":"uint256"}],"outputs":[],"stateMutability":"nonpayable"},{"type":"event","name":"CallExecuted","inputs":[{"name":"id","type":"bytes32","indexed":true,"internalType":"bytes32"},{"name":"index","type":"uint256","indexed":true,"internalType":"uint256"},{"name":"target","type":"address","indexed":false,"internalType":"address"},{"name":"value","type":"uint256","indexed":false,"internalType":"uint256"},{"name":"data","type":"bytes","indexed":false,"internalType":"bytes"}],"anonymous":false},{"type":"event","name":"CallSalt","inputs":[{"name":"id","type":"bytes32","indexed":true,"internalType":"bytes32"},{"name":"salt","type":"bytes32","indexed":false,"internalType":"bytes32"}],"anonymous":false},{"type":"event","name":"CallScheduled","inputs":[{"name":"id","type":"bytes32","indexed":true,"internalType":"bytes32"},{"name":"index","type":"uint256","indexed":true,"internalType":"uint256"},{"name":"target","type":"address","indexed":false,"internalType":"address"},{"name":"value","type":"uint256","indexed":false,"internalType":"uint256"},{"name":"data","type":"bytes","indexed":false,"internalType":"bytes"},{"name":"predecessor","type":"bytes32","indexed":false,"internalType":"bytes32"},{"name":"delay","type":"uint256","indexed":false,"internalType":"uint256"}],"anonymous":false},{"type":"event","name":"Cancelled","inputs":[{"name":"id","type":"bytes32","indexed":true,"internalType":"bytes32"}],"anonymous":false},{"type":"event","name":"Initialized","inputs":[{"name":"version","type":"uint8","indexed":false,"internalType":"uint8"}],"anonymous":false},{"type":"event","name":"MinDelayChange","inputs":[{"name":"oldDuration","type":"uint256","indexed":false,"internalType":"uint256"},{"name":"newDuration","type":"uint256","indexed":false,"internalType":"uint256"}],"anonymous":false},{"type":"event","name":"RoleAdminChanged","inputs":[{"name":"role","type":"bytes32","indexed":true,"internalType":"bytes32"},{"name":"previousAdminRole","type":"bytes32","indexed":true,"internalType":"bytes32"},{"name":"newAdminRole","type":"bytes32","indexed":true,"internalType":"bytes32"}],"anonymous":false},{"type":"event","name":"RoleGranted","inputs":[{"name":"role","type":"bytes32","indexed":true,"internalType":"bytes32"},{"name":"account","type":"address","indexed":true,"internalType":"address"},{"name":"sender","type":"address","indexed":true,"internalType":"address"}],"anonymous":false},{"type":"event","name":"RoleRevoked","inputs":[{"name":"role","type":"bytes32","indexed":true,"internalType":"bytes32"},{"name":"account","type":"address","indexed":true,"internalType":"address"},{"name":"sender","type":"address","indexed":true,"internalType":"address"}],"anonymous":false}],"bytecode":{"object":"0x6080604052348015600f57600080fd5b50611f968061001f6000396000f3fe6080604052600436106101c65760003560e01c806364d62353116100f7578063b1c5f42711610095578063d547741f11610064578063d547741f1461057d578063e38335e51461059d578063f23a6e61146105b0578063f27a0c92146105dc57600080fd5b8063b1c5f427146104e4578063bc197c8114610504578063c4d252f514610530578063d45c44351461055057600080fd5b80638f61f4f5116100d15780638f61f4f51461046b57806391d148541461048d578063a217fddf146104ad578063b08e51c0146104c257600080fd5b806364d623531461040b5780638065657f1461042b5780638f2a0bb01461044b57600080fd5b80631fb78738116101645780632f2ff15d1161013e5780632f2ff15d1461038b57806331d50750146103ab57806336568abe146103cb578063584b153e146103eb57600080fd5b80631fb7873814610316578063248a9ca31461032b5780632ab0f5291461035b57600080fd5b80630d3cf6fc116101a05780630d3cf6fc1461026b578063134008d31461029f57806313bc9f20146102b2578063150b7a02146102d257600080fd5b806301d5062a146101d257806301ffc9a7146101f457806307bd02651461022957600080fd5b366101cd57005b600080fd5b3480156101de57600080fd5b506101f26101ed366004611579565b6105f1565b005b34801561020057600080fd5b5061021461020f3660046115ed565b6106b5565b60405190151581526020015b60405180910390f35b34801561023557600080fd5b5061025d7fd8aa0f3194971a2a116679f7c2090f6939c8d4e01a2a8d7e41d55e5351469e6381565b604051908152602001610220565b34801561027757600080fd5b5061025d7f5f58e3a2316349923ce3780f8d587db2d72378aed66a8261c916544fa6846ca581565b6101f26102ad366004611617565b6106e0565b3480156102be57600080fd5b506102146102cd366004611682565b610795565b3480156102de57600080fd5b506102fd6102ed366004611750565b630a85bd0160e11b949350505050565b6040516001600160e01b03199091168152602001610220565b34801561032257600080fd5b506101f26107bb565b34801561033757600080fd5b5061025d610346366004611682565b60009081526065602052604090206001015490565b34801561036757600080fd5b50610214610376366004611682565b60009081526097602052604090205460011490565b34801561039757600080fd5b506101f26103a63660046117b7565b6108ef565b3480156103b757600080fd5b506102146103c6366004611682565b610919565b3480156103d757600080fd5b506101f26103e63660046117b7565b610932565b3480156103f757600080fd5b50610214610406366004611682565b6109b0565b34801561041757600080fd5b506101f2610426366004611682565b6109c7565b34801561043757600080fd5b5061025d610446366004611617565b610a6b565b34801561045757600080fd5b506101f2610466366004611827565b610aaa565b34801561047757600080fd5b5061025d600080516020611f2183398151915281565b34801561049957600080fd5b506102146104a83660046117b7565b610c23565b3480156104b957600080fd5b5061025d600081565b3480156104ce57600080fd5b5061025d600080516020611f4183398151915281565b3480156104f057600080fd5b5061025d6104ff3660046118e2565b610c4e565b34801561051057600080fd5b506102fd61051f366004611a16565b63bc197c8160e01b95945050505050565b34801561053c57600080fd5b506101f261054b366004611682565b610c93565b34801561055c57600080fd5b5061025d61056b366004611682565b60009081526097602052604090205490565b34801561058957600080fd5b506101f26105983660046117b7565b610d56565b6101f26105ab3660046118e2565b610d7b565b3480156105bc57600080fd5b506102fd6105cb366004611ac9565b63f23a6e6160e01b95945050505050565b3480156105e857600080fd5b5060985461025d565b600080516020611f2183398151915261060981610eff565b6000610619898989898989610a6b565b90506106258184610f0c565b6000817f4cf4410cc57040e44862ef0f45f3dd5a5e02db8eb8add648d4b0e236f1d07dca8b8b8b8b8b8a60405161066196959493929190611b4a565b60405180910390a383156106aa57807f20fda5fd27a1ea7bf5b9567f143ac5470bb059374a27e8f67cb44f946f6d0387856040516106a191815260200190565b60405180910390a25b505050505050505050565b60006001600160e01b03198216630271189760e51b14806106da57506106da82610ffb565b92915050565b7fd8aa0f3194971a2a116679f7c2090f6939c8d4e01a2a8d7e41d55e5351469e6361070c816000610c23565b61071a5761071a8133611030565b600061072a888888888888610a6b565b90506107368185611089565b61074288888888611124565b6000817fc2617efa69bab66782fa219543714338489c4e9e178271560a91b82c3f612b588a8a8a8a60405161077a9493929190611b87565b60405180910390a361078b816111f7565b5050505050505050565b6000818152609760205260408120546001811180156107b45750428111155b9392505050565b600080516020611f2183398151915260005260656020527fafe71ff1fe81c59ca16af21c02420893e650adae4948ece1623218f842885478547f5f58e3a2316349923ce3780f8d587db2d72378aed66a8261c916544fa6846ca51480156108585750600080516020611f4183398151915260005260656020527fb33a3829f2d1f31fd111fcd13892b72b93a782f7b93bf968903b15b040efa32154155b6108b55760405162461bcd60e51b8152602060048201526024808201527f54696d656c6f636b436f6e74726f6c6c65723a20616c7265616479206d696772604482015263185d195960e21b60648201526084015b60405180910390fd5b6108ed600080516020611f418339815191527f5f58e3a2316349923ce3780f8d587db2d72378aed66a8261c916544fa6846ca5611230565b565b60008281526065602052604090206001015461090a81610eff565b610914838361127b565b505050565b60008181526097602052604081205481905b1192915050565b6001600160a01b03811633146109a25760405162461bcd60e51b815260206004820152602f60248201527f416363657373436f6e74726f6c3a2063616e206f6e6c792072656e6f756e636560448201526e103937b632b9903337b91039b2b63360891b60648201526084016108ac565b6109ac8282611301565b5050565b60008181526097602052604081205460019061092b565b333014610a2a5760405162461bcd60e51b815260206004820152602b60248201527f54696d656c6f636b436f6e74726f6c6c65723a2063616c6c6572206d7573742060448201526a62652074696d656c6f636b60a81b60648201526084016108ac565b60985460408051918252602082018390527f11c24f4ead16507c69ac467fbd5e4eed5fb5c699626d2cc6d66421df253886d5910160405180910390a1609855565b6000868686868686604051602001610a8896959493929190611b4a565b6040516020818303038152906040528051906020012090509695505050505050565b600080516020611f21833981519152610ac281610eff565b888714610ae15760405162461bcd60e51b81526004016108ac90611baf565b888514610b005760405162461bcd60e51b81526004016108ac90611baf565b6000610b128b8b8b8b8b8b8b8b610c4e565b9050610b1e8184610f0c565b60005b8a811015610bd45780827f4cf4410cc57040e44862ef0f45f3dd5a5e02db8eb8add648d4b0e236f1d07dca8e8e85818110610b5e57610b5e611bf2565b9050602002016020810190610b739190611c08565b8d8d86818110610b8557610b85611bf2565b905060200201358c8c87818110610b9e57610b9e611bf2565b9050602002810190610bb09190611c23565b8c8b604051610bc496959493929190611b4a565b60405180910390a3600101610b21565b508315610c1657807f20fda5fd27a1ea7bf5b9567f143ac5470bb059374a27e8f67cb44f946f6d038785604051610c0d91815260200190565b60405180910390a25b5050505050505050505050565b60009182526065602090815260408084206001600160a01b0393909316845291905290205460ff1690565b60008888888888888888604051602001610c6f989796959493929190611d02565b60405160208183030381529060405280519060200120905098975050505050505050565b600080516020611f41833981519152610cab81610eff565b610cb4826109b0565b610d1a5760405162461bcd60e51b815260206004820152603160248201527f54696d656c6f636b436f6e74726f6c6c65723a206f7065726174696f6e2063616044820152701b9b9bdd0818994818d85b98d95b1b1959607a1b60648201526084016108ac565b6000828152609760205260408082208290555183917fbaa1eb22f2a492ba1a5fea61b8df4d27c6c8b5f3971e63bb58fa14ff72eedb7091a25050565b600082815260656020526040902060010154610d7181610eff565b6109148383611301565b7fd8aa0f3194971a2a116679f7c2090f6939c8d4e01a2a8d7e41d55e5351469e63610da7816000610c23565b610db557610db58133611030565b878614610dd45760405162461bcd60e51b81526004016108ac90611baf565b878414610df35760405162461bcd60e51b81526004016108ac90611baf565b6000610e058a8a8a8a8a8a8a8a610c4e565b9050610e118185611089565b60005b89811015610ee95760008b8b83818110610e3057610e30611bf2565b9050602002016020810190610e459190611c08565b905060008a8a84818110610e5b57610e5b611bf2565b9050602002013590503660008a8a86818110610e7957610e79611bf2565b9050602002810190610e8b9190611c23565b91509150610e9b84848484611124565b84867fc2617efa69bab66782fa219543714338489c4e9e178271560a91b82c3f612b5886868686604051610ed29493929190611b87565b60405180910390a350505050806001019050610e14565b50610ef3816111f7565b50505050505050505050565b610f098133611030565b50565b610f1582610919565b15610f7a5760405162461bcd60e51b815260206004820152602f60248201527f54696d656c6f636b436f6e74726f6c6c65723a206f7065726174696f6e20616c60448201526e1c9958591e481cd8da19591d5b1959608a1b60648201526084016108ac565b609854811015610fdb5760405162461bcd60e51b815260206004820152602660248201527f54696d656c6f636b436f6e74726f6c6c65723a20696e73756666696369656e746044820152652064656c617960d01b60648201526084016108ac565b610fe58142611db9565b6000928352609760205260409092209190915550565b60006001600160e01b03198216637965db0b60e01b14806106da57506301ffc9a760e01b6001600160e01b03198316146106da565b61103a8282610c23565b6109ac5761104781611368565b61105283602061137a565b604051602001611063929190611df0565b60408051601f198184030181529082905262461bcd60e51b82526108ac91600401611e65565b61109282610795565b6110ae5760405162461bcd60e51b81526004016108ac90611e98565b8015806110c957506000818152609760205260409020546001145b6109ac5760405162461bcd60e51b815260206004820152602660248201527f54696d656c6f636b436f6e74726f6c6c65723a206d697373696e6720646570656044820152656e64656e637960d01b60648201526084016108ac565b6000846001600160a01b0316848484604051611141929190611ee2565b60006040518083038185875af1925050503d806000811461117e576040519150601f19603f3d011682016040523d82523d6000602084013e611183565b606091505b50509050806111f05760405162461bcd60e51b815260206004820152603360248201527f54696d656c6f636b436f6e74726f6c6c65723a20756e6465726c79696e6720746044820152721c985b9cd858dd1a5bdb881c995d995c9d1959606a1b60648201526084016108ac565b5050505050565b61120081610795565b61121c5760405162461bcd60e51b81526004016108ac90611e98565b600090815260976020526040902060019055565b600082815260656020526040808220600101805490849055905190918391839186917fbd79b86ffe0ab8e8776151514217cd7cacd52c909f66475c3af44e129f0b00ff9190a4505050565b6112858282610c23565b6109ac5760008281526065602090815260408083206001600160a01b03851684529091529020805460ff191660011790556112bd3390565b6001600160a01b0316816001600160a01b0316837f2f8788117e7eff1d82e926ec794901d17c78024a50270940304540a733656f0d60405160405180910390a45050565b61130b8282610c23565b156109ac5760008281526065602090815260408083206001600160a01b0385168085529252808320805460ff1916905551339285917ff6391f5c32d9c69d2a47ea670b442974b53935d1edc7fd64eb21e047a839171b9190a45050565b60606106da6001600160a01b03831660145b60606000611389836002611ef2565b611394906002611db9565b6001600160401b038111156113ab576113ab61169b565b6040519080825280601f01601f1916602001820160405280156113d5576020820181803683370190505b509050600360fc1b816000815181106113f0576113f0611bf2565b60200101906001600160f81b031916908160001a905350600f60fb1b8160018151811061141f5761141f611bf2565b60200101906001600160f81b031916908160001a9053506000611443846002611ef2565b61144e906001611db9565b90505b60018111156114c6576f181899199a1a9b1b9c1cb0b131b232b360811b85600f166010811061148257611482611bf2565b1a60f81b82828151811061149857611498611bf2565b60200101906001600160f81b031916908160001a90535060049490941c936114bf81611f09565b9050611451565b5083156107b45760405162461bcd60e51b815260206004820181905260248201527f537472696e67733a20686578206c656e67746820696e73756666696369656e7460448201526064016108ac565b80356001600160a01b038116811461152c57600080fd5b919050565b60008083601f84011261154357600080fd5b5081356001600160401b0381111561155a57600080fd5b60208301915083602082850101111561157257600080fd5b9250929050565b600080600080600080600060c0888a03121561159457600080fd5b61159d88611515565b96506020880135955060408801356001600160401b038111156115bf57600080fd5b6115cb8a828b01611531565b989b979a50986060810135976080820135975060a09091013595509350505050565b6000602082840312156115ff57600080fd5b81356001600160e01b0319811681146107b457600080fd5b60008060008060008060a0878903121561163057600080fd5b61163987611515565b95506020870135945060408701356001600160401b0381111561165b57600080fd5b61166789828a01611531565b979a9699509760608101359660809091013595509350505050565b60006020828403121561169457600080fd5b5035919050565b634e487b7160e01b600052604160045260246000fd5b604051601f8201601f191681016001600160401b03811182821017156116d9576116d961169b565b604052919050565b600082601f8301126116f257600080fd5b81356001600160401b0381111561170b5761170b61169b565b61171e601f8201601f19166020016116b1565b81815284602083860101111561173357600080fd5b816020850160208301376000918101602001919091529392505050565b6000806000806080858703121561176657600080fd5b61176f85611515565b935061177d60208601611515565b92506040850135915060608501356001600160401b0381111561179f57600080fd5b6117ab878288016116e1565b91505092959194509250565b600080604083850312156117ca57600080fd5b823591506117da60208401611515565b90509250929050565b60008083601f8401126117f557600080fd5b5081356001600160401b0381111561180c57600080fd5b6020830191508360208260051b850101111561157257600080fd5b600080600080600080600080600060c08a8c03121561184557600080fd5b89356001600160401b0381111561185b57600080fd5b6118678c828d016117e3565b909a5098505060208a01356001600160401b0381111561188657600080fd5b6118928c828d016117e3565b90985096505060408a01356001600160401b038111156118b157600080fd5b6118bd8c828d016117e3565b9a9d999c50979a969997986060880135976080810135975060a0013595509350505050565b60008060008060008060008060a0898b0312156118fe57600080fd5b88356001600160401b0381111561191457600080fd5b6119208b828c016117e3565b90995097505060208901356001600160401b0381111561193f57600080fd5b61194b8b828c016117e3565b90975095505060408901356001600160401b0381111561196a57600080fd5b6119768b828c016117e3565b999c989b509699959896976060870135966080013595509350505050565b600082601f8301126119a557600080fd5b81356001600160401b038111156119be576119be61169b565b8060051b6119ce602082016116b1565b918252602081850181019290810190868411156119ea57600080fd5b6020860192505b83831015611a0c5782358252602092830192909101906119f1565b9695505050505050565b600080600080600060a08688031215611a2e57600080fd5b611a3786611515565b9450611a4560208701611515565b935060408601356001600160401b03811115611a6057600080fd5b611a6c88828901611994565b93505060608601356001600160401b03811115611a8857600080fd5b611a9488828901611994565b92505060808601356001600160401b03811115611ab057600080fd5b611abc888289016116e1565b9150509295509295909350565b600080600080600060a08688031215611ae157600080fd5b611aea86611515565b9450611af860208701611515565b9350604086013592506060860135915060808601356001600160401b03811115611ab057600080fd5b81835281816020850137506000828201602090810191909152601f909101601f19169091010190565b60018060a01b038716815285602082015260a060408201526000611b7260a083018688611b21565b60608301949094525060800152949350505050565b60018060a01b0385168152836020820152606060408201526000611a0c606083018486611b21565b60208082526023908201527f54696d656c6f636b436f6e74726f6c6c65723a206c656e677468206d69736d616040820152620e8c6d60eb1b606082015260800190565b634e487b7160e01b600052603260045260246000fd5b600060208284031215611c1a57600080fd5b6107b482611515565b6000808335601e19843603018112611c3a57600080fd5b8301803591506001600160401b03821115611c5457600080fd5b60200191503681900382131561157257600080fd5b60008383855260208501945060208460051b8201018360005b86811015611cf657838303601f19018852813536879003601e19018112611ca857600080fd5b86016020810190356001600160401b03811115611cc457600080fd5b803603821315611cd357600080fd5b611cde858284611b21565b60209a8b019a90955093909301925050600101611c82565b50909695505050505050565b60a0808252810188905260008960c08301825b8b811015611d43576001600160a01b03611d2e84611515565b16825260209283019290910190600101611d15565b5083810360208501528881526001600160fb1b03891115611d6357600080fd5b8860051b9150818a60208301370182810360209081016040850152611d8b9082018789611c69565b60608401959095525050608001529695505050505050565b634e487b7160e01b600052601160045260246000fd5b808201808211156106da576106da611da3565b60005b83811015611de7578181015183820152602001611dcf565b50506000910152565b7f416363657373436f6e74726f6c3a206163636f756e7420000000000000000000815260008351611e28816017850160208801611dcc565b7001034b99036b4b9b9b4b733903937b6329607d1b6017918401918201528351611e59816028840160208801611dcc565b01602801949350505050565b6020815260008251806020840152611e84816040850160208701611dcc565b601f01601f19169190910160400192915050565b6020808252602a908201527f54696d656c6f636b436f6e74726f6c6c65723a206f7065726174696f6e206973604082015269206e6f7420726561647960b01b606082015260800190565b8183823760009101908152919050565b80820281158282048414176106da576106da611da3565b600081611f1857611f18611da3565b50600019019056feb09aa5aeb3702cfd50b6b62bc4532604938f21248a27a1d5ca736082b6819cc1fd643c72710c63c0180259aba6b2d05451e3591a24e58b62239378085726f783a2646970667358221220fa4953d1026eb192a3d7d3cdff062752f02a5a3485168a6a83e654675fbe47eb64736f6c634300081a0033","linkReferences":{}},"methodIdentifiers":{"CANCELLER_ROLE()":"b08e51c0","DEFAULT_ADMIN_ROLE()":"a217fddf","EXECUTOR_ROLE()":"07bd0265","PROPOSER_ROLE()":"8f61f4f5","TIMELOCK_ADMIN_ROLE()":"0d3cf6fc","cancel(bytes32)":"c4d252f5","execute(address,uint256,bytes,bytes32,bytes32)":"134008d3","executeBatch(address[],uint256[],bytes[],bytes32,bytes32)":"e38335e5","getMinDelay()":"f27a0c92","getRoleAdmin(bytes32)":"248a9ca3","getTimestamp(bytes32)":"d45c4435","grantRole(bytes32,address)":"2f2ff15d","hasRole(bytes32,address)":"91d14854","hashOperation(address,uint256,bytes,bytes32,bytes32)":"8065657f","hashOperationBatch(address[],uint256[],bytes[],bytes32,bytes32)":"b1c5f427","isOperation(bytes32)":"31d50750","isOperationDone(bytes32)":"2ab0f529","isOperationPending(bytes32)":"584b153e","isOperationReady(bytes32)":"13bc9f20","migrateTo46()":"1fb78738","onERC1155BatchReceived(address,address,uint256[],uint256[],bytes)":"bc197c81","onERC1155Received(address,address,uint256,uint256,bytes)":"f23a6e61","onERC721Received(address,address,uint256,bytes)":"150b7a02","renounceRole(bytes32,address)":"36568abe","revokeRole(bytes32,address)":"d547741f","schedule(address,uint256,bytes,bytes32,bytes32,uint256)":"01d5062a","scheduleBatch(address[],uint256[],bytes[],bytes32,bytes32,uint256)":"8f2a0bb0","supportsInterface(bytes4)":"01ffc9a7","updateDelay(uint256)":"64d62353"},"id":25}