{"abi":[{"type":"function","name":"hello","inputs":[],"outputs":[],"stateMutability":"nonpayable"}],"bytecode":{"object":"0x6080604052348015600f57600080fd5b50607180601d6000396000f3fe6080604052348015600f57600080fd5b506004361060285760003560e01c806319ff1d2114602d575b600080fd5b60336035565b005b600560005556fea265627a7a72315820a570ade5f04ff67990e6f9bd886b6b843f6288c9767e2dc424fd0cc11b6f777c64736f6c63430005110032","linkReferences":{}},"methodIdentifiers":{"hello()":"19ff1d21"},"id":9}