{"abi":[{"type":"function","name":"goodbye","inputs":[],"outputs":[],"stateMutability":"nonpayable"}],"bytecode":{"object":"0x6080604052348015600f57600080fd5b50607180601d6000396000f3fe6080604052348015600f57600080fd5b506004361060285760003560e01c806375fc8e3c14602d575b600080fd5b60336035565b005b600560005556fea265627a7a723158203f27efd579fe2a75237b05cbcb493bca6bbfaef9ae38ee0a0bb59b7adbf3fea364736f6c63430005110032","linkReferences":{}},"methodIdentifiers":{"goodbye()":"75fc8e3c"},"id":9}