{"abi":[{"type":"fallback","stateMutability":"payable"},{"type":"function","name":"getBalance","inputs":[],"outputs":[{"name":"","type":"uint256","internalType":"uint256"}],"stateMutability":"view"},{"type":"function","name":"sendPayment","inputs":[{"name":"payment","type":"uint256","internalType":"uint256"},{"name":"recipient","type":"address","internalType":"address payable"}],"outputs":[],"stateMutability":"nonpayable"},{"type":"function","name":"transferPayment","inputs":[{"name":"payment","type":"uint256","internalType":"uint256"},{"name":"recipient","type":"address","internalType":"address payable"}],"outputs":[],"stateMutability":"nonpayable"},{"type":"event","name":"Deposit","inputs":[{"name":"_sender","type":"address","indexed":true,"internalType":"address"},{"name":"_value","type":"uint256","indexed":false,"internalType":"uint256"}],"anonymous":false}],"bytecode":{"object":"0x608060405234801561001057600080fd5b506101b2806100206000396000f3fe6080604052600436106100345760003560e01c806312065fe014610073578063137a3fa71461009a578063c58a6ce8146100d3575b34156100715760408051348152905133917fe1fffcc4923d04b559f4d29a8bfc6cda04eb5b0d3c460751c2402c5c5cc9109c919081900360200190a25b005b34801561007f57600080fd5b5061008861010c565b60408051918252519081900360200190f35b3480156100a657600080fd5b50610071600480360360408110156100bd57600080fd5b50803590602001356001600160a01b0316610110565b3480156100df57600080fd5b50610071600480360360408110156100f657600080fd5b50803590602001356001600160a01b031661014b565b4790565b6040516001600160a01b0382169083156108fc029084906000818181858888f19350505050158015610146573d6000803e3d6000fd5b505050565b6040516001600160a01b0382169083156108fc029084906000818181858888f1935050505061017957600080fd5b505056fea265627a7a723158209fe682f8c2ead5a780c11cb7b309dea0bd42761dfa89735a45e64e96c240408564736f6c63430005110032","linkReferences":{}},"methodIdentifiers":{"getBalance()":"12065fe0","sendPayment(uint256,address)":"c58a6ce8","transferPayment(uint256,address)":"137a3fa7"},"id":13}