{"abi":[{"type":"constructor","inputs":[],"stateMutability":"nonpayable"},{"type":"function","name":"deployVersionA","inputs":[],"outputs":[],"stateMutability":"nonpayable"},{"type":"function","name":"deployVersionB","inputs":[],"outputs":[],"stateMutability":"nonpayable"},{"type":"function","name":"versionA","inputs":[],"outputs":[{"name":"","type":"address","internalType":"contract VersionA"}],"stateMutability":"view"},{"type":"function","name":"versionB","inputs":[],"outputs":[{"name":"","type":"address","internalType":"contract VersionB"}],"stateMutability":"view"}],"bytecode":{"object":"0x608060405234801561001057600080fd5b506102ad806100206000396000f3fe608060405234801561001057600080fd5b506004361061004c5760003560e01c806304d2eb381461005157806381b5a89e146100755780638ca0921d1461007f578063d1cd038414610087575b600080fd5b61005961008f565b604080516001600160a01b039092168252519081900360200190f35b61007d61009e565b005b61007d6100e9565b610059610134565b6001546001600160a01b031681565b6040516100aa90610143565b604051809103906000f0801580156100c6573d6000803e3d6000fd5b50600180546001600160a01b0319166001600160a01b0392909216919091179055565b6040516100f59061014f565b604051809103906000f080158015610111573d6000803e3d6000fd5b50600080546001600160a01b0319166001600160a01b0392909216919091179055565b6000546001600160a01b031681565b60948061015c83390190565b6089806101f08339019056fe6080604052348015600f57600080fd5b5060768061001e6000396000f3fe6080604052348015600f57600080fd5b506004361060325760003560e01c8063441a7a271460375780634fa519fa146037575b600080fd5b603d603f565b005b56fea265627a7a72315820aaca96f249a1ef8f440f462567e5e787b35714182e7f36bf7ef4a397741b7e4064736f6c634300051100326080604052348015600f57600080fd5b50606c80601d6000396000f3fe6080604052348015600f57600080fd5b506004361060285760003560e01c80634fa519fa14602d575b600080fd5b60336035565b005b56fea265627a7a72315820a628d9c5e4189a5ea7062d61f5c90de51cedb0cd1ddd156042edf6f58db388db64736f6c63430005110032a265627a7a72315820a31d8a0b07d995a0e19cf0dd1da4d4f4781c47f304eed1241b366c40710a8daf64736f6c63430005110032","linkReferences":{}},"methodIdentifiers":{"deployVersionA()":"8ca0921d","deployVersionB()":"81b5a89e","versionA()":"d1cd0384","versionB()":"04d2eb38"},"id":3}