{"abi":[{"type":"constructor","inputs":[],"stateMutability":"nonpayable"},{"type":"fallback","stateMutability":"payable"},{"type":"function","name":"addToMap","inputs":[{"name":"adds","type":"uint256[]","internalType":"uint256[]"}],"outputs":[],"stateMutability":"nonpayable"},{"type":"function","name":"constantFn","inputs":[{"name":"x","type":"uint256","internalType":"uint256"}],"outputs":[{"name":"","type":"address","internalType":"address"}],"stateMutability":"view"},{"type":"function","name":"getBalance","inputs":[],"outputs":[{"name":"","type":"uint256","internalType":"uint256"}],"stateMutability":"view"},{"type":"function","name":"methodThatThrows","inputs":[{"name":"err","type":"bool","internalType":"bool"}],"outputs":[],"stateMutability":"nonpayable"},{"type":"function","name":"otherContractMethod","inputs":[],"outputs":[],"stateMutability":"nonpayable"},{"type":"function","name":"pureFn","inputs":[{"name":"x","type":"uint256","internalType":"uint256"}],"outputs":[{"name":"","type":"uint256","internalType":"uint256"}],"stateMutability":"pure"},{"type":"function","name":"removeFromMap","inputs":[{"name":"dels","type":"uint256[]","internalType":"uint256[]"}],"outputs":[],"stateMutability":"nonpayable"},{"type":"function","name":"sendPayment","inputs":[{"name":"payment","type":"uint256","internalType":"uint256"},{"name":"recipient","type":"address","internalType":"address payable"}],"outputs":[],"stateMutability":"nonpayable"},{"type":"function","name":"setString","inputs":[{"name":"_someString","type":"string","internalType":"string"}],"outputs":[],"stateMutability":"nonpayable"},{"type":"function","name":"transferPayment","inputs":[{"name":"payment","type":"uint256","internalType":"uint256"},{"name":"recipient","type":"address","internalType":"address payable"}],"outputs":[],"stateMutability":"nonpayable"},{"type":"function","name":"unusedMethod","inputs":[{"name":"a","type":"address","internalType":"address"}],"outputs":[],"stateMutability":"nonpayable"},{"type":"function","name":"viewFn","inputs":[{"name":"x","type":"uint256","internalType":"uint256"}],"outputs":[{"name":"","type":"address","internalType":"address"}],"stateMutability":"view"},{"type":"event","name":"Deposit","inputs":[{"name":"_sender","type":"address","indexed":true,"internalType":"address"},{"name":"_value","type":"uint256","indexed":false,"internalType":"uint256"}],"anonymous":false}],"bytecode":{"object":"0x608060405234801561001057600080fd5b5060405161001d9061005f565b604051809103906000f080158015610039573d6000803e3d6000fd5b50600380546001600160a01b0319166001600160a01b039290921691909117905561006b565b608e8061089e83390190565b6108248061007a6000396000f3fe6080604052600436106100a65760003560e01c80637fcaf666116100645780637fcaf666146101ea57806388a954951461029d578063a828eec51461034d578063c58a6ce814610377578063dfaa3136146103b0578063f86cc00914610460576100a6565b8062cb1ae4146100e557806312065fe014610111578063137a3fa714610138578063231c1ce8146101715780634b7fa6db146101a4578063591d8bd0146101a4575b34156100e35760408051348152905133917fe1fffcc4923d04b559f4d29a8bfc6cda04eb5b0d3c460751c2402c5c5cc9109c919081900360200190a25b005b3480156100f157600080fd5b506100e36004803603602081101561010857600080fd5b50351515610475565b34801561011d57600080fd5b50610126610488565b60408051918252519081900360200190f35b34801561014457600080fd5b506100e36004803603604081101561015b57600080fd5b50803590602001356001600160a01b031661048d565b34801561017d57600080fd5b506100e36004803603602081101561019457600080fd5b50356001600160a01b03166104c8565b3480156101b057600080fd5b506101ce600480360360208110156101c757600080fd5b5035610514565b604080516001600160a01b039092168252519081900360200190f35b3480156101f657600080fd5b506100e36004803603602081101561020d57600080fd5b81019060208101813564010000000081111561022857600080fd5b82018360208201111561023a57600080fd5b8035906020019184600183028401116401000000008311171561025c57600080fd5b91908080601f01602080910402602001604051908101604052809392919081815260200183838082843760009201919091525092955061052f945050505050565b3480156102a957600080fd5b506100e3600480360360208110156102c057600080fd5b8101906020810181356401000000008111156102db57600080fd5b8201836020820111156102ed57600080fd5b8035906020019184602083028401116401000000008311171561030f57600080fd5b919080806020026020016040519081016040528093929190818152602001838360200280828437600092019190915250929550610546945050505050565b34801561035957600080fd5b506101266004803603602081101561037057600080fd5b503561048a565b34801561038357600080fd5b506100e36004803603604081101561039a57600080fd5b50803590602001356001600160a01b0316610592565b3480156103bc57600080fd5b506100e3600480360360208110156103d357600080fd5b8101906020810181356401000000008111156103ee57600080fd5b82018360208201111561040057600080fd5b8035906020019184602083028401116401000000008311171561042257600080fd5b9190808060200260200160405190810160405280939291908181526020018383602002808284376000920191909152509295506105c0945050505050565b34801561046c57600080fd5b506100e361061d565b801561048057600080fd5b506005600055565b475b90565b6040516001600160a01b0382169083156108fc029084906000818181858888f193505050501580156104c3573d6000803e3d6000fd5b505050565b6103e860005260026020527fdb4a836d6fe50cd05e5b563ef006787dd20d32e06dcce199b532c90d680b76b380546001600160a01b0319166001600160a01b0392909216919091179055565b6000908152600260205260409020546001600160a01b031690565b8051610542906001906020840190610757565b5050565b60005b8151811015610542576002600083838151811061056257fe5b602090810291909101810151825281019190915260400160002080546001600160a01b0319169055600101610549565b6040516001600160a01b0382169083156108fc029084906000818181858888f1935050505061054257600080fd5b60005b81518110156105425730600260008484815181106105dd57fe5b602090810291909101810151825281019190915260400160002080546001600160a01b0319166001600160a01b03929092169190911790556001016105c3565b600360009054906101000a90046001600160a01b03166001600160a01b03166319ff1d216040518163ffffffff1660e01b8152600401600060405180830381600087803b15801561066d57600080fd5b505af1158015610681573d6000803e3d6000fd5b50505050600360009054906101000a90046001600160a01b03166001600160a01b03166319ff1d216040518163ffffffff1660e01b8152600401600060405180830381600087803b1580156106d557600080fd5b505af11580156106e9573d6000803e3d6000fd5b50505050600360009054906101000a90046001600160a01b03166001600160a01b03166319ff1d216040518163ffffffff1660e01b8152600401600060405180830381600087803b15801561073d57600080fd5b505af1158015610751573d6000803e3d6000fd5b50505050565b828054600181600116156101000203166002900490600052602060002090601f016020900481019282601f1061079857805160ff19168380011785556107c5565b828001600101855582156107c5579182015b828111156107c55782518255916020019190600101906107aa565b506107d19291506107d5565b5090565b61048a91905b808211156107d157600081556001016107db56fea265627a7a72315820115fd6b32cfbe8679a3d381cf1fa3a4d8476b9c96001f37f2af6e35390f5dcd164736f6c634300051100326080604052348015600f57600080fd5b50607180601d6000396000f3fe6080604052348015600f57600080fd5b506004361060285760003560e01c806319ff1d2114602d575b600080fd5b60336035565b005b600560005556fea265627a7a72315820a570ade5f04ff67990e6f9bd886b6b843f6288c9767e2dc424fd0cc11b6f777c64736f6c63430005110032","linkReferences":{}},"methodIdentifiers":{"addToMap(uint256[])":"dfaa3136","constantFn(uint256)":"591d8bd0","getBalance()":"12065fe0","methodThatThrows(bool)":"00cb1ae4","otherContractMethod()":"f86cc009","pureFn(uint256)":"a828eec5","removeFromMap(uint256[])":"88a95495","sendPayment(uint256,address)":"c58a6ce8","setString(string)":"7fcaf666","transferPayment(uint256,address)":"137a3fa7","unusedMethod(address)":"231c1ce8","viewFn(uint256)":"4b7fa6db"},"id":12}