{"abi":[{"type":"function","name":"lookup","inputs":[{"name":"sig","type":"bytes4","internalType":"bytes4"}],"outputs":[{"name":"","type":"address","internalType":"address"}],"stateMutability":"view"},{"type":"function","name":"pointers","inputs":[{"name":"","type":"bytes4","internalType":"bytes4"}],"outputs":[{"name":"","type":"address","internalType":"address"}],"stateMutability":"view"},{"type":"function","name":"register","inputs":[{"name":"signature","type":"string","internalType":"string"},{"name":"destination","type":"address","internalType":"address"}],"outputs":[],"stateMutability":"nonpayable"},{"type":"function","name":"stringToSig","inputs":[{"name":"signature","type":"string","internalType":"string"}],"outputs":[{"name":"","type":"bytes4","internalType":"bytes4"}],"stateMutability":"pure"}],"bytecode":{"object":"0x608060405234801561001057600080fd5b50610366806100206000396000f3fe608060405234801561001057600080fd5b506004361061004c5760003560e01c80631e59c529146100515780636f68e8d2146101045780637c34752f14610147578063b5d7ccc31461020a575b600080fd5b6101026004803603604081101561006757600080fd5b81019060208101813564010000000081111561008257600080fd5b82018360208201111561009457600080fd5b803590602001918460018302840111640100000000831117156100b657600080fd5b91908080601f016020809104026020016040519081016040528093929190818152602001838380828437600092019190915250929550505090356001600160a01b031691506102319050565b005b61012b6004803603602081101561011a57600080fd5b50356001600160e01b03191661027a565b604080516001600160a01b039092168252519081900360200190f35b6101ed6004803603602081101561015d57600080fd5b81019060208101813564010000000081111561017857600080fd5b82018360208201111561018a57600080fd5b803590602001918460018302840111640100000000831117156101ac57600080fd5b91908080601f01602080910402602001604051908101604052809392919081815260200183838082843760009201919091525092955061029f945050505050565b604080516001600160e01b03199092168252519081900360200190f35b61012b6004803603602081101561022057600080fd5b50356001600160e01b031916610316565b8060008061023e8561029f565b6001600160e01b0319168152602081019190915260400160002080546001600160a01b0319166001600160a01b03929092169190911790555050565b6001600160e01b0319166000908152602081905260409020546001600160a01b031690565b6000816040516020018082805190602001908083835b602083106102d45780518252601f1990920191602091820191016102b5565b6001836020036101000a038019825116818451168082178552505050505050905001915050604051602081830303815290604052805190602001209050919050565b6000602081905290815260409020546001600160a01b03168156fea265627a7a7231582011f1ace12fe64fde915578be7c78879c560ec2db6adcfb7355a79687ba0617c364736f6c63430005110032","linkReferences":{}},"methodIdentifiers":{"lookup(bytes4)":"6f68e8d2","pointers(bytes4)":"b5d7ccc3","register(string,address)":"1e59c529","stringToSig(string)":"7c34752f"},"id":4}