{"abi":[{"type":"constructor","inputs":[{"name":"paymentToken","type":"address","internalType":"address"}],"stateMutability":"nonpayable"},{"type":"function","name":"_currentBatch","inputs":[],"outputs":[{"name":"quantity","type":"uint256","internalType":"uint256"},{"name":"price","type":"uint256","internalType":"uint256"},{"name":"active","type":"bool","internalType":"bool"}],"stateMutability":"view"},{"type":"function","name":"_feeCollector","inputs":[],"outputs":[{"name":"","type":"address","internalType":"address"}],"stateMutability":"view"},{"type":"function","name":"_paymentToken","inputs":[],"outputs":[{"name":"","type":"address","internalType":"address"}],"stateMutability":"view"},{"type":"function","name":"approve","inputs":[{"name":"to","type":"address","internalType":"address"},{"name":"tokenId","type":"uint256","internalType":"uint256"}],"outputs":[],"stateMutability":"nonpayable"},{"type":"function","name":"balanceOf","inputs":[{"name":"owner","type":"address","internalType":"address"}],"outputs":[{"name":"","type":"uint256","internalType":"uint256"}],"stateMutability":"view"},{"type":"function","name":"freeParticipant","inputs":[{"name":"","type":"address","internalType":"address"}],"outputs":[{"name":"","type":"bool","internalType":"bool"}],"stateMutability":"view"},{"type":"function","name":"freeParticipantControllers","inputs":[{"name":"","type":"address","internalType":"address"}],"outputs":[{"name":"","type":"bool","internalType":"bool"}],"stateMutability":"view"},{"type":"function","name":"getApproved","inputs":[{"name":"tokenId","type":"uint256","internalType":"uint256"}],"outputs":[{"name":"","type":"address","internalType":"address"}],"stateMutability":"view"},{"type":"function","name":"isApprovedForAll","inputs":[{"name":"owner","type":"address","internalType":"address"},{"name":"operator","type":"address","internalType":"address"}],"outputs":[{"name":"","type":"bool","internalType":"bool"}],"stateMutability":"view"},{"type":"function","name":"mint","inputs":[{"name":"quantity","type":"uint256","internalType":"uint256"}],"outputs":[],"stateMutability":"nonpayable"},{"type":"function","name":"name","inputs":[],"outputs":[{"name":"","type":"string","internalType":"string"}],"stateMutability":"view"},{"type":"function","name":"owner","inputs":[],"outputs":[{"name":"","type":"address","internalType":"address"}],"stateMutability":"view"},{"type":"function","name":"ownerOf","inputs":[{"name":"tokenId","type":"uint256","internalType":"uint256"}],"outputs":[{"name":"","type":"address","internalType":"address"}],"stateMutability":"view"},{"type":"function","name":"renounceOwnership","inputs":[],"outputs":[],"stateMutability":"nonpayable"},{"type":"function","name":"safeTransferFrom","inputs":[{"name":"from","type":"address","internalType":"address"},{"name":"to","type":"address","internalType":"address"},{"name":"tokenId","type":"uint256","internalType":"uint256"}],"outputs":[],"stateMutability":"nonpayable"},{"type":"function","name":"safeTransferFrom","inputs":[{"name":"from","type":"address","internalType":"address"},{"name":"to","type":"address","internalType":"address"},{"name":"tokenId","type":"uint256","internalType":"uint256"},{"name":"_data","type":"bytes","internalType":"bytes"}],"outputs":[],"stateMutability":"nonpayable"},{"type":"function","name":"setApprovalForAll","inputs":[{"name":"operator","type":"address","internalType":"address"},{"name":"approved","type":"bool","internalType":"bool"}],"outputs":[],"stateMutability":"nonpayable"},{"type":"function","name":"setBaseURI","inputs":[{"name":"newUri","type":"string","internalType":"string"}],"outputs":[],"stateMutability":"nonpayable"},{"type":"function","name":"setCurrentBatch","inputs":[{"name":"quantity","type":"uint256","internalType":"uint256"},{"name":"price","type":"uint256","internalType":"uint256"},{"name":"active","type":"bool","internalType":"bool"}],"outputs":[],"stateMutability":"nonpayable"},{"type":"function","name":"setCurrentBatchActive","inputs":[{"name":"active","type":"bool","internalType":"bool"}],"outputs":[],"stateMutability":"nonpayable"},{"type":"function","name":"setFeeCollector","inputs":[{"name":"collector","type":"address","internalType":"address"}],"outputs":[],"stateMutability":"nonpayable"},{"type":"function","name":"setFreeParticipant","inputs":[{"name":"participant","type":"address","internalType":"address"},{"name":"free","type":"bool","internalType":"bool"}],"outputs":[],"stateMutability":"nonpayable"},{"type":"function","name":"setFreeParticipantController","inputs":[{"name":"freeParticipantController","type":"address","internalType":"address"},{"name":"allow","type":"bool","internalType":"bool"}],"outputs":[],"stateMutability":"nonpayable"},{"type":"function","name":"setPaymentToken","inputs":[{"name":"token","type":"address","internalType":"address"}],"outputs":[],"stateMutability":"nonpayable"},{"type":"function","name":"setTxFee","inputs":[{"name":"amount","type":"uint256","internalType":"uint256"}],"outputs":[],"stateMutability":"nonpayable"},{"type":"function","name":"supportsInterface","inputs":[{"name":"interfaceId","type":"bytes4","internalType":"bytes4"}],"outputs":[{"name":"","type":"bool","internalType":"bool"}],"stateMutability":"view"},{"type":"function","name":"symbol","inputs":[],"outputs":[{"name":"","type":"string","internalType":"string"}],"stateMutability":"view"},{"type":"function","name":"tokenURI","inputs":[{"name":"tokenId","type":"uint256","internalType":"uint256"}],"outputs":[{"name":"","type":"string","internalType":"string"}],"stateMutability":"view"},{"type":"function","name":"totalSupply","inputs":[],"outputs":[{"name":"","type":"uint256","internalType":"uint256"}],"stateMutability":"view"},{"type":"function","name":"transferFrom","inputs":[{"name":"from","type":"address","internalType":"address"},{"name":"to","type":"address","internalType":"address"},{"name":"tokenId","type":"uint256","internalType":"uint256"}],"outputs":[],"stateMutability":"nonpayable"},{"type":"function","name":"transferOwnership","inputs":[{"name":"newOwner","type":"address","internalType":"address"}],"outputs":[],"stateMutability":"nonpayable"},{"type":"event","name":"Approval","inputs":[{"name":"owner","type":"address","indexed":true,"internalType":"address"},{"name":"approved","type":"address","indexed":true,"internalType":"address"},{"name":"tokenId","type":"uint256","indexed":true,"internalType":"uint256"}],"anonymous":false},{"type":"event","name":"ApprovalForAll","inputs":[{"name":"owner","type":"address","indexed":true,"internalType":"address"},{"name":"operator","type":"address","indexed":true,"internalType":"address"},{"name":"approved","type":"bool","indexed":false,"internalType":"bool"}],"anonymous":false},{"type":"event","name":"NewBatchCreated","inputs":[{"name":"batchStartIndex","type":"uint256","indexed":false,"internalType":"uint256"}],"anonymous":false},{"type":"event","name":"OwnershipTransferred","inputs":[{"name":"previousOwner","type":"address","indexed":true,"internalType":"address"},{"name":"newOwner","type":"address","indexed":true,"internalType":"address"}],"anonymous":false},{"type":"event","name":"Transfer","inputs":[{"name":"from","type":"address","indexed":true,"internalType":"address"},{"name":"to","type":"address","indexed":true,"internalType":"address"},{"name":"tokenId","type":"uint256","indexed":true,"internalType":"uint256"}],"anonymous":false},{"type":"error","name":"ApprovalCallerNotOwnerNorApproved","inputs":[]},{"type":"error","name":"ApprovalQueryForNonexistentToken","inputs":[]},{"type":"error","name":"ApprovalToCurrentOwner","inputs":[]},{"type":"error","name":"ApproveToCaller","inputs":[]},{"type":"error","name":"BalanceQueryForZeroAddress","inputs":[]},{"type":"error","name":"MintToZeroAddress","inputs":[]},{"type":"error","name":"MintZeroQuantity","inputs":[]},{"type":"error","name":"OwnerQueryForNonexistentToken","inputs":[]},{"type":"error","name":"TransferCallerNotOwnerNorApproved","inputs":[]},{"type":"error","name":"TransferFromIncorrectOwner","inputs":[]},{"type":"error","name":"TransferToNonERC721ReceiverImplementer","inputs":[]},{"type":"error","name":"TransferToZeroAddress","inputs":[]},{"type":"error","name":"URIQueryForNonexistentToken","inputs":[]}],"bytecode":{"object":"0x610100604052605a608081815290611cd860a03960109061002090826101dd565b5034801561002d57600080fd5b50604051611d32380380611d3283398101604081905261004c9161029b565b604051806040016040528060088152602001671055130816585c9960c21b815250604051806040016040528060048152602001631e50551360e21b815250816002908161009991906101dd565b5060036100a682826101dd565b505060008055506100b6336100ec565b600980546001600160a01b039092166001600160a01b0319928316179055600a8054909116331781556000600e55600f556102cb565b600880546001600160a01b038381166001600160a01b0319831681179093556040519116919082907f8be0079c531659141344cd1fd0a4f28419497f9722a3daafe3b4186f6b6457e090600090a35050565b634e487b7160e01b600052604160045260246000fd5b600181811c9082168061016857607f821691505b60208210810361018857634e487b7160e01b600052602260045260246000fd5b50919050565b601f8211156101d857806000526020600020601f840160051c810160208510156101b55750805b601f840160051c820191505b818110156101d557600081556001016101c1565b50505b505050565b81516001600160401b038111156101f6576101f661013e565b61020a816102048454610154565b8461018e565b6020601f82116001811461023e57600083156102265750848201515b600019600385901b1c1916600184901b1784556101d5565b600084815260208120601f198516915b8281101561026e578785015182556020948501946001909201910161024e565b508482101561028c5786840151600019600387901b60f8161c191681555b50505050600190811b01905550565b6000602082840312156102ad57600080fd5b81516001600160a01b03811681146102c457600080fd5b9392505050565b6119fe806102da6000396000f3fe608060405234801561001057600080fd5b50600436106101e55760003560e01c80638ca126231161010f578063af981602116100a2578063e985e9c511610071578063e985e9c514610436578063f05d16f714610449578063f2fde38b1461045c578063f77a4ba01461046f57600080fd5b8063af981602146103cb578063b88d4fde146103fd578063c380213e14610410578063c87b56dd1461042357600080fd5b8063a0712d68116100de578063a0712d681461037f578063a22cb46514610392578063a42dce80146103a5578063ad8bc99b146103b857600080fd5b80638ca12623146103405780638da5cb5b1461035357806395d89b41146103645780639c8c247c1461036c57600080fd5b806342842e0e116101875780636352211e116101565780636352211e146102ff5780636a326ab11461031257806370a0823114610325578063715018a61461033857600080fd5b806342842e0e146102b357806354ef2fad146102c657806355f804b3146102d95780635a2f5963146102ec57600080fd5b806308a7595b116101c357806308a7595b14610252578063095ea7b31461027557806318160ddd1461028a57806323b872dd146102a057600080fd5b806301ffc9a7146101ea57806306fdde0314610212578063081812fc14610227575b600080fd5b6101fd6101f8366004611481565b610492565b60405190151581526020015b60405180910390f35b61021a6104e4565b60405161020991906114e4565b61023a6102353660046114f7565b610576565b6040516001600160a01b039091168152602001610209565b6101fd61026036600461152c565b60116020526000908152604090205460ff1681565b610288610283366004611547565b6105ba565b005b600154600054035b604051908152602001610209565b6102886102ae366004611571565b610647565b6102886102c1366004611571565b610652565b600a5461023a906001600160a01b031681565b6102886102e736600461163e565b61066d565b60095461023a906001600160a01b031681565b61023a61030d3660046114f7565b610685565b61028861032036600461152c565b610697565b61029261033336600461152c565b6106c1565b610288610710565b61028861034e366004611695565b610724565b6008546001600160a01b031661023a565b61021a61073f565b61028861037a3660046116b2565b61074e565b61028861038d3660046114f7565b610781565b6102886103a03660046116b2565b61096b565b6102886103b336600461152c565b610a00565b6102886103c63660046116e9565b610a2a565b600b54600c54600d546103e092919060ff1683565b604080519384526020840192909252151590820152606001610209565b61028861040b366004611722565b610ad5565b61028861041e3660046116b2565b610b26565b61021a6104313660046114f7565b610b59565b6101fd61044436600461179e565b610bb4565b6102886104573660046114f7565b610be2565b61028861046a36600461152c565b610bef565b6101fd61047d36600461152c565b60126020526000908152604090205460ff1681565b60006001600160e01b031982166380ac58cd60e01b14806104c357506001600160e01b03198216635b5e139f60e01b145b806104de57506301ffc9a760e01b6001600160e01b03198316145b92915050565b6060600280546104f3906117d1565b80601f016020809104026020016040519081016040528092919081815260200182805461051f906117d1565b801561056c5780601f106105415761010080835404028352916020019161056c565b820191906000526020600020905b81548152906001019060200180831161054f57829003601f168201915b5050505050905090565b600061058182610c65565b61059e576040516333d1c03960e21b815260040160405180910390fd5b506000908152600660205260409020546001600160a01b031690565b60006105c582610685565b9050806001600160a01b0316836001600160a01b0316036105f95760405163250fdee360e21b815260040160405180910390fd5b336001600160a01b0382161480159061061957506106178133610bb4565b155b15610637576040516367d9dca160e11b815260040160405180910390fd5b610642838383610c90565b505050565b610642838383610cec565b61064283838360405180602001604052806000815250610ad5565b610675610f02565b60106106818282611852565b5050565b600061069082610f5c565b5192915050565b61069f610f02565b600980546001600160a01b0319166001600160a01b0392909216919091179055565b60006001600160a01b0382166106ea576040516323d3ad8160e21b815260040160405180910390fd5b506001600160a01b031660009081526005602052604090205467ffffffffffffffff1690565b610718610f02565b6107226000611078565b565b61072c610f02565b600d805460ff1916911515919091179055565b6060600380546104f3906117d1565b610756610f02565b6001600160a01b03919091166000908152601260205260409020805460ff1916911515919091179055565b600b546107d55760405162461bcd60e51b815260206004820152601b60248201527f4e6f206d6f726520746f6b656e73206c65667420746f206d696e74000000000060448201526064015b60405180910390fd5b600d5460ff166108275760405162461bcd60e51b815260206004820152601b60248201527f43757272656e74204261746368206973206e6f7420616374697665000000000060448201526064016107cc565b600081116108825760405162461bcd60e51b815260206004820152602260248201527f5175616e74697479206d7573742062652067726561746572207468616e207a65604482015261726f60f01b60648201526084016107cc565b600f548111158061089d57506008546001600160a01b031633145b6108e95760405162461bcd60e51b815260206004820152601860248201527f4d61782062757920616d6f756e74206c696d697420686974000000000000000060448201526064016107cc565b3360009081526012602052604090205460ff1661094d5761090a33826110ca565b61094d5760405162461bcd60e51b81526020600482015260146024820152734d75737420706179206d696e74696e672066656560601b60448201526064016107cc565b600b5461095b908290611927565b600b55610968338261117c565b50565b336001600160a01b038316036109945760405163b06307db60e01b815260040160405180910390fd5b3360008181526007602090815260408083206001600160a01b03871680855290835292819020805460ff191686151590811790915590519081529192917f17307eab39ab6107e8899845ad3d59bd9653f200f220920489ca2b5937696c31910160405180910390a35050565b610a08610f02565b600a80546001600160a01b0319166001600160a01b0392909216919091179055565b610a32610f02565b600b5415610a825760405162461bcd60e51b815260206004820152601b60248201527f43757272656e74206261746368206e6f742066696e69736865642e000000000060448201526064016107cc565b600b839055600d805460ff1916821515179055600c8290556000546040519081527f23dc39e904e08378c98e99cea57ef2312460ae8a28311d26e28f4bd49d75c7569060200160405180910390a1505050565b610ae0848484610cec565b6001600160a01b0383163b15158015610b025750610b0084848484611196565b155b15610b20576040516368d2bf6b60e11b815260040160405180910390fd5b50505050565b610b2e610f02565b6001600160a01b03919091166000908152601160205260409020805460ff1916911515919091179055565b6060610b6482610c65565b610b8157604051630a14c4b560e41b815260040160405180910390fd5b6000610b8b611282565b90508051600003610bab5760405180602001604052806000815250610bad565b805b9392505050565b6001600160a01b03918216600090815260076020908152604080832093909416825291909152205460ff1690565b610bea610f02565b600e55565b610bf7610f02565b6001600160a01b038116610c5c5760405162461bcd60e51b815260206004820152602660248201527f4f776e61626c653a206e6577206f776e657220697320746865207a65726f206160448201526564647265737360d01b60648201526084016107cc565b61096881611078565b60008054821080156104de575050600090815260046020526040902054600160e01b900460ff161590565b60008281526006602052604080822080546001600160a01b0319166001600160a01b0387811691821790925591518593918516917f8c5be1e5ebec7d5bd14f71427d1e84f3dd0314c0f7b2291e5b200ac8c7c3b92591a4505050565b6000610cf782610f5c565b80519091506000906001600160a01b0316336001600160a01b03161480610d2557508151610d259033610bb4565b80610d40575033610d3584610576565b6001600160a01b0316145b905080610d6057604051632ce44b5f60e11b815260040160405180910390fd5b846001600160a01b031682600001516001600160a01b031614610d955760405162a1148160e81b815260040160405180910390fd5b6001600160a01b038416610dbc57604051633a954ecd60e21b815260040160405180910390fd5b610dcc6000848460000151610c90565b6001600160a01b038581166000908152600560209081526040808320805467ffffffffffffffff1980821667ffffffffffffffff92831660001901831617909255898616808652838620805493841693831660019081018416949094179055898652600490945282852080546001600160e01b031916909417600160a01b429092169190910217909255908601808352912054909116610eb857600054811015610eb8578251600082815260046020908152604090912080549186015167ffffffffffffffff16600160a01b026001600160e01b03199092166001600160a01b03909316929092171790555b5082846001600160a01b0316866001600160a01b03167fddf252ad1be2c89b69c2b068fc378daa952ba7f163c4a11628f55a4df523b3ef60405160405180910390a45b5050505050565b6008546001600160a01b031633146107225760405162461bcd60e51b815260206004820181905260248201527f4f776e61626c653a2063616c6c6572206973206e6f7420746865206f776e657260448201526064016107cc565b60408051606081018252600080825260208201819052918101919091528160005481101561105f57600081815260046020908152604091829020825160608101845290546001600160a01b0381168252600160a01b810467ffffffffffffffff1692820192909252600160e01b90910460ff1615159181018290529061105d5780516001600160a01b031615610ff3579392505050565b5060001901600081815260046020908152604091829020825160608101845290546001600160a01b038116808352600160a01b820467ffffffffffffffff1693830193909352600160e01b900460ff1615159281019290925215611058579392505050565b610ff3565b505b604051636f96cda160e11b815260040160405180910390fd5b600880546001600160a01b038381166001600160a01b0319831681179093556040519116919082907f8be0079c531659141344cd1fd0a4f28419497f9722a3daafe3b4186f6b6457e090600090a35050565b600954600a54600c546000926001600160a01b039081169283926323b872dd92889216906110f990889061193a565b6040516001600160e01b031960e086901b1681526001600160a01b03938416600482015292909116602483015260448201526064016020604051808303816000875af115801561114d573d6000803e3d6000fd5b505050506040513d601f19601f820116820180604052508101906111719190611951565b506001949350505050565b610681828260405180602001604052806000815250611291565b604051630a85bd0160e11b81526000906001600160a01b0385169063150b7a02906111cb90339089908890889060040161196e565b6020604051808303816000875af1925050508015611206575060408051601f3d908101601f19168201909252611203918101906119ab565b60015b611264573d808015611234576040519150601f19603f3d011682016040523d82523d6000602084013e611239565b606091505b50805160000361125c576040516368d2bf6b60e11b815260040160405180910390fd5b805181602001fd5b6001600160e01b031916630a85bd0160e11b1490505b949350505050565b6060601080546104f3906117d1565b61064283838360016000546001600160a01b0385166112c257604051622e076360e81b815260040160405180910390fd5b836000036112e35760405163b562e8dd60e01b815260040160405180910390fd5b6001600160a01b038516600081815260056020908152604080832080546fffffffffffffffffffffffffffffffff19811667ffffffffffffffff8083168c0181169182176801000000000000000067ffffffffffffffff1990941690921783900481168c01811690920217909155858452600490925290912080546001600160e01b031916909217600160a01b42909216919091021790558080850183801561139557506001600160a01b0387163b15155b1561141d575b60405182906001600160a01b038916906000907fddf252ad1be2c89b69c2b068fc378daa952ba7f163c4a11628f55a4df523b3ef908290a46113e66000888480600101955088611196565b611403576040516368d2bf6b60e11b815260040160405180910390fd5b80820361139b57826000541461141857600080fd5b611462565b5b6040516001830192906001600160a01b038916906000907fddf252ad1be2c89b69c2b068fc378daa952ba7f163c4a11628f55a4df523b3ef908290a480820361141e575b50600055610efb565b6001600160e01b03198116811461096857600080fd5b60006020828403121561149357600080fd5b8135610bad8161146b565b6000815180845260005b818110156114c4576020818501810151868301820152016114a8565b506000602082860101526020601f19601f83011685010191505092915050565b602081526000610bad602083018461149e565b60006020828403121561150957600080fd5b5035919050565b80356001600160a01b038116811461152757600080fd5b919050565b60006020828403121561153e57600080fd5b610bad82611510565b6000806040838503121561155a57600080fd5b61156383611510565b946020939093013593505050565b60008060006060848603121561158657600080fd5b61158f84611510565b925061159d60208501611510565b929592945050506040919091013590565b634e487b7160e01b600052604160045260246000fd5b60008067ffffffffffffffff8411156115df576115df6115ae565b50604051601f19601f85018116603f0116810181811067ffffffffffffffff8211171561160e5761160e6115ae565b60405283815290508082840185101561162657600080fd5b83836020830137600060208583010152509392505050565b60006020828403121561165057600080fd5b813567ffffffffffffffff81111561166757600080fd5b8201601f8101841361167857600080fd5b61127a848235602084016115c4565b801515811461096857600080fd5b6000602082840312156116a757600080fd5b8135610bad81611687565b600080604083850312156116c557600080fd5b6116ce83611510565b915060208301356116de81611687565b809150509250929050565b6000806000606084860312156116fe57600080fd5b8335925060208401359150604084013561171781611687565b809150509250925092565b6000806000806080858703121561173857600080fd5b61174185611510565b935061174f60208601611510565b925060408501359150606085013567ffffffffffffffff81111561177257600080fd5b8501601f8101871361178357600080fd5b611792878235602084016115c4565b91505092959194509250565b600080604083850312156117b157600080fd5b6117ba83611510565b91506117c860208401611510565b90509250929050565b600181811c908216806117e557607f821691505b60208210810361180557634e487b7160e01b600052602260045260246000fd5b50919050565b601f82111561064257806000526020600020601f840160051c810160208510156118325750805b601f840160051c820191505b81811015610efb576000815560010161183e565b815167ffffffffffffffff81111561186c5761186c6115ae565b6118808161187a84546117d1565b8461180b565b6020601f8211600181146118b4576000831561189c5750848201515b600019600385901b1c1916600184901b178455610efb565b600084815260208120601f198516915b828110156118e457878501518255602094850194600190920191016118c4565b50848210156119025786840151600019600387901b60f8161c191681555b50505050600190811b01905550565b634e487b7160e01b600052601160045260246000fd5b818103818111156104de576104de611911565b80820281158282048414176104de576104de611911565b60006020828403121561196357600080fd5b8151610bad81611687565b6001600160a01b03858116825284166020820152604081018390526080606082018190526000906119a19083018461149e565b9695505050505050565b6000602082840312156119bd57600080fd5b8151610bad8161146b56fea2646970667358221220064b45127efcdfc8c1b21cff5f37126541a1d59f15c74ebb4203c693c00f501664736f6c634300081a003368747470733a2f2f736964656b69636b66696e616e63652e6d7970696e6174612e636c6f75642f697066732f516d5652566a6d6d4b3562444a6470535841795a346971517352357137773474794450547168563231556959544d","linkReferences":{}},"methodIdentifiers":{"_currentBatch()":"af981602","_feeCollector()":"54ef2fad","_paymentToken()":"5a2f5963","approve(address,uint256)":"095ea7b3","balanceOf(address)":"70a08231","freeParticipant(address)":"f77a4ba0","freeParticipantControllers(address)":"08a7595b","getApproved(uint256)":"081812fc","isApprovedForAll(address,address)":"e985e9c5","mint(uint256)":"a0712d68","name()":"06fdde03","owner()":"8da5cb5b","ownerOf(uint256)":"6352211e","renounceOwnership()":"715018a6","safeTransferFrom(address,address,uint256)":"42842e0e","safeTransferFrom(address,address,uint256,bytes)":"b88d4fde","setApprovalForAll(address,bool)":"a22cb465","setBaseURI(string)":"55f804b3","setCurrentBatch(uint256,uint256,bool)":"ad8bc99b","setCurrentBatchActive(bool)":"8ca12623","setFeeCollector(address)":"a42dce80","setFreeParticipant(address,bool)":"9c8c247c","setFreeParticipantController(address,bool)":"c380213e","setPaymentToken(address)":"6a326ab1","setTxFee(uint256)":"f05d16f7","supportsInterface(bytes4)":"01ffc9a7","symbol()":"95d89b41","tokenURI(uint256)":"c87b56dd","totalSupply()":"18160ddd","transferFrom(address,address,uint256)":"23b872dd","transferOwnership(address)":"f2fde38b"},"id":9}