{"abi":[{"type":"constructor","inputs":[{"name":"paymentToken","type":"address","internalType":"address"}],"stateMutability":"nonpayable"},{"type":"function","name":"_currentBatch","inputs":[],"outputs":[{"name":"quantity","type":"uint256","internalType":"uint256"},{"name":"price","type":"uint256","internalType":"uint256"},{"name":"active","type":"bool","internalType":"bool"}],"stateMutability":"view"},{"type":"function","name":"_feeCollector","inputs":[],"outputs":[{"name":"","type":"address","internalType":"address"}],"stateMutability":"view"},{"type":"function","name":"_paymentToken","inputs":[],"outputs":[{"name":"","type":"address","internalType":"address"}],"stateMutability":"view"},{"type":"function","name":"approve","inputs":[{"name":"to","type":"address","internalType":"address"},{"name":"tokenId","type":"uint256","internalType":"uint256"}],"outputs":[],"stateMutability":"nonpayable"},{"type":"function","name":"balanceOf","inputs":[{"name":"owner","type":"address","internalType":"address"}],"outputs":[{"name":"","type":"uint256","internalType":"uint256"}],"stateMutability":"view"},{"type":"function","name":"freeParticipant","inputs":[{"name":"","type":"address","internalType":"address"}],"outputs":[{"name":"","type":"bool","internalType":"bool"}],"stateMutability":"view"},{"type":"function","name":"freeParticipantControllers","inputs":[{"name":"","type":"address","internalType":"address"}],"outputs":[{"name":"","type":"bool","internalType":"bool"}],"stateMutability":"view"},{"type":"function","name":"getApproved","inputs":[{"name":"tokenId","type":"uint256","internalType":"uint256"}],"outputs":[{"name":"","type":"address","internalType":"address"}],"stateMutability":"view"},{"type":"function","name":"isApprovedForAll","inputs":[{"name":"owner","type":"address","internalType":"address"},{"name":"operator","type":"address","internalType":"address"}],"outputs":[{"name":"","type":"bool","internalType":"bool"}],"stateMutability":"view"},{"type":"function","name":"mint","inputs":[{"name":"quantity","type":"uint256","internalType":"uint256"}],"outputs":[],"stateMutability":"nonpayable"},{"type":"function","name":"name","inputs":[],"outputs":[{"name":"","type":"string","internalType":"string"}],"stateMutability":"view"},{"type":"function","name":"owner","inputs":[],"outputs":[{"name":"","type":"address","internalType":"address"}],"stateMutability":"view"},{"type":"function","name":"ownerOf","inputs":[{"name":"tokenId","type":"uint256","internalType":"uint256"}],"outputs":[{"name":"","type":"address","internalType":"address"}],"stateMutability":"view"},{"type":"function","name":"renounceOwnership","inputs":[],"outputs":[],"stateMutability":"nonpayable"},{"type":"function","name":"safeTransferFrom","inputs":[{"name":"from","type":"address","internalType":"address"},{"name":"to","type":"address","internalType":"address"},{"name":"tokenId","type":"uint256","internalType":"uint256"}],"outputs":[],"stateMutability":"nonpayable"},{"type":"function","name":"safeTransferFrom","inputs":[{"name":"from","type":"address","internalType":"address"},{"name":"to","type":"address","internalType":"address"},{"name":"tokenId","type":"uint256","internalType":"uint256"},{"name":"_data","type":"bytes","internalType":"bytes"}],"outputs":[],"stateMutability":"nonpayable"},{"type":"function","name":"setApprovalForAll","inputs":[{"name":"operator","type":"address","internalType":"address"},{"name":"approved","type":"bool","internalType":"bool"}],"outputs":[],"stateMutability":"nonpayable"},{"type":"function","name":"setCurrentBatch","inputs":[{"name":"quantity","type":"uint256","internalType":"uint256"},{"name":"price","type":"uint256","internalType":"uint256"},{"name":"active","type":"bool","internalType":"bool"}],"outputs":[],"stateMutability":"nonpayable"},{"type":"function","name":"setCurrentBatchActive","inputs":[{"name":"active","type":"bool","internalType":"bool"}],"outputs":[],"stateMutability":"nonpayable"},{"type":"function","name":"setFeeCollector","inputs":[{"name":"collector","type":"address","internalType":"address"}],"outputs":[],"stateMutability":"nonpayable"},{"type":"function","name":"setFreeParticipant","inputs":[{"name":"participant","type":"address","internalType":"address"},{"name":"free","type":"bool","internalType":"bool"}],"outputs":[],"stateMutability":"nonpayable"},{"type":"function","name":"setFreeParticipantController","inputs":[{"name":"freeParticipantController","type":"address","internalType":"address"},{"name":"allow","type":"bool","internalType":"bool"}],"outputs":[],"stateMutability":"nonpayable"},{"type":"function","name":"setPaymentToken","inputs":[{"name":"token","type":"address","internalType":"address"}],"outputs":[],"stateMutability":"nonpayable"},{"type":"function","name":"setTxFee","inputs":[{"name":"amount","type":"uint256","internalType":"uint256"}],"outputs":[],"stateMutability":"nonpayable"},{"type":"function","name":"supportsInterface","inputs":[{"name":"interfaceId","type":"bytes4","internalType":"bytes4"}],"outputs":[{"name":"","type":"bool","internalType":"bool"}],"stateMutability":"view"},{"type":"function","name":"symbol","inputs":[],"outputs":[{"name":"","type":"string","internalType":"string"}],"stateMutability":"view"},{"type":"function","name":"tokenURI","inputs":[{"name":"tokenId","type":"uint256","internalType":"uint256"}],"outputs":[{"name":"","type":"string","internalType":"string"}],"stateMutability":"view"},{"type":"function","name":"totalSupply","inputs":[],"outputs":[{"name":"","type":"uint256","internalType":"uint256"}],"stateMutability":"view"},{"type":"function","name":"transferFrom","inputs":[{"name":"from","type":"address","internalType":"address"},{"name":"to","type":"address","internalType":"address"},{"name":"tokenId","type":"uint256","internalType":"uint256"}],"outputs":[],"stateMutability":"nonpayable"},{"type":"function","name":"transferOwnership","inputs":[{"name":"newOwner","type":"address","internalType":"address"}],"outputs":[],"stateMutability":"nonpayable"},{"type":"event","name":"Approval","inputs":[{"name":"owner","type":"address","indexed":true,"internalType":"address"},{"name":"approved","type":"address","indexed":true,"internalType":"address"},{"name":"tokenId","type":"uint256","indexed":true,"internalType":"uint256"}],"anonymous":false},{"type":"event","name":"ApprovalForAll","inputs":[{"name":"owner","type":"address","indexed":true,"internalType":"address"},{"name":"operator","type":"address","indexed":true,"internalType":"address"},{"name":"approved","type":"bool","indexed":false,"internalType":"bool"}],"anonymous":false},{"type":"event","name":"NewBatchCreated","inputs":[{"name":"batchStartIndex","type":"uint256","indexed":false,"internalType":"uint256"}],"anonymous":false},{"type":"event","name":"OwnershipTransferred","inputs":[{"name":"previousOwner","type":"address","indexed":true,"internalType":"address"},{"name":"newOwner","type":"address","indexed":true,"internalType":"address"}],"anonymous":false},{"type":"event","name":"Transfer","inputs":[{"name":"from","type":"address","indexed":true,"internalType":"address"},{"name":"to","type":"address","indexed":true,"internalType":"address"},{"name":"tokenId","type":"uint256","indexed":true,"internalType":"uint256"}],"anonymous":false},{"type":"error","name":"ApprovalCallerNotOwnerNorApproved","inputs":[]},{"type":"error","name":"ApprovalQueryForNonexistentToken","inputs":[]},{"type":"error","name":"ApprovalToCurrentOwner","inputs":[]},{"type":"error","name":"ApproveToCaller","inputs":[]},{"type":"error","name":"BalanceQueryForZeroAddress","inputs":[]},{"type":"error","name":"MintToZeroAddress","inputs":[]},{"type":"error","name":"MintZeroQuantity","inputs":[]},{"type":"error","name":"OwnerQueryForNonexistentToken","inputs":[]},{"type":"error","name":"TransferCallerNotOwnerNorApproved","inputs":[]},{"type":"error","name":"TransferFromIncorrectOwner","inputs":[]},{"type":"error","name":"TransferToNonERC721ReceiverImplementer","inputs":[]},{"type":"error","name":"TransferToZeroAddress","inputs":[]},{"type":"error","name":"URIQueryForNonexistentToken","inputs":[]}],"bytecode":{"object":"0x608060405234801561001057600080fd5b50604051611b92380380611b9283398101604081905261002f91610121565b6040518060400160405280600881526020016710551308141b1bdd60c21b815250604051806040016040528060048152602001631c10551360e21b815250816002908161007c91906101f0565b50600361008982826101f0565b50506000805550610099336100cf565b600980546001600160a01b039092166001600160a01b0319928316179055600a8054909116331781556000600e55600f556102ae565b600880546001600160a01b038381166001600160a01b0319831681179093556040519116919082907f8be0079c531659141344cd1fd0a4f28419497f9722a3daafe3b4186f6b6457e090600090a35050565b60006020828403121561013357600080fd5b81516001600160a01b038116811461014a57600080fd5b9392505050565b634e487b7160e01b600052604160045260246000fd5b600181811c9082168061017b57607f821691505b60208210810361019b57634e487b7160e01b600052602260045260246000fd5b50919050565b601f8211156101eb57806000526020600020601f840160051c810160208510156101c85750805b601f840160051c820191505b818110156101e857600081556001016101d4565b50505b505050565b81516001600160401b0381111561020957610209610151565b61021d816102178454610167565b846101a1565b6020601f82116001811461025157600083156102395750848201515b600019600385901b1c1916600184901b1784556101e8565b600084815260208120601f198516915b828110156102815787850151825560209485019460019092019101610261565b508482101561029f5786840151600019600387901b60f8161c191681555b50505050600190811b01905550565b6118d5806102bd6000396000f3fe608060405234801561001057600080fd5b50600436106101da5760003560e01c80638da5cb5b11610104578063af981602116100a2578063e985e9c511610071578063e985e9c514610418578063f05d16f71461042b578063f2fde38b1461043e578063f77a4ba01461045157600080fd5b8063af981602146103ad578063b88d4fde146103df578063c380213e146103f2578063c87b56dd1461040557600080fd5b8063a0712d68116100de578063a0712d6814610361578063a22cb46514610374578063a42dce8014610387578063ad8bc99b1461039a57600080fd5b80638da5cb5b1461033557806395d89b41146103465780639c8c247c1461034e57600080fd5b806342842e0e1161017c5780636a326ab11161014b5780636a326ab1146102f457806370a0823114610307578063715018a61461031a5780638ca126231461032257600080fd5b806342842e0e146102a857806354ef2fad146102bb5780635a2f5963146102ce5780636352211e146102e157600080fd5b806308a7595b116101b857806308a7595b14610247578063095ea7b31461026a57806318160ddd1461027f57806323b872dd1461029557600080fd5b806301ffc9a7146101df57806306fdde0314610207578063081812fc1461021c575b600080fd5b6101f26101ed36600461145f565b610474565b60405190151581526020015b60405180910390f35b61020f6104c6565b6040516101fe91906114c2565b61022f61022a3660046114d5565b610558565b6040516001600160a01b0390911681526020016101fe565b6101f261025536600461150a565b60106020526000908152604090205460ff1681565b61027d610278366004611525565b61059c565b005b600154600054035b6040519081526020016101fe565b61027d6102a336600461154f565b610629565b61027d6102b636600461154f565b610634565b600a5461022f906001600160a01b031681565b60095461022f906001600160a01b031681565b61022f6102ef3660046114d5565b61064f565b61027d61030236600461150a565b610661565b61028761031536600461150a565b61068b565b61027d6106da565b61027d61033036600461159a565b6106ee565b6008546001600160a01b031661022f565b61020f610709565b61027d61035c3660046115b7565b610718565b61027d61036f3660046114d5565b61074b565b61027d6103823660046115b7565b610935565b61027d61039536600461150a565b6109ca565b61027d6103a83660046115ee565b6109f4565b600b54600c54600d546103c292919060ff1683565b6040805193845260208401929092521515908201526060016101fe565b61027d6103ed36600461163d565b610a9f565b61027d6104003660046115b7565b610af0565b61020f6104133660046114d5565b610b23565b6101f2610426366004611721565b610b7e565b61027d6104393660046114d5565b610bac565b61027d61044c36600461150a565b610bb9565b6101f261045f36600461150a565b60116020526000908152604090205460ff1681565b60006001600160e01b031982166380ac58cd60e01b14806104a557506001600160e01b03198216635b5e139f60e01b145b806104c057506301ffc9a760e01b6001600160e01b03198316145b92915050565b6060600280546104d590611754565b80601f016020809104026020016040519081016040528092919081815260200182805461050190611754565b801561054e5780601f106105235761010080835404028352916020019161054e565b820191906000526020600020905b81548152906001019060200180831161053157829003601f168201915b5050505050905090565b600061056382610c2f565b610580576040516333d1c03960e21b815260040160405180910390fd5b506000908152600660205260409020546001600160a01b031690565b60006105a78261064f565b9050806001600160a01b0316836001600160a01b0316036105db5760405163250fdee360e21b815260040160405180910390fd5b336001600160a01b038216148015906105fb57506105f98133610b7e565b155b15610619576040516367d9dca160e11b815260040160405180910390fd5b610624838383610c5a565b505050565b610624838383610cb6565b61062483838360405180602001604052806000815250610a9f565b600061065a82610ecc565b5192915050565b610669610fe8565b600980546001600160a01b0319166001600160a01b0392909216919091179055565b60006001600160a01b0382166106b4576040516323d3ad8160e21b815260040160405180910390fd5b506001600160a01b031660009081526005602052604090205467ffffffffffffffff1690565b6106e2610fe8565b6106ec6000611042565b565b6106f6610fe8565b600d805460ff1916911515919091179055565b6060600380546104d590611754565b610720610fe8565b6001600160a01b03919091166000908152601160205260409020805460ff1916911515919091179055565b600b5461079f5760405162461bcd60e51b815260206004820152601b60248201527f4e6f206d6f726520746f6b656e73206c65667420746f206d696e74000000000060448201526064015b60405180910390fd5b600d5460ff166107f15760405162461bcd60e51b815260206004820152601b60248201527f43757272656e74204261746368206973206e6f742061637469766500000000006044820152606401610796565b6000811161084c5760405162461bcd60e51b815260206004820152602260248201527f5175616e74697479206d7573742062652067726561746572207468616e207a65604482015261726f60f01b6064820152608401610796565b600f548111158061086757506008546001600160a01b031633145b6108b35760405162461bcd60e51b815260206004820152601860248201527f4d61782062757920616d6f756e74206c696d69742068697400000000000000006044820152606401610796565b3360009081526011602052604090205460ff16610917576108d43382611094565b6109175760405162461bcd60e51b81526020600482015260146024820152734d75737420706179206d696e74696e672066656560601b6044820152606401610796565b600b546109259082906117a4565b600b556109323382611146565b50565b336001600160a01b0383160361095e5760405163b06307db60e01b815260040160405180910390fd5b3360008181526007602090815260408083206001600160a01b03871680855290835292819020805460ff191686151590811790915590519081529192917f17307eab39ab6107e8899845ad3d59bd9653f200f220920489ca2b5937696c31910160405180910390a35050565b6109d2610fe8565b600a80546001600160a01b0319166001600160a01b0392909216919091179055565b6109fc610fe8565b600b5415610a4c5760405162461bcd60e51b815260206004820152601b60248201527f43757272656e74206261746368206e6f742066696e69736865642e00000000006044820152606401610796565b600b839055600d805460ff1916821515179055600c8290556000546040519081527f23dc39e904e08378c98e99cea57ef2312460ae8a28311d26e28f4bd49d75c7569060200160405180910390a1505050565b610aaa848484610cb6565b6001600160a01b0383163b15158015610acc5750610aca84848484611164565b155b15610aea576040516368d2bf6b60e11b815260040160405180910390fd5b50505050565b610af8610fe8565b6001600160a01b03919091166000908152601060205260409020805460ff1916911515919091179055565b6060610b2e82610c2f565b610b4b57604051630a14c4b560e41b815260040160405180910390fd5b6000610b5561124f565b90508051600003610b755760405180602001604052806000815250610b77565b805b9392505050565b6001600160a01b03918216600090815260076020908152604080832093909416825291909152205460ff1690565b610bb4610fe8565b600e55565b610bc1610fe8565b6001600160a01b038116610c265760405162461bcd60e51b815260206004820152602660248201527f4f776e61626c653a206e6577206f776e657220697320746865207a65726f206160448201526564647265737360d01b6064820152608401610796565b61093281611042565b60008054821080156104c0575050600090815260046020526040902054600160e01b900460ff161590565b60008281526006602052604080822080546001600160a01b0319166001600160a01b0387811691821790925591518593918516917f8c5be1e5ebec7d5bd14f71427d1e84f3dd0314c0f7b2291e5b200ac8c7c3b92591a4505050565b6000610cc182610ecc565b80519091506000906001600160a01b0316336001600160a01b03161480610cef57508151610cef9033610b7e565b80610d0a575033610cff84610558565b6001600160a01b0316145b905080610d2a57604051632ce44b5f60e11b815260040160405180910390fd5b846001600160a01b031682600001516001600160a01b031614610d5f5760405162a1148160e81b815260040160405180910390fd5b6001600160a01b038416610d8657604051633a954ecd60e21b815260040160405180910390fd5b610d966000848460000151610c5a565b6001600160a01b038581166000908152600560209081526040808320805467ffffffffffffffff1980821667ffffffffffffffff92831660001901831617909255898616808652838620805493841693831660019081018416949094179055898652600490945282852080546001600160e01b031916909417600160a01b429092169190910217909255908601808352912054909116610e8257600054811015610e82578251600082815260046020908152604090912080549186015167ffffffffffffffff16600160a01b026001600160e01b03199092166001600160a01b03909316929092171790555b5082846001600160a01b0316866001600160a01b03167fddf252ad1be2c89b69c2b068fc378daa952ba7f163c4a11628f55a4df523b3ef60405160405180910390a45b5050505050565b604080516060810182526000808252602082018190529181019190915281600054811015610fcf57600081815260046020908152604091829020825160608101845290546001600160a01b0381168252600160a01b810467ffffffffffffffff1692820192909252600160e01b90910460ff16151591810182905290610fcd5780516001600160a01b031615610f63579392505050565b5060001901600081815260046020908152604091829020825160608101845290546001600160a01b038116808352600160a01b820467ffffffffffffffff1693830193909352600160e01b900460ff1615159281019290925215610fc8579392505050565b610f63565b505b604051636f96cda160e11b815260040160405180910390fd5b6008546001600160a01b031633146106ec5760405162461bcd60e51b815260206004820181905260248201527f4f776e61626c653a2063616c6c6572206973206e6f7420746865206f776e65726044820152606401610796565b600880546001600160a01b038381166001600160a01b0319831681179093556040519116919082907f8be0079c531659141344cd1fd0a4f28419497f9722a3daafe3b4186f6b6457e090600090a35050565b600954600a54600c546000926001600160a01b039081169283926323b872dd92889216906110c39088906117b7565b6040516001600160e01b031960e086901b1681526001600160a01b03938416600482015292909116602483015260448201526064016020604051808303816000875af1158015611117573d6000803e3d6000fd5b505050506040513d601f19601f8201168201806040525081019061113b91906117ce565b506001949350505050565b61116082826040518060200160405280600081525061126f565b5050565b604051630a85bd0160e11b81526000906001600160a01b0385169063150b7a02906111999033908990889088906004016117eb565b6020604051808303816000875af19250505080156111d4575060408051601f3d908101601f191682019092526111d191810190611828565b60015b611232573d808015611202576040519150601f19603f3d011682016040523d82523d6000602084013e611207565b606091505b50805160000361122a576040516368d2bf6b60e11b815260040160405180910390fd5b805181602001fd5b6001600160e01b031916630a85bd0160e11b149050949350505050565b60606040518060800160405280605a8152602001611846605a9139905090565b61062483838360016000546001600160a01b0385166112a057604051622e076360e81b815260040160405180910390fd5b836000036112c15760405163b562e8dd60e01b815260040160405180910390fd5b6001600160a01b038516600081815260056020908152604080832080546fffffffffffffffffffffffffffffffff19811667ffffffffffffffff8083168c0181169182176801000000000000000067ffffffffffffffff1990941690921783900481168c01811690920217909155858452600490925290912080546001600160e01b031916909217600160a01b42909216919091021790558080850183801561137357506001600160a01b0387163b15155b156113fb575b60405182906001600160a01b038916906000907fddf252ad1be2c89b69c2b068fc378daa952ba7f163c4a11628f55a4df523b3ef908290a46113c46000888480600101955088611164565b6113e1576040516368d2bf6b60e11b815260040160405180910390fd5b8082036113795782600054146113f657600080fd5b611440565b5b6040516001830192906001600160a01b038916906000907fddf252ad1be2c89b69c2b068fc378daa952ba7f163c4a11628f55a4df523b3ef908290a48082036113fc575b50600055610ec5565b6001600160e01b03198116811461093257600080fd5b60006020828403121561147157600080fd5b8135610b7781611449565b6000815180845260005b818110156114a257602081850181015186830182015201611486565b506000602082860101526020601f19601f83011685010191505092915050565b602081526000610b77602083018461147c565b6000602082840312156114e757600080fd5b5035919050565b80356001600160a01b038116811461150557600080fd5b919050565b60006020828403121561151c57600080fd5b610b77826114ee565b6000806040838503121561153857600080fd5b611541836114ee565b946020939093013593505050565b60008060006060848603121561156457600080fd5b61156d846114ee565b925061157b602085016114ee565b929592945050506040919091013590565b801515811461093257600080fd5b6000602082840312156115ac57600080fd5b8135610b778161158c565b600080604083850312156115ca57600080fd5b6115d3836114ee565b915060208301356115e38161158c565b809150509250929050565b60008060006060848603121561160357600080fd5b8335925060208401359150604084013561161c8161158c565b809150509250925092565b634e487b7160e01b600052604160045260246000fd5b6000806000806080858703121561165357600080fd5b61165c856114ee565b935061166a602086016114ee565b925060408501359150606085013567ffffffffffffffff81111561168d57600080fd5b8501601f8101871361169e57600080fd5b803567ffffffffffffffff8111156116b8576116b8611627565b604051601f8201601f19908116603f0116810167ffffffffffffffff811182821017156116e7576116e7611627565b6040528181528282016020018910156116ff57600080fd5b8160208401602083013760006020838301015280935050505092959194509250565b6000806040838503121561173457600080fd5b61173d836114ee565b915061174b602084016114ee565b90509250929050565b600181811c9082168061176857607f821691505b60208210810361178857634e487b7160e01b600052602260045260246000fd5b50919050565b634e487b7160e01b600052601160045260246000fd5b818103818111156104c0576104c061178e565b80820281158282048414176104c0576104c061178e565b6000602082840312156117e057600080fd5b8151610b778161158c565b6001600160a01b038581168252841660208201526040810183905260806060820181905260009061181e9083018461147c565b9695505050505050565b60006020828403121561183a57600080fd5b8151610b778161144956fe68747470733a2f2f736964656b69636b66696e616e63652e6d7970696e6174612e636c6f75642f697066732f516d534737537344674d6b585241387953577864657239745159524b6758765431446d6839735374714d31687547a26469706673582212201100b9b592d9b71066d17e17a85c697dd57e88c704ab3ce4db394da6906ae98264736f6c634300081a0033","linkReferences":{}},"methodIdentifiers":{"_currentBatch()":"af981602","_feeCollector()":"54ef2fad","_paymentToken()":"5a2f5963","approve(address,uint256)":"095ea7b3","balanceOf(address)":"70a08231","freeParticipant(address)":"f77a4ba0","freeParticipantControllers(address)":"08a7595b","getApproved(uint256)":"081812fc","isApprovedForAll(address,address)":"e985e9c5","mint(uint256)":"a0712d68","name()":"06fdde03","owner()":"8da5cb5b","ownerOf(uint256)":"6352211e","renounceOwnership()":"715018a6","safeTransferFrom(address,address,uint256)":"42842e0e","safeTransferFrom(address,address,uint256,bytes)":"b88d4fde","setApprovalForAll(address,bool)":"a22cb465","setCurrentBatch(uint256,uint256,bool)":"ad8bc99b","setCurrentBatchActive(bool)":"8ca12623","setFeeCollector(address)":"a42dce80","setFreeParticipant(address,bool)":"9c8c247c","setFreeParticipantController(address,bool)":"c380213e","setPaymentToken(address)":"6a326ab1","setTxFee(uint256)":"f05d16f7","supportsInterface(bytes4)":"01ffc9a7","symbol()":"95d89b41","tokenURI(uint256)":"c87b56dd","totalSupply()":"18160ddd","transferFrom(address,address,uint256)":"23b872dd","transferOwnership(address)":"f2fde38b"},"id":8}