{"abi":[{"type":"function","name":"DEFAULT_ADMIN_ROLE","inputs":[],"outputs":[{"name":"","type":"bytes32","internalType":"bytes32"}],"stateMutability":"view"},{"type":"function","name":"ERC721A_Initialize","inputs":[{"name":"name_","type":"string","internalType":"string"},{"name":"symbol_","type":"string","internalType":"string"}],"outputs":[],"stateMutability":"nonpayable"},{"type":"function","name":"SIGNER_ROLE","inputs":[],"outputs":[{"name":"","type":"bytes32","internalType":"bytes32"}],"stateMutability":"view"},{"type":"function","name":"_currentBatch","inputs":[],"outputs":[{"name":"quantity","type":"uint256","internalType":"uint256"},{"name":"price","type":"uint256","internalType":"uint256"},{"name":"active","type":"bool","internalType":"bool"},{"name":"batch","type":"uint256","internalType":"uint256"},{"name":"startIndex","type":"uint256","internalType":"uint256"}],"stateMutability":"view"},{"type":"function","name":"_feeCollector","inputs":[],"outputs":[{"name":"","type":"address","internalType":"address"}],"stateMutability":"view"},{"type":"function","name":"_paymentToken","inputs":[],"outputs":[{"name":"","type":"address","internalType":"address"}],"stateMutability":"view"},{"type":"function","name":"allBatches","inputs":[{"name":"","type":"uint256","internalType":"uint256"}],"outputs":[{"name":"quantity","type":"uint256","internalType":"uint256"},{"name":"price","type":"uint256","internalType":"uint256"},{"name":"active","type":"bool","internalType":"bool"},{"name":"batch","type":"uint256","internalType":"uint256"},{"name":"startIndex","type":"uint256","internalType":"uint256"}],"stateMutability":"view"},{"type":"function","name":"approve","inputs":[{"name":"to","type":"address","internalType":"address"},{"name":"tokenId","type":"uint256","internalType":"uint256"}],"outputs":[],"stateMutability":"nonpayable"},{"type":"function","name":"balanceOf","inputs":[{"name":"owner","type":"address","internalType":"address"}],"outputs":[{"name":"","type":"uint256","internalType":"uint256"}],"stateMutability":"view"},{"type":"function","name":"freeParticipant","inputs":[{"name":"","type":"address","internalType":"address"}],"outputs":[{"name":"","type":"bool","internalType":"bool"}],"stateMutability":"view"},{"type":"function","name":"freeParticipantControllers","inputs":[{"name":"","type":"address","internalType":"address"}],"outputs":[{"name":"","type":"bool","internalType":"bool"}],"stateMutability":"view"},{"type":"function","name":"getApproved","inputs":[{"name":"tokenId","type":"uint256","internalType":"uint256"}],"outputs":[{"name":"","type":"address","internalType":"address"}],"stateMutability":"view"},{"type":"function","name":"getRoleAdmin","inputs":[{"name":"role","type":"bytes32","internalType":"bytes32"}],"outputs":[{"name":"","type":"bytes32","internalType":"bytes32"}],"stateMutability":"view"},{"type":"function","name":"grantRole","inputs":[{"name":"role","type":"bytes32","internalType":"bytes32"},{"name":"account","type":"address","internalType":"address"}],"outputs":[],"stateMutability":"nonpayable"},{"type":"function","name":"hasRole","inputs":[{"name":"role","type":"bytes32","internalType":"bytes32"},{"name":"account","type":"address","internalType":"address"}],"outputs":[{"name":"","type":"bool","internalType":"bool"}],"stateMutability":"view"},{"type":"function","name":"initialize","inputs":[{"name":"paymentToken","type":"address","internalType":"address"}],"outputs":[],"stateMutability":"nonpayable"},{"type":"function","name":"isApprovedForAll","inputs":[{"name":"owner","type":"address","internalType":"address"},{"name":"operator","type":"address","internalType":"address"}],"outputs":[{"name":"","type":"bool","internalType":"bool"}],"stateMutability":"view"},{"type":"function","name":"mint","inputs":[{"name":"quantity","type":"uint256","internalType":"uint256"}],"outputs":[],"stateMutability":"nonpayable"},{"type":"function","name":"mintAsFreeMinter","inputs":[{"name":"quantity","type":"uint256","internalType":"uint256"}],"outputs":[],"stateMutability":"nonpayable"},{"type":"function","name":"multiOwnerOf","inputs":[{"name":"_ids","type":"uint256[]","internalType":"uint256[]"},{"name":"_owner","type":"address","internalType":"address"}],"outputs":[{"name":"result","type":"bool","internalType":"bool"}],"stateMutability":"view"},{"type":"function","name":"name","inputs":[],"outputs":[{"name":"","type":"string","internalType":"string"}],"stateMutability":"view"},{"type":"function","name":"nextBatchId","inputs":[],"outputs":[{"name":"","type":"uint256","internalType":"uint256"}],"stateMutability":"view"},{"type":"function","name":"ownerOf","inputs":[{"name":"tokenId","type":"uint256","internalType":"uint256"}],"outputs":[{"name":"","type":"address","internalType":"address"}],"stateMutability":"view"},{"type":"function","name":"renounceRole","inputs":[{"name":"role","type":"bytes32","internalType":"bytes32"},{"name":"account","type":"address","internalType":"address"}],"outputs":[],"stateMutability":"nonpayable"},{"type":"function","name":"revokeRole","inputs":[{"name":"role","type":"bytes32","internalType":"bytes32"},{"name":"account","type":"address","internalType":"address"}],"outputs":[],"stateMutability":"nonpayable"},{"type":"function","name":"safeTransferFrom","inputs":[{"name":"from","type":"address","internalType":"address"},{"name":"to","type":"address","internalType":"address"},{"name":"tokenId","type":"uint256","internalType":"uint256"}],"outputs":[],"stateMutability":"nonpayable"},{"type":"function","name":"safeTransferFrom","inputs":[{"name":"from","type":"address","internalType":"address"},{"name":"to","type":"address","internalType":"address"},{"name":"tokenId","type":"uint256","internalType":"uint256"},{"name":"_data","type":"bytes","internalType":"bytes"}],"outputs":[],"stateMutability":"nonpayable"},{"type":"function","name":"setApprovalForAll","inputs":[{"name":"operator","type":"address","internalType":"address"},{"name":"approved","type":"bool","internalType":"bool"}],"outputs":[],"stateMutability":"nonpayable"},{"type":"function","name":"setBaseURI","inputs":[{"name":"newUri","type":"string","internalType":"string"}],"outputs":[],"stateMutability":"nonpayable"},{"type":"function","name":"setCurrentBatch","inputs":[{"name":"quantity","type":"uint256","internalType":"uint256"},{"name":"price","type":"uint256","internalType":"uint256"},{"name":"active","type":"bool","internalType":"bool"}],"outputs":[],"stateMutability":"nonpayable"},{"type":"function","name":"setCurrentBatchActive","inputs":[{"name":"active","type":"bool","internalType":"bool"}],"outputs":[],"stateMutability":"nonpayable"},{"type":"function","name":"setFeeCollector","inputs":[{"name":"collector","type":"address","internalType":"address"}],"outputs":[],"stateMutability":"nonpayable"},{"type":"function","name":"setFreeParticipant","inputs":[{"name":"participant","type":"address","internalType":"address"},{"name":"free","type":"bool","internalType":"bool"}],"outputs":[],"stateMutability":"nonpayable"},{"type":"function","name":"setFreeParticipantController","inputs":[{"name":"freeParticipantController","type":"address","internalType":"address"},{"name":"allow","type":"bool","internalType":"bool"}],"outputs":[],"stateMutability":"nonpayable"},{"type":"function","name":"setPaymentToken","inputs":[{"name":"token","type":"address","internalType":"address"}],"outputs":[],"stateMutability":"nonpayable"},{"type":"function","name":"setTxFee","inputs":[{"name":"amount","type":"uint256","internalType":"uint256"}],"outputs":[],"stateMutability":"nonpayable"},{"type":"function","name":"supportsInterface","inputs":[{"name":"interfaceId","type":"bytes4","internalType":"bytes4"}],"outputs":[{"name":"","type":"bool","internalType":"bool"}],"stateMutability":"view"},{"type":"function","name":"symbol","inputs":[],"outputs":[{"name":"","type":"string","internalType":"string"}],"stateMutability":"view"},{"type":"function","name":"tokenURI","inputs":[{"name":"tokenId","type":"uint256","internalType":"uint256"}],"outputs":[{"name":"","type":"string","internalType":"string"}],"stateMutability":"view"},{"type":"function","name":"totalSupply","inputs":[],"outputs":[{"name":"","type":"uint256","internalType":"uint256"}],"stateMutability":"view"},{"type":"function","name":"transferBulkFrom","inputs":[{"name":"from","type":"address","internalType":"address"},{"name":"to","type":"address","internalType":"address"},{"name":"tokenIds","type":"uint256[]","internalType":"uint256[]"}],"outputs":[],"stateMutability":"nonpayable"},{"type":"function","name":"transferFrom","inputs":[{"name":"from","type":"address","internalType":"address"},{"name":"to","type":"address","internalType":"address"},{"name":"tokenId","type":"uint256","internalType":"uint256"}],"outputs":[],"stateMutability":"nonpayable"},{"type":"event","name":"Approval","inputs":[{"name":"owner","type":"address","indexed":true,"internalType":"address"},{"name":"approved","type":"address","indexed":true,"internalType":"address"},{"name":"tokenId","type":"uint256","indexed":true,"internalType":"uint256"}],"anonymous":false},{"type":"event","name":"ApprovalForAll","inputs":[{"name":"owner","type":"address","indexed":true,"internalType":"address"},{"name":"operator","type":"address","indexed":true,"internalType":"address"},{"name":"approved","type":"bool","indexed":false,"internalType":"bool"}],"anonymous":false},{"type":"event","name":"Initialized","inputs":[{"name":"version","type":"uint8","indexed":false,"internalType":"uint8"}],"anonymous":false},{"type":"event","name":"NewBatchCreated","inputs":[{"name":"batchStartIndex","type":"uint256","indexed":false,"internalType":"uint256"}],"anonymous":false},{"type":"event","name":"RoleAdminChanged","inputs":[{"name":"role","type":"bytes32","indexed":true,"internalType":"bytes32"},{"name":"previousAdminRole","type":"bytes32","indexed":true,"internalType":"bytes32"},{"name":"newAdminRole","type":"bytes32","indexed":true,"internalType":"bytes32"}],"anonymous":false},{"type":"event","name":"RoleGranted","inputs":[{"name":"role","type":"bytes32","indexed":true,"internalType":"bytes32"},{"name":"account","type":"address","indexed":true,"internalType":"address"},{"name":"sender","type":"address","indexed":true,"internalType":"address"}],"anonymous":false},{"type":"event","name":"RoleRevoked","inputs":[{"name":"role","type":"bytes32","indexed":true,"internalType":"bytes32"},{"name":"account","type":"address","indexed":true,"internalType":"address"},{"name":"sender","type":"address","indexed":true,"internalType":"address"}],"anonymous":false},{"type":"event","name":"Transfer","inputs":[{"name":"from","type":"address","indexed":true,"internalType":"address"},{"name":"to","type":"address","indexed":true,"internalType":"address"},{"name":"tokenId","type":"uint256","indexed":true,"internalType":"uint256"}],"anonymous":false},{"type":"error","name":"ApprovalCallerNotOwnerNorApproved","inputs":[]},{"type":"error","name":"ApprovalQueryForNonexistentToken","inputs":[]},{"type":"error","name":"ApprovalToCurrentOwner","inputs":[]},{"type":"error","name":"ApproveToCaller","inputs":[]},{"type":"error","name":"BalanceQueryForZeroAddress","inputs":[]},{"type":"error","name":"CurrentBactchNotFinished","inputs":[]},{"type":"error","name":"CurrentBatchNotActive","inputs":[]},{"type":"error","name":"InvalidLength","inputs":[]},{"type":"error","name":"MaxBuyAmountLimitReached","inputs":[]},{"type":"error","name":"MintToZeroAddress","inputs":[]},{"type":"error","name":"MintZeroQuantity","inputs":[]},{"type":"error","name":"MustPayBeforeMinting","inputs":[]},{"type":"error","name":"NoMoreTokensLeft","inputs":[]},{"type":"error","name":"OwnerQueryForNonexistentToken","inputs":[]},{"type":"error","name":"QuantityMustBeAboveZero","inputs":[]},{"type":"error","name":"TransactionFailed","inputs":[{"name":"message","type":"string","internalType":"string"}]},{"type":"error","name":"TransferCallerNotOwnerNorApproved","inputs":[]},{"type":"error","name":"TransferFromIncorrectOwner","inputs":[]},{"type":"error","name":"TransferToNonERC721ReceiverImplementer","inputs":[]},{"type":"error","name":"TransferToZeroAddress","inputs":[]},{"type":"error","name":"URIQueryForNonexistentToken","inputs":[]},{"type":"error","name":"UnAuthorized","inputs":[]}],"bytecode":{"object":"0x6080604052348015600f57600080fd5b5061251b8061001f6000396000f3fe608060405234801561001057600080fd5b506004361061025e5760003560e01c80638b0e6a1611610146578063ad8bc99b116100c3578063c4d66de811610087578063c4d66de8146105ac578063c87b56dd146105bf578063d547741f146105d2578063e985e9c5146105e5578063f05d16f714610621578063f77a4ba01461063457600080fd5b8063ad8bc99b146104e6578063af981602146104f9578063b88d4fde14610545578063bfe6d41714610558578063c380213e1461059957600080fd5b8063a0712d681161010a578063a0712d6814610490578063a1ebf35d146104a3578063a217fddf146104b8578063a22cb465146104c0578063a42dce80146104d357600080fd5b80638b0e6a161461043c5780638ca126231461044f57806391d148541461046257806395d89b41146104755780639c8c247c1461047d57600080fd5b80632f2ff15d116101df5780635a2f5963116101a35780635a2f5963146103d45780636352211e146103e75780636a326ab1146103fa57806370a082311461040d5780638462a7f814610420578063889da8031461042957600080fd5b80632f2ff15d1461037557806336568abe1461038857806342842e0e1461039b57806354ef2fad146103ae57806355f804b3146103c157600080fd5b806318160ddd1161022657806318160ddd14610303578063224eae3614610319578063233cd33b1461032c57806323b872dd1461033f578063248a9ca31461035257600080fd5b806301ffc9a71461026357806306fdde031461028b578063081812fc146102a057806308a7595b146102cb578063095ea7b3146102ee575b600080fd5b610276610271366004611d02565b610657565b60405190151581526020015b60405180910390f35b610293610668565b6040516102829190611d6f565b6102b36102ae366004611d82565b6106fa565b6040516001600160a01b039091168152602001610282565b6102766102d9366004611db7565b60aa6020526000908152604090205460ff1681565b6103016102fc366004611dd2565b61073e565b005b606654606554035b604051908152602001610282565b610276610327366004611ec4565b6107cb565b61030161033a366004611d82565b61084c565b61030161034d366004611f11565b610a17565b61030b610360366004611d82565b6000908152606d602052604090206001015490565b610301610383366004611f4e565b610a22565b610301610396366004611f4e565b610a47565b6103016103a9366004611f11565b610ac5565b60a0546102b3906001600160a01b031681565b6103016103cf366004611fec565b610ae0565b609f546102b3906001600160a01b031681565b6102b36103f5366004611d82565b610af4565b610301610408366004611db7565b610b06565b61030b61041b366004611db7565b610b30565b61030b60a85481565b610301610437366004612020565b610b7e565b61030161044a366004612087565b610c0c565b61030161045d3660046120f2565b610c17565b610276610470366004611f4e565b610c32565b610293610c5d565b61030161048b36600461210f565b610c6c565b61030161049e366004611d82565b610c9f565b61030b6000805160206124c683398151915281565b61030b600081565b6103016104ce36600461210f565b610d86565b6103016104e1366004611db7565b610e1b565b6103016104f4366004612146565b610e45565b60a15460a25460a35460a45460a55461051694939260ff16919085565b604051610282959493929190948552602085019390935290151560408401526060830152608082015260a00190565b61030161055336600461217f565b610f2d565b610516610566366004611d82565b60ac60205260009081526040902080546001820154600283015460038401546004909401549293919260ff909116919085565b6103016105a736600461210f565b610f7e565b6103016105ba366004611db7565b610fb1565b6102936105cd366004611d82565b61113e565b6103016105e0366004611f4e565b611199565b6102766105f33660046121fa565b6001600160a01b039182166000908152606c6020908152604080832093909416825291909152205460ff1690565b61030161062f366004611d82565b6111be565b610276610642366004611db7565b60ab6020526000908152604090205460ff1681565b6000610662826111cb565b92915050565b60606067805461067790612224565b80601f01602080910402602001604051908101604052809291908181526020018280546106a390612224565b80156106f05780601f106106c5576101008083540402835291602001916106f0565b820191906000526020600020905b8154815290600101906020018083116106d357829003601f168201915b5050505050905090565b60006107058261121b565b610722576040516333d1c03960e21b815260040160405180910390fd5b506000908152606b60205260409020546001600160a01b031690565b600061074982610af4565b9050806001600160a01b0316836001600160a01b03160361077d5760405163250fdee360e21b815260040160405180910390fd5b336001600160a01b0382161480159061079d575061079b81336105f3565b155b156107bb576040516367d9dca160e11b815260040160405180910390fd5b6107c6838383611247565b505050565b600082516000036107ef5760405163251f56a160e21b815260040160405180910390fd5b50600160005b8351811015610845576108208482815181106108135761081361225e565b6020026020010151610af4565b6001600160a01b0316836001600160a01b03161461083d57600091505b6001016107f5565b5092915050565b60a1546108945760405163ed653df360e01b815260206004820152601060248201526f139bd35bdc99551bdad95b9cd319599d60821b60448201526064015b60405180910390fd5b60a35460ff166108df5760405163ed653df360e01b815260206004820152601560248201527443757272656e7442617463684e6f7441637469766560581b604482015260640161088b565b600081116109305760405163ed653df360e01b815260206004820152601760248201527f5175616e746974794d757374426541626f76655a65726f000000000000000000604482015260640161088b565b60a754811015801561095757506109556000805160206124c683398151915233610c32565b155b156109a55760405163ed653df360e01b815260206004820152601860248201527f4d6178427579416d6f756e744c696d6974526561636865640000000000000000604482015260640161088b565b33600090815260ab602052604090205460ff166109f95760405163ed653df360e01b815260206004820152601160248201527026bab9ba2132a0a33932b2a6b4b73a32b960791b604482015260640161088b565b60a154610a0790829061228a565b60a155610a1433826112a3565b50565b6107c68383836112bd565b6000828152606d6020526040902060010154610a3d816114d1565b6107c683836114db565b6001600160a01b0381163314610ab75760405162461bcd60e51b815260206004820152602f60248201527f416363657373436f6e74726f6c3a2063616e206f6e6c792072656e6f756e636560448201526e103937b632b9903337b91039b2b63360891b606482015260840161088b565b610ac18282611561565b5050565b6107c683838360405180602001604052806000815250610f2d565b610ae86115c8565b60a9610ac182826122e4565b6000610aff826115ff565b5192915050565b610b0e6115c8565b609f80546001600160a01b0319166001600160a01b0392909216919091179055565b60006001600160a01b038216610b59576040516323d3ad8160e21b815260040160405180910390fd5b506001600160a01b03166000908152606a60205260409020546001600160401b031690565b600054610100900460ff16610be95760405162461bcd60e51b815260206004820152602b60248201527f496e697469616c697a61626c653a20636f6e7472616374206973206e6f74206960448201526a6e697469616c697a696e6760a81b606482015260840161088b565b6067610bf583826122e4565b506068610c0282826122e4565b5060006065555050565b6107c6838383611719565b610c1f6115c8565b60a3805460ff1916911515919091179055565b6000918252606d602090815260408084206001600160a01b0393909316845291905290205460ff1690565b60606068805461067790612224565b610c746115c8565b6001600160a01b0391909116600090815260ab60205260409020805460ff1916911515919091179055565b60a154610cbf576040516337b57a8160e21b815260040160405180910390fd5b60a35460ff16610ce25760405163045309c360e01b815260040160405180910390fd5b60008111610d0357604051632e50e43d60e21b815260040160405180910390fd5b60a7548110158015610d2a5750610d286000805160206124c683398151915233610c32565b155b15610d4857604051637e09930760e01b815260040160405180910390fd5b33600090815260ab602052604090205460ff166109f957610d693382611751565b6109f95760405163edf31fe160e01b815260040160405180910390fd5b336001600160a01b03831603610daf5760405163b06307db60e01b815260040160405180910390fd5b336000818152606c602090815260408083206001600160a01b03871680855290835292819020805460ff191686151590811790915590519081529192917f17307eab39ab6107e8899845ad3d59bd9653f200f220920489ca2b5937696c31910160405180910390a35050565b610e236115c8565b60a080546001600160a01b0319166001600160a01b0392909216919091179055565b610e4d6115c8565b60a15415610e6e57604051631db4ab1760e21b815260040160405180910390fd5b60a183905560a3805460ff1990811683151517825560a284815560a8805460a481815560655460a5908155600092835260ac602052604083208a81559454600186810191909155965460028601805490971660ff9091161515179095555460038401559254600492909201919091558054909190610eed9084906123a2565b90915550506065546040519081527f23dc39e904e08378c98e99cea57ef2312460ae8a28311d26e28f4bd49d75c7569060200160405180910390a1505050565b610f388484846112bd565b6001600160a01b0383163b15158015610f5a5750610f5884848484611803565b155b15610f78576040516368d2bf6b60e11b815260040160405180910390fd5b50505050565b610f866115c8565b6001600160a01b0391909116600090815260aa60205260409020805460ff1916911515919091179055565b600054610100900460ff1615808015610fd15750600054600160ff909116105b80610feb5750303b158015610feb575060005460ff166001145b61104e5760405162461bcd60e51b815260206004820152602e60248201527f496e697469616c697a61626c653a20636f6e747261637420697320616c72656160448201526d191e481a5b9a5d1a585b1a5e995960921b606482015260840161088b565b6000805460ff191660011790558015611071576000805461ff0019166101001790555b61107c6000336118ef565b6110c26040518060400160405280600881526020016711559508141b1bdd60c21b815250604051806040016040528060048152602001631c11559560e21b815250610b7e565b609f80546001600160a01b0384166001600160a01b03199182161790915560a0805490911633179055600060a655600a60a7558015610ac1576000805461ff0019169055604051600181527f7f26b83ff96e1f2b6a682f133852f6798a09c465da95921460cefb38474024989060200160405180910390a15050565b60606111498261121b565b61116657604051630a14c4b560e41b815260040160405180910390fd5b60006111706118f9565b905080516000036111905760405180602001604052806000815250611192565b805b9392505050565b6000828152606d60205260409020600101546111b4816114d1565b6107c68383611561565b6111c66115c8565b60a655565b60006001600160e01b031982166380ac58cd60e01b14806111fc57506001600160e01b03198216635b5e139f60e01b145b8061066257506301ffc9a760e01b6001600160e01b0319831614610662565b600060655482108015610662575050600090815260696020526040902054600160e01b900460ff161590565b6000828152606b602052604080822080546001600160a01b0319166001600160a01b0387811691821790925591518593918516917f8c5be1e5ebec7d5bd14f71427d1e84f3dd0314c0f7b2291e5b200ac8c7c3b92591a4505050565b610ac1828260405180602001604052806000815250611908565b60006112c8826115ff565b80519091506000906001600160a01b0316336001600160a01b031614806112f6575081516112f690336105f3565b80611311575033611306846106fa565b6001600160a01b0316145b90508061133157604051632ce44b5f60e11b815260040160405180910390fd5b846001600160a01b031682600001516001600160a01b0316146113665760405162a1148160e81b815260040160405180910390fd5b6001600160a01b03841661138d57604051633a954ecd60e21b815260040160405180910390fd5b61139d6000848460000151611247565b6001600160a01b038581166000908152606a60209081526040808320805467ffffffffffffffff198082166001600160401b0392831660001901831617909255898616808652838620805493841693831660019081018416949094179055898652606990945282852080546001600160e01b031916909417600160a01b4290921691909102179092559086018083529120549091166114875760655481101561148757825160008281526069602090815260409091208054918601516001600160401b0316600160a01b026001600160e01b03199092166001600160a01b03909316929092171790555b5082846001600160a01b0316866001600160a01b03167fddf252ad1be2c89b69c2b068fc378daa952ba7f163c4a11628f55a4df523b3ef60405160405180910390a45b5050505050565b610a148133611915565b6114e58282610c32565b610ac1576000828152606d602090815260408083206001600160a01b03851684529091529020805460ff1916600117905561151d3390565b6001600160a01b0316816001600160a01b0316837f2f8788117e7eff1d82e926ec794901d17c78024a50270940304540a733656f0d60405160405180910390a45050565b61156b8282610c32565b15610ac1576000828152606d602090815260408083206001600160a01b0385168085529252808320805460ff1916905551339285917ff6391f5c32d9c69d2a47ea670b442974b53935d1edc7fd64eb21e047a839171b9190a45050565b6115e06000805160206124c683398151915233610c32565b6115fd5760405163be24598360e01b815260040160405180910390fd5b565b60408051606081018252600080825260208201819052918101919091528160655481101561170057600081815260696020908152604091829020825160608101845290546001600160a01b0381168252600160a01b81046001600160401b031692820192909252600160e01b90910460ff161515918101829052906116fe5780516001600160a01b031615611695579392505050565b5060001901600081815260696020908152604091829020825160608101845290546001600160a01b038116808352600160a01b82046001600160401b031693830193909352600160e01b900460ff16151592810192909252156116f9579392505050565b611695565b505b604051636f96cda160e11b815260040160405180910390fd5b60005b8151811015610f7857611749848484848151811061173c5761173c61225e565b60200260200101516112bd565b60010161171c565b609f5460a05460a2546000926001600160a01b039081169283926323b872dd92889216906117809088906123b5565b6040516001600160e01b031960e086901b1681526001600160a01b03938416600482015292909116602483015260448201526064016020604051808303816000875af11580156117d4573d6000803e3d6000fd5b505050506040513d601f19601f820116820180604052508101906117f891906123cc565b506001949350505050565b604051630a85bd0160e11b81526000906001600160a01b0385169063150b7a02906118389033908990889088906004016123e9565b6020604051808303816000875af1925050508015611873575060408051601f3d908101601f191682019092526118709181019061241c565b60015b6118d1573d8080156118a1576040519150601f19603f3d011682016040523d82523d6000602084013e6118a6565b606091505b5080516000036118c9576040516368d2bf6b60e11b815260040160405180910390fd5b805181602001fd5b6001600160e01b031916630a85bd0160e11b1490505b949350505050565b610ac182826114db565b606060a9805461067790612224565b6107c6838383600161196e565b61191f8282610c32565b610ac15761192c81611b3f565b611937836020611b51565b604051602001611948929190612439565b60408051601f198184030181529082905262461bcd60e51b825261088b91600401611d6f565b6065546001600160a01b03851661199757604051622e076360e81b815260040160405180910390fd5b836000036119b85760405163b562e8dd60e01b815260040160405180910390fd5b6001600160a01b0385166000818152606a6020908152604080832080546fffffffffffffffffffffffffffffffff1981166001600160401b038083168c0181169182176801000000000000000067ffffffffffffffff1990941690921783900481168c01811690920217909155858452606990925290912080546001600160e01b031916909217600160a01b429092169190910217905580808501838015611a6957506001600160a01b0387163b15155b15611af1575b60405182906001600160a01b038916906000907fddf252ad1be2c89b69c2b068fc378daa952ba7f163c4a11628f55a4df523b3ef908290a4611aba6000888480600101955088611803565b611ad7576040516368d2bf6b60e11b815260040160405180910390fd5b808203611a6f578260655414611aec57600080fd5b611b36565b5b6040516001830192906001600160a01b038916906000907fddf252ad1be2c89b69c2b068fc378daa952ba7f163c4a11628f55a4df523b3ef908290a4808203611af2575b506065556114ca565b60606106626001600160a01b03831660145b60606000611b608360026123b5565b611b6b9060026123a2565b6001600160401b03811115611b8257611b82611dfc565b6040519080825280601f01601f191660200182016040528015611bac576020820181803683370190505b509050600360fc1b81600081518110611bc757611bc761225e565b60200101906001600160f81b031916908160001a905350600f60fb1b81600181518110611bf657611bf661225e565b60200101906001600160f81b031916908160001a9053506000611c1a8460026123b5565b611c259060016123a2565b90505b6001811115611c9d576f181899199a1a9b1b9c1cb0b131b232b360811b85600f1660108110611c5957611c5961225e565b1a60f81b828281518110611c6f57611c6f61225e565b60200101906001600160f81b031916908160001a90535060049490941c93611c96816124ae565b9050611c28565b5083156111925760405162461bcd60e51b815260206004820181905260248201527f537472696e67733a20686578206c656e67746820696e73756666696369656e74604482015260640161088b565b6001600160e01b031981168114610a1457600080fd5b600060208284031215611d1457600080fd5b813561119281611cec565b60005b83811015611d3a578181015183820152602001611d22565b50506000910152565b60008151808452611d5b816020860160208601611d1f565b601f01601f19169290920160200192915050565b6020815260006111926020830184611d43565b600060208284031215611d9457600080fd5b5035919050565b80356001600160a01b0381168114611db257600080fd5b919050565b600060208284031215611dc957600080fd5b61119282611d9b565b60008060408385031215611de557600080fd5b611dee83611d9b565b946020939093013593505050565b634e487b7160e01b600052604160045260246000fd5b604051601f8201601f191681016001600160401b0381118282101715611e3a57611e3a611dfc565b604052919050565b600082601f830112611e5357600080fd5b81356001600160401b03811115611e6c57611e6c611dfc565b8060051b611e7c60208201611e12565b91825260208185018101929081019086841115611e9857600080fd5b6020860192505b83831015611eba578235825260209283019290910190611e9f565b9695505050505050565b60008060408385031215611ed757600080fd5b82356001600160401b03811115611eed57600080fd5b611ef985828601611e42565b925050611f0860208401611d9b565b90509250929050565b600080600060608486031215611f2657600080fd5b611f2f84611d9b565b9250611f3d60208501611d9b565b929592945050506040919091013590565b60008060408385031215611f6157600080fd5b82359150611f0860208401611d9b565b6000806001600160401b03841115611f8b57611f8b611dfc565b50601f8301601f1916602001611fa081611e12565b915050828152838383011115611fb557600080fd5b828260208301376000602084830101529392505050565b600082601f830112611fdd57600080fd5b61119283833560208501611f71565b600060208284031215611ffe57600080fd5b81356001600160401b0381111561201457600080fd5b6118e784828501611fcc565b6000806040838503121561203357600080fd5b82356001600160401b0381111561204957600080fd5b61205585828601611fcc565b92505060208301356001600160401b0381111561207157600080fd5b61207d85828601611fcc565b9150509250929050565b60008060006060848603121561209c57600080fd5b6120a584611d9b565b92506120b360208501611d9b565b915060408401356001600160401b038111156120ce57600080fd5b6120da86828701611e42565b9150509250925092565b8015158114610a1457600080fd5b60006020828403121561210457600080fd5b8135611192816120e4565b6000806040838503121561212257600080fd5b61212b83611d9b565b9150602083013561213b816120e4565b809150509250929050565b60008060006060848603121561215b57600080fd5b83359250602084013591506040840135612174816120e4565b809150509250925092565b6000806000806080858703121561219557600080fd5b61219e85611d9b565b93506121ac60208601611d9b565b92506040850135915060608501356001600160401b038111156121ce57600080fd5b8501601f810187136121df57600080fd5b6121ee87823560208401611f71565b91505092959194509250565b6000806040838503121561220d57600080fd5b61221683611d9b565b9150611f0860208401611d9b565b600181811c9082168061223857607f821691505b60208210810361225857634e487b7160e01b600052602260045260246000fd5b50919050565b634e487b7160e01b600052603260045260246000fd5b634e487b7160e01b600052601160045260246000fd5b8181038181111561066257610662612274565b601f8211156107c657806000526020600020601f840160051c810160208510156122c45750805b601f840160051c820191505b818110156114ca57600081556001016122d0565b81516001600160401b038111156122fd576122fd611dfc565b6123118161230b8454612224565b8461229d565b6020601f821160018114612345576000831561232d5750848201515b600019600385901b1c1916600184901b1784556114ca565b600084815260208120601f198516915b828110156123755787850151825560209485019460019092019101612355565b50848210156123935786840151600019600387901b60f8161c191681555b50505050600190811b01905550565b8082018082111561066257610662612274565b808202811582820484141761066257610662612274565b6000602082840312156123de57600080fd5b8151611192816120e4565b6001600160a01b0385811682528416602082015260408101839052608060608201819052600090611eba90830184611d43565b60006020828403121561242e57600080fd5b815161119281611cec565b7f416363657373436f6e74726f6c3a206163636f756e7420000000000000000000815260008351612471816017850160208801611d1f565b7001034b99036b4b9b9b4b733903937b6329607d1b60179184019182015283516124a2816028840160208801611d1f565b01602801949350505050565b6000816124bd576124bd612274565b50600019019056fee2f4eaae4a9751e85a3e4a7b9587827a877f29914755229b07a7b2da98285f70a2646970667358221220b0698a703a61570767fc06a52e6c601c1b0602b73852220e5efef035576ec04d64736f6c634300081a0033","linkReferences":{}},"methodIdentifiers":{"DEFAULT_ADMIN_ROLE()":"a217fddf","ERC721A_Initialize(string,string)":"889da803","SIGNER_ROLE()":"a1ebf35d","_currentBatch()":"af981602","_feeCollector()":"54ef2fad","_paymentToken()":"5a2f5963","allBatches(uint256)":"bfe6d417","approve(address,uint256)":"095ea7b3","balanceOf(address)":"70a08231","freeParticipant(address)":"f77a4ba0","freeParticipantControllers(address)":"08a7595b","getApproved(uint256)":"081812fc","getRoleAdmin(bytes32)":"248a9ca3","grantRole(bytes32,address)":"2f2ff15d","hasRole(bytes32,address)":"91d14854","initialize(address)":"c4d66de8","isApprovedForAll(address,address)":"e985e9c5","mint(uint256)":"a0712d68","mintAsFreeMinter(uint256)":"233cd33b","multiOwnerOf(uint256[],address)":"224eae36","name()":"06fdde03","nextBatchId()":"8462a7f8","ownerOf(uint256)":"6352211e","renounceRole(bytes32,address)":"36568abe","revokeRole(bytes32,address)":"d547741f","safeTransferFrom(address,address,uint256)":"42842e0e","safeTransferFrom(address,address,uint256,bytes)":"b88d4fde","setApprovalForAll(address,bool)":"a22cb465","setBaseURI(string)":"55f804b3","setCurrentBatch(uint256,uint256,bool)":"ad8bc99b","setCurrentBatchActive(bool)":"8ca12623","setFeeCollector(address)":"a42dce80","setFreeParticipant(address,bool)":"9c8c247c","setFreeParticipantController(address,bool)":"c380213e","setPaymentToken(address)":"6a326ab1","setTxFee(uint256)":"f05d16f7","supportsInterface(bytes4)":"01ffc9a7","symbol()":"95d89b41","tokenURI(uint256)":"c87b56dd","totalSupply()":"18160ddd","transferBulkFrom(address,address,uint256[])":"8b0e6a16","transferFrom(address,address,uint256)":"23b872dd"},"id":4}