{"abi":[{"type":"function","name":"DEFAULT_ADMIN_ROLE","inputs":[],"outputs":[{"name":"","type":"bytes32","internalType":"bytes32"}],"stateMutability":"view"},{"type":"function","name":"MINTER_ROLE","inputs":[],"outputs":[{"name":"","type":"bytes32","internalType":"bytes32"}],"stateMutability":"view"},{"type":"function","name":"PAUSER_ROLE","inputs":[],"outputs":[{"name":"","type":"bytes32","internalType":"bytes32"}],"stateMutability":"view"},{"type":"function","name":"approve","inputs":[{"name":"to","type":"address","internalType":"address"},{"name":"tokenId","type":"uint256","internalType":"uint256"}],"outputs":[],"stateMutability":"nonpayable"},{"type":"function","name":"balanceOf","inputs":[{"name":"owner","type":"address","internalType":"address"}],"outputs":[{"name":"","type":"uint256","internalType":"uint256"}],"stateMutability":"view"},{"type":"function","name":"burn","inputs":[{"name":"tokenId","type":"uint256","internalType":"uint256"}],"outputs":[],"stateMutability":"nonpayable"},{"type":"function","name":"getApproved","inputs":[{"name":"tokenId","type":"uint256","internalType":"uint256"}],"outputs":[{"name":"","type":"address","internalType":"address"}],"stateMutability":"view"},{"type":"function","name":"getRoleAdmin","inputs":[{"name":"role","type":"bytes32","internalType":"bytes32"}],"outputs":[{"name":"","type":"bytes32","internalType":"bytes32"}],"stateMutability":"view"},{"type":"function","name":"getRoleMember","inputs":[{"name":"role","type":"bytes32","internalType":"bytes32"},{"name":"index","type":"uint256","internalType":"uint256"}],"outputs":[{"name":"","type":"address","internalType":"address"}],"stateMutability":"view"},{"type":"function","name":"getRoleMemberCount","inputs":[{"name":"role","type":"bytes32","internalType":"bytes32"}],"outputs":[{"name":"","type":"uint256","internalType":"uint256"}],"stateMutability":"view"},{"type":"function","name":"grantRole","inputs":[{"name":"role","type":"bytes32","internalType":"bytes32"},{"name":"account","type":"address","internalType":"address"}],"outputs":[],"stateMutability":"nonpayable"},{"type":"function","name":"hasRole","inputs":[{"name":"role","type":"bytes32","internalType":"bytes32"},{"name":"account","type":"address","internalType":"address"}],"outputs":[{"name":"","type":"bool","internalType":"bool"}],"stateMutability":"view"},{"type":"function","name":"initialize","inputs":[{"name":"name","type":"string","internalType":"string"},{"name":"symbol","type":"string","internalType":"string"},{"name":"baseTokenURI","type":"string","internalType":"string"}],"outputs":[],"stateMutability":"nonpayable"},{"type":"function","name":"isApprovedForAll","inputs":[{"name":"owner","type":"address","internalType":"address"},{"name":"operator","type":"address","internalType":"address"}],"outputs":[{"name":"","type":"bool","internalType":"bool"}],"stateMutability":"view"},{"type":"function","name":"mint","inputs":[{"name":"to","type":"address","internalType":"address"}],"outputs":[],"stateMutability":"nonpayable"},{"type":"function","name":"name","inputs":[],"outputs":[{"name":"","type":"string","internalType":"string"}],"stateMutability":"view"},{"type":"function","name":"ownerOf","inputs":[{"name":"tokenId","type":"uint256","internalType":"uint256"}],"outputs":[{"name":"","type":"address","internalType":"address"}],"stateMutability":"view"},{"type":"function","name":"pause","inputs":[],"outputs":[],"stateMutability":"nonpayable"},{"type":"function","name":"paused","inputs":[],"outputs":[{"name":"","type":"bool","internalType":"bool"}],"stateMutability":"view"},{"type":"function","name":"renounceRole","inputs":[{"name":"role","type":"bytes32","internalType":"bytes32"},{"name":"account","type":"address","internalType":"address"}],"outputs":[],"stateMutability":"nonpayable"},{"type":"function","name":"revokeRole","inputs":[{"name":"role","type":"bytes32","internalType":"bytes32"},{"name":"account","type":"address","internalType":"address"}],"outputs":[],"stateMutability":"nonpayable"},{"type":"function","name":"safeTransferFrom","inputs":[{"name":"from","type":"address","internalType":"address"},{"name":"to","type":"address","internalType":"address"},{"name":"tokenId","type":"uint256","internalType":"uint256"}],"outputs":[],"stateMutability":"nonpayable"},{"type":"function","name":"safeTransferFrom","inputs":[{"name":"from","type":"address","internalType":"address"},{"name":"to","type":"address","internalType":"address"},{"name":"tokenId","type":"uint256","internalType":"uint256"},{"name":"data","type":"bytes","internalType":"bytes"}],"outputs":[],"stateMutability":"nonpayable"},{"type":"function","name":"setApprovalForAll","inputs":[{"name":"operator","type":"address","internalType":"address"},{"name":"approved","type":"bool","internalType":"bool"}],"outputs":[],"stateMutability":"nonpayable"},{"type":"function","name":"supportsInterface","inputs":[{"name":"interfaceId","type":"bytes4","internalType":"bytes4"}],"outputs":[{"name":"","type":"bool","internalType":"bool"}],"stateMutability":"view"},{"type":"function","name":"symbol","inputs":[],"outputs":[{"name":"","type":"string","internalType":"string"}],"stateMutability":"view"},{"type":"function","name":"tokenByIndex","inputs":[{"name":"index","type":"uint256","internalType":"uint256"}],"outputs":[{"name":"","type":"uint256","internalType":"uint256"}],"stateMutability":"view"},{"type":"function","name":"tokenOfOwnerByIndex","inputs":[{"name":"owner","type":"address","internalType":"address"},{"name":"index","type":"uint256","internalType":"uint256"}],"outputs":[{"name":"","type":"uint256","internalType":"uint256"}],"stateMutability":"view"},{"type":"function","name":"tokenURI","inputs":[{"name":"tokenId","type":"uint256","internalType":"uint256"}],"outputs":[{"name":"","type":"string","internalType":"string"}],"stateMutability":"view"},{"type":"function","name":"totalSupply","inputs":[],"outputs":[{"name":"","type":"uint256","internalType":"uint256"}],"stateMutability":"view"},{"type":"function","name":"transferFrom","inputs":[{"name":"from","type":"address","internalType":"address"},{"name":"to","type":"address","internalType":"address"},{"name":"tokenId","type":"uint256","internalType":"uint256"}],"outputs":[],"stateMutability":"nonpayable"},{"type":"function","name":"unpause","inputs":[],"outputs":[],"stateMutability":"nonpayable"},{"type":"event","name":"Approval","inputs":[{"name":"owner","type":"address","indexed":true,"internalType":"address"},{"name":"approved","type":"address","indexed":true,"internalType":"address"},{"name":"tokenId","type":"uint256","indexed":true,"internalType":"uint256"}],"anonymous":false},{"type":"event","name":"ApprovalForAll","inputs":[{"name":"owner","type":"address","indexed":true,"internalType":"address"},{"name":"operator","type":"address","indexed":true,"internalType":"address"},{"name":"approved","type":"bool","indexed":false,"internalType":"bool"}],"anonymous":false},{"type":"event","name":"Initialized","inputs":[{"name":"version","type":"uint8","indexed":false,"internalType":"uint8"}],"anonymous":false},{"type":"event","name":"Paused","inputs":[{"name":"account","type":"address","indexed":false,"internalType":"address"}],"anonymous":false},{"type":"event","name":"RoleAdminChanged","inputs":[{"name":"role","type":"bytes32","indexed":true,"internalType":"bytes32"},{"name":"previousAdminRole","type":"bytes32","indexed":true,"internalType":"bytes32"},{"name":"newAdminRole","type":"bytes32","indexed":true,"internalType":"bytes32"}],"anonymous":false},{"type":"event","name":"RoleGranted","inputs":[{"name":"role","type":"bytes32","indexed":true,"internalType":"bytes32"},{"name":"account","type":"address","indexed":true,"internalType":"address"},{"name":"sender","type":"address","indexed":true,"internalType":"address"}],"anonymous":false},{"type":"event","name":"RoleRevoked","inputs":[{"name":"role","type":"bytes32","indexed":true,"internalType":"bytes32"},{"name":"account","type":"address","indexed":true,"internalType":"address"},{"name":"sender","type":"address","indexed":true,"internalType":"address"}],"anonymous":false},{"type":"event","name":"Transfer","inputs":[{"name":"from","type":"address","indexed":true,"internalType":"address"},{"name":"to","type":"address","indexed":true,"internalType":"address"},{"name":"tokenId","type":"uint256","indexed":true,"internalType":"uint256"}],"anonymous":false},{"type":"event","name":"Unpaused","inputs":[{"name":"account","type":"address","indexed":false,"internalType":"address"}],"anonymous":false}],"bytecode":{"object":"0x6080604052348015600f57600080fd5b506129548061001f6000396000f3fe608060405234801561001057600080fd5b50600436106101f05760003560e01c80636a6278421161010f578063a6487c53116100a2578063d539139311610071578063d539139314610416578063d547741f1461043d578063e63ab1e914610450578063e985e9c51461046557600080fd5b8063a6487c53146103ca578063b88d4fde146103dd578063c87b56dd146103f0578063ca15c8731461040357600080fd5b806391d14854116100de57806391d148541461039457806395d89b41146103a7578063a217fddf146103af578063a22cb465146103b757600080fd5b80636a6278421461035357806370a08231146103665780638456cb59146103795780639010d07c1461038157600080fd5b80632f745c591161018757806342966c681161015657806342966c681461030e5780634f6ccce7146103215780635c975abb146103345780636352211e1461034057600080fd5b80632f745c59146102cd57806336568abe146102e05780633f4ba83a146102f357806342842e0e146102fb57600080fd5b806318160ddd116101c357806318160ddd1461027257806323b872dd14610284578063248a9ca3146102975780632f2ff15d146102ba57600080fd5b806301ffc9a7146101f557806306fdde031461021d578063081812fc14610232578063095ea7b31461025d575b600080fd5b610208610203366004612149565b6104a1565b60405190151581526020015b60405180910390f35b6102256104b2565b60405161021491906121b6565b6102456102403660046121c9565b610544565b6040516001600160a01b039091168152602001610214565b61027061026b3660046121fe565b61056b565b005b60fd545b604051908152602001610214565b610270610292366004612228565b610685565b6102766102a53660046121c9565b60009081526065602052604090206001015490565b6102706102c8366004612265565b6106b7565b6102766102db3660046121fe565b6106dc565b6102706102ee366004612265565b610772565b6102706107f0565b610270610309366004612228565b610886565b61027061031c3660046121c9565b6108a1565b61027661032f3660046121c9565b6108d2565b61015f5460ff16610208565b61024561034e3660046121c9565b610965565b610270610361366004612291565b6109c5565b610276610374366004612291565b610a83565b610270610b09565b61024561038f3660046122ac565b610b9b565b6102086103a2366004612265565b610bba565b610225610be5565b610276600081565b6102706103c53660046122ce565b610bf4565b6102706103d83660046123ba565b610bff565b6102706103eb36600461244e565b610d16565b6102256103fe3660046121c9565b610d48565b6102766104113660046121c9565b610dae565b6102767f9f2df0fed2c77648de5860a4cc508cd0818c85b8b8a1ab4ceeef8d981c8956a681565b61027061044b366004612265565b610dc5565b6102766000805160206128ff83398151915281565b6102086104733660046124ca565b6001600160a01b03918216600090815260ce6020908152604080832093909416825291909152205460ff1690565b60006104ac82610dea565b92915050565b606060c980546104c1906124f4565b80601f01602080910402602001604051908101604052809291908181526020018280546104ed906124f4565b801561053a5780601f1061050f5761010080835404028352916020019161053a565b820191906000526020600020905b81548152906001019060200180831161051d57829003601f168201915b5050505050905090565b600061054f82610e0f565b50600090815260cd60205260409020546001600160a01b031690565b600061057682610965565b9050806001600160a01b0316836001600160a01b0316036105e85760405162461bcd60e51b815260206004820152602160248201527f4552433732313a20617070726f76616c20746f2063757272656e74206f776e656044820152603960f91b60648201526084015b60405180910390fd5b336001600160a01b038216148061060457506106048133610473565b6106765760405162461bcd60e51b815260206004820152603d60248201527f4552433732313a20617070726f76652063616c6c6572206973206e6f7420746f60448201527f6b656e206f776e6572206f7220617070726f76656420666f7220616c6c00000060648201526084016105df565b6106808383610e6e565b505050565b610690335b82610edc565b6106ac5760405162461bcd60e51b81526004016105df9061252e565b610680838383610f5b565b6000828152606560205260409020600101546106d2816110ca565b61068083836110d4565b60006106e783610a83565b82106107495760405162461bcd60e51b815260206004820152602b60248201527f455243373231456e756d657261626c653a206f776e657220696e646578206f7560448201526a74206f6620626f756e647360a81b60648201526084016105df565b506001600160a01b0391909116600090815260fb60209081526040808320938352929052205490565b6001600160a01b03811633146107e25760405162461bcd60e51b815260206004820152602f60248201527f416363657373436f6e74726f6c3a2063616e206f6e6c792072656e6f756e636560448201526e103937b632b9903337b91039b2b63360891b60648201526084016105df565b6107ec82826110f6565b5050565b6108086000805160206128ff83398151915233610bba565b61087c576040805162461bcd60e51b81526020600482015260248101919091527f4552433732315072657365744d696e7465725061757365724175746f49643a2060448201527f6d75737420686176652070617573657220726f6c6520746f20756e706175736560648201526084016105df565b610884611118565b565b61068083838360405180602001604052806000815250610d16565b6108aa3361068a565b6108c65760405162461bcd60e51b81526004016105df9061252e565b6108cf8161116b565b50565b60006108dd60fd5490565b82106109405760405162461bcd60e51b815260206004820152602c60248201527f455243373231456e756d657261626c653a20676c6f62616c20696e646578206f60448201526b7574206f6620626f756e647360a01b60648201526084016105df565b60fd82815481106109535761095361257b565b90600052602060002001549050919050565b600081815260cb60205260408120546001600160a01b0316806104ac5760405162461bcd60e51b8152602060048201526018602482015277115490cdcc8c4e881a5b9d985b1a59081d1bdad95b88125160421b60448201526064016105df565b6109ef7f9f2df0fed2c77648de5860a4cc508cd0818c85b8b8a1ab4ceeef8d981c8956a633610bba565b610a615760405162461bcd60e51b815260206004820152603d60248201527f4552433732315072657365744d696e7465725061757365724175746f49643a2060448201527f6d7573742068617665206d696e74657220726f6c6520746f206d696e7400000060648201526084016105df565b610a7481610a6f6101c35490565b61120c565b6108cf6101c380546001019055565b60006001600160a01b038216610aed5760405162461bcd60e51b815260206004820152602960248201527f4552433732313a2061646472657373207a65726f206973206e6f7420612076616044820152683634b21037bbb732b960b91b60648201526084016105df565b506001600160a01b0316600090815260cc602052604090205490565b610b216000805160206128ff83398151915233610bba565b610b935760405162461bcd60e51b815260206004820152603e60248201527f4552433732315072657365744d696e7465725061757365724175746f49643a2060448201527f6d75737420686176652070617573657220726f6c6520746f207061757365000060648201526084016105df565b6108846113a3565b6000828152609760205260408120610bb390836113e1565b9392505050565b60009182526065602090815260408084206001600160a01b0393909316845291905290205460ff1690565b606060ca80546104c1906124f4565b6107ec3383836113ed565b600054610100900460ff1615808015610c1f5750600054600160ff909116105b80610c395750303b158015610c39575060005460ff166001145b610c9c5760405162461bcd60e51b815260206004820152602e60248201527f496e697469616c697a61626c653a20636f6e747261637420697320616c72656160448201526d191e481a5b9a5d1a585b1a5e995960921b60648201526084016105df565b6000805460ff191660011790558015610cbf576000805461ff0019166101001790555b610cca8484846114bb565b8015610d10576000805461ff0019169055604051600181527f7f26b83ff96e1f2b6a682f133852f6798a09c465da95921460cefb38474024989060200160405180910390a15b50505050565b610d203383610edc565b610d3c5760405162461bcd60e51b81526004016105df9061252e565b610d10848484846114ff565b6060610d5382610e0f565b6000610d5d611532565b90506000815111610d7d5760405180602001604052806000815250610bb3565b80610d8784611542565b604051602001610d98929190612591565b6040516020818303038152906040529392505050565b60008181526097602052604081206104ac906115d5565b600082815260656020526040902060010154610de0816110ca565b61068083836110f6565b60006001600160e01b0319821663780e9d6360e01b14806104ac57506104ac826115df565b600081815260cb60205260409020546001600160a01b03166108cf5760405162461bcd60e51b8152602060048201526018602482015277115490cdcc8c4e881a5b9d985b1a59081d1bdad95b88125160421b60448201526064016105df565b600081815260cd6020526040902080546001600160a01b0319166001600160a01b0384169081179091558190610ea382610965565b6001600160a01b03167f8c5be1e5ebec7d5bd14f71427d1e84f3dd0314c0f7b2291e5b200ac8c7c3b92560405160405180910390a45050565b600080610ee883610965565b9050806001600160a01b0316846001600160a01b03161480610f2f57506001600160a01b03808216600090815260ce602090815260408083209388168352929052205460ff165b80610f535750836001600160a01b0316610f4884610544565b6001600160a01b0316145b949350505050565b826001600160a01b0316610f6e82610965565b6001600160a01b031614610f945760405162461bcd60e51b81526004016105df906125c0565b6001600160a01b038216610ff65760405162461bcd60e51b8152602060048201526024808201527f4552433732313a207472616e7366657220746f20746865207a65726f206164646044820152637265737360e01b60648201526084016105df565b61100183838361161f565b826001600160a01b031661101482610965565b6001600160a01b03161461103a5760405162461bcd60e51b81526004016105df906125c0565b600081815260cd6020908152604080832080546001600160a01b03199081169091556001600160a01b0387811680865260cc855283862080546000190190559087168086528386208054600101905586865260cb90945282852080549092168417909155905184937fddf252ad1be2c89b69c2b068fc378daa952ba7f163c4a11628f55a4df523b3ef91a4505050565b6108cf813361162a565b6110de8282611683565b60008281526097602052604090206106809082611709565b611100828261171e565b60008281526097602052604090206106809082611785565b61112061179a565b61015f805460ff191690557f5db9ee0a495bf2e6ff9c91a7834c1ba4fdd244a5e8aa4e537bd38aeae4b073aa335b6040516001600160a01b03909116815260200160405180910390a1565b600061117682610965565b90506111848160008461161f565b61118d82610965565b600083815260cd6020908152604080832080546001600160a01b03199081169091556001600160a01b03851680855260cc8452828520805460001901905587855260cb909352818420805490911690555192935084927fddf252ad1be2c89b69c2b068fc378daa952ba7f163c4a11628f55a4df523b3ef908390a45050565b6001600160a01b0382166112625760405162461bcd60e51b815260206004820181905260248201527f4552433732313a206d696e7420746f20746865207a65726f206164647265737360448201526064016105df565b600081815260cb60205260409020546001600160a01b0316156112c75760405162461bcd60e51b815260206004820152601c60248201527f4552433732313a20746f6b656e20616c7265616479206d696e7465640000000060448201526064016105df565b6112d36000838361161f565b600081815260cb60205260409020546001600160a01b0316156113385760405162461bcd60e51b815260206004820152601c60248201527f4552433732313a20746f6b656e20616c7265616479206d696e7465640000000060448201526064016105df565b6001600160a01b038216600081815260cc602090815260408083208054600101905584835260cb90915280822080546001600160a01b0319168417905551839291907fddf252ad1be2c89b69c2b068fc378daa952ba7f163c4a11628f55a4df523b3ef908290a45050565b6113ab6117e4565b61015f805460ff191660011790557f62e78cea01bee320cd4e420270b5ea74000d11b0c9f74754ebdbfc544b05a25861114e3390565b6000610bb3838361182b565b816001600160a01b0316836001600160a01b03160361144e5760405162461bcd60e51b815260206004820152601960248201527f4552433732313a20617070726f766520746f2063616c6c65720000000000000060448201526064016105df565b6001600160a01b03838116600081815260ce6020908152604080832094871680845294825291829020805460ff191686151590811790915591519182527f17307eab39ab6107e8899845ad3d59bd9653f200f220920489ca2b5937696c31910160405180910390a3505050565b600054610100900460ff166114e25760405162461bcd60e51b81526004016105df90612605565b6114ec8383611855565b6114f4611895565b6106808383836118c9565b61150a848484610f5b565b6115168484848461194b565b610d105760405162461bcd60e51b81526004016105df90612650565b60606101c480546104c1906124f4565b6060600061154f83611a4c565b600101905060008167ffffffffffffffff81111561156f5761156f61230a565b6040519080825280601f01601f191660200182016040528015611599576020820181803683370190505b5090508181016020015b600019016f181899199a1a9b1b9c1cb0b131b232b360811b600a86061a8153600a85049450846115a357509392505050565b60006104ac825490565b60006001600160e01b031982166380ac58cd60e01b148061161057506001600160e01b03198216635b5e139f60e01b145b806104ac57506104ac82611b24565b610680838383611b49565b6116348282610bba565b6107ec5761164181611bbc565b61164c836020611bce565b60405160200161165d9291906126a2565b60408051601f198184030181529082905262461bcd60e51b82526105df916004016121b6565b61168d8282610bba565b6107ec5760008281526065602090815260408083206001600160a01b03851684529091529020805460ff191660011790556116c53390565b6001600160a01b0316816001600160a01b0316837f2f8788117e7eff1d82e926ec794901d17c78024a50270940304540a733656f0d60405160405180910390a45050565b6000610bb3836001600160a01b038416611d6a565b6117288282610bba565b156107ec5760008281526065602090815260408083206001600160a01b0385168085529252808320805460ff1916905551339285917ff6391f5c32d9c69d2a47ea670b442974b53935d1edc7fd64eb21e047a839171b9190a45050565b6000610bb3836001600160a01b038416611db9565b61015f5460ff166108845760405162461bcd60e51b815260206004820152601460248201527314185d5cd8589b194e881b9bdd081c185d5cd95960621b60448201526064016105df565b61015f5460ff16156108845760405162461bcd60e51b815260206004820152601060248201526f14185d5cd8589b194e881c185d5cd95960821b60448201526064016105df565b60008260000182815481106118425761184261257b565b9060005260206000200154905092915050565b600054610100900460ff1661187c5760405162461bcd60e51b81526004016105df90612605565b60c96118888382612765565b5060ca6106808282612765565b600054610100900460ff166118bc5760405162461bcd60e51b81526004016105df90612605565b61015f805460ff19169055565b600054610100900460ff166118f05760405162461bcd60e51b81526004016105df90612605565b6101c46118fd8282612765565b50611909600033611eac565b6119337f9f2df0fed2c77648de5860a4cc508cd0818c85b8b8a1ab4ceeef8d981c8956a633611eac565b6106806000805160206128ff83398151915233611eac565b60006001600160a01b0384163b15611a4157604051630a85bd0160e11b81526001600160a01b0385169063150b7a029061198f903390899088908890600401612824565b6020604051808303816000875af19250505080156119ca575060408051601f3d908101601f191682019092526119c791810190612861565b60015b611a27573d8080156119f8576040519150601f19603f3d011682016040523d82523d6000602084013e6119fd565b606091505b508051600003611a1f5760405162461bcd60e51b81526004016105df90612650565b805181602001fd5b6001600160e01b031916630a85bd0160e11b149050610f53565b506001949350505050565b60008072184f03e93ff9f4daa797ed6e38ed64bf6a1f0160401b8310611a8b5772184f03e93ff9f4daa797ed6e38ed64bf6a1f0160401b830492506040015b6d04ee2d6d415b85acef81000000008310611ab7576d04ee2d6d415b85acef8100000000830492506020015b662386f26fc100008310611ad557662386f26fc10000830492506010015b6305f5e1008310611aed576305f5e100830492506008015b6127108310611b0157612710830492506004015b60648310611b13576064830492506002015b600a83106104ac5760010192915050565b60006001600160e01b03198216635a05180f60e01b14806104ac57506104ac82611eb6565b611b54838383611eeb565b61015f5460ff16156106805760405162461bcd60e51b815260206004820152602b60248201527f4552433732315061757361626c653a20746f6b656e207472616e73666572207760448201526a1a1a5b19481c185d5cd95960aa1b60648201526084016105df565b60606104ac6001600160a01b03831660145b60606000611bdd836002612894565b611be89060026128ab565b67ffffffffffffffff811115611c0057611c0061230a565b6040519080825280601f01601f191660200182016040528015611c2a576020820181803683370190505b509050600360fc1b81600081518110611c4557611c4561257b565b60200101906001600160f81b031916908160001a905350600f60fb1b81600181518110611c7457611c7461257b565b60200101906001600160f81b031916908160001a9053506000611c98846002612894565b611ca39060016128ab565b90505b6001811115611d1b576f181899199a1a9b1b9c1cb0b131b232b360811b85600f1660108110611cd757611cd761257b565b1a60f81b828281518110611ced57611ced61257b565b60200101906001600160f81b031916908160001a90535060049490941c93611d14816128be565b9050611ca6565b508315610bb35760405162461bcd60e51b815260206004820181905260248201527f537472696e67733a20686578206c656e67746820696e73756666696369656e7460448201526064016105df565b6000818152600183016020526040812054611db1575081546001818101845560008481526020808220909301849055845484825282860190935260409020919091556104ac565b5060006104ac565b60008181526001830160205260408120548015611ea2576000611ddd6001836128d5565b8554909150600090611df1906001906128d5565b9050818114611e56576000866000018281548110611e1157611e1161257b565b9060005260206000200154905080876000018481548110611e3457611e3461257b565b6000918252602080832090910192909255918252600188019052604090208390555b8554869080611e6757611e676128e8565b6001900381819060005260206000200160009055905585600101600086815260200190815260200160002060009055600193505050506104ac565b60009150506104ac565b6107ec82826110d4565b60006001600160e01b03198216637965db0b60e01b14806104ac57506301ffc9a760e01b6001600160e01b03198316146104ac565b6001600160a01b038316611f4657611f418160fd8054600083815260fe60205260408120829055600182018355919091527f9346ac6dd7de6b96975fec380d4d994c4c12e6a8897544f22915316cc6cca2800155565b611f69565b816001600160a01b0316836001600160a01b031614611f6957611f698382611fa3565b6001600160a01b038216611f805761068081612040565b826001600160a01b0316826001600160a01b0316146106805761068082826120ef565b60006001611fb084610a83565b611fba91906128d5565b600083815260fc602052604090205490915080821461200d576001600160a01b038416600090815260fb60209081526040808320858452825280832054848452818420819055835260fc90915290208190555b50600091825260fc602090815260408084208490556001600160a01b03909416835260fb81528383209183525290812055565b60fd54600090612052906001906128d5565b600083815260fe602052604081205460fd805493945090928490811061207a5761207a61257b565b906000526020600020015490508060fd838154811061209b5761209b61257b565b600091825260208083209091019290925582815260fe909152604080822084905585825281205560fd8054806120d3576120d36128e8565b6001900381819060005260206000200160009055905550505050565b60006120fa83610a83565b6001600160a01b03909316600090815260fb60209081526040808320868452825280832085905593825260fc9052919091209190915550565b6001600160e01b0319811681146108cf57600080fd5b60006020828403121561215b57600080fd5b8135610bb381612133565b60005b83811015612181578181015183820152602001612169565b50506000910152565b600081518084526121a2816020860160208601612166565b601f01601f19169290920160200192915050565b602081526000610bb3602083018461218a565b6000602082840312156121db57600080fd5b5035919050565b80356001600160a01b03811681146121f957600080fd5b919050565b6000806040838503121561221157600080fd5b61221a836121e2565b946020939093013593505050565b60008060006060848603121561223d57600080fd5b612246846121e2565b9250612254602085016121e2565b929592945050506040919091013590565b6000806040838503121561227857600080fd5b82359150612288602084016121e2565b90509250929050565b6000602082840312156122a357600080fd5b610bb3826121e2565b600080604083850312156122bf57600080fd5b50508035926020909101359150565b600080604083850312156122e157600080fd5b6122ea836121e2565b9150602083013580151581146122ff57600080fd5b809150509250929050565b634e487b7160e01b600052604160045260246000fd5b60008067ffffffffffffffff84111561233b5761233b61230a565b50604051601f19601f85018116603f0116810181811067ffffffffffffffff8211171561236a5761236a61230a565b60405283815290508082840185101561238257600080fd5b83836020830137600060208583010152509392505050565b600082601f8301126123ab57600080fd5b610bb383833560208501612320565b6000806000606084860312156123cf57600080fd5b833567ffffffffffffffff8111156123e657600080fd5b6123f28682870161239a565b935050602084013567ffffffffffffffff81111561240f57600080fd5b61241b8682870161239a565b925050604084013567ffffffffffffffff81111561243857600080fd5b6124448682870161239a565b9150509250925092565b6000806000806080858703121561246457600080fd5b61246d856121e2565b935061247b602086016121e2565b925060408501359150606085013567ffffffffffffffff81111561249e57600080fd5b8501601f810187136124af57600080fd5b6124be87823560208401612320565b91505092959194509250565b600080604083850312156124dd57600080fd5b6124e6836121e2565b9150612288602084016121e2565b600181811c9082168061250857607f821691505b60208210810361252857634e487b7160e01b600052602260045260246000fd5b50919050565b6020808252602d908201527f4552433732313a2063616c6c6572206973206e6f7420746f6b656e206f776e6560408201526c1c881bdc88185c1c1c9bdd9959609a1b606082015260800190565b634e487b7160e01b600052603260045260246000fd5b600083516125a3818460208801612166565b8351908301906125b7818360208801612166565b01949350505050565b60208082526025908201527f4552433732313a207472616e736665722066726f6d20696e636f72726563742060408201526437bbb732b960d91b606082015260800190565b6020808252602b908201527f496e697469616c697a61626c653a20636f6e7472616374206973206e6f74206960408201526a6e697469616c697a696e6760a81b606082015260800190565b60208082526032908201527f4552433732313a207472616e7366657220746f206e6f6e20455243373231526560408201527131b2b4bb32b91034b6b83632b6b2b73a32b960711b606082015260800190565b7f416363657373436f6e74726f6c3a206163636f756e74200000000000000000008152600083516126da816017850160208801612166565b7001034b99036b4b9b9b4b733903937b6329607d1b601791840191820152835161270b816028840160208801612166565b01602801949350505050565b601f82111561068057806000526020600020601f840160051c8101602085101561273e5750805b601f840160051c820191505b8181101561275e576000815560010161274a565b5050505050565b815167ffffffffffffffff81111561277f5761277f61230a565b6127938161278d84546124f4565b84612717565b6020601f8211600181146127c757600083156127af5750848201515b600019600385901b1c1916600184901b17845561275e565b600084815260208120601f198516915b828110156127f757878501518255602094850194600190920191016127d7565b50848210156128155786840151600019600387901b60f8161c191681555b50505050600190811b01905550565b6001600160a01b03858116825284166020820152604081018390526080606082018190526000906128579083018461218a565b9695505050505050565b60006020828403121561287357600080fd5b8151610bb381612133565b634e487b7160e01b600052601160045260246000fd5b80820281158282048414176104ac576104ac61287e565b808201808211156104ac576104ac61287e565b6000816128cd576128cd61287e565b506000190190565b818103818111156104ac576104ac61287e565b634e487b7160e01b600052603160045260246000fdfe65d7a28e3265b37a6474929f336521b332c1681b933f6cb9f3376673440d862aa264697066735822122039e2d157c32ff3ab776f411c6e7f27226a354e2947a3d25c87b7b69bf57ffd0c64736f6c634300081a0033","linkReferences":{}},"methodIdentifiers":{"DEFAULT_ADMIN_ROLE()":"a217fddf","MINTER_ROLE()":"d5391393","PAUSER_ROLE()":"e63ab1e9","approve(address,uint256)":"095ea7b3","balanceOf(address)":"70a08231","burn(uint256)":"42966c68","getApproved(uint256)":"081812fc","getRoleAdmin(bytes32)":"248a9ca3","getRoleMember(bytes32,uint256)":"9010d07c","getRoleMemberCount(bytes32)":"ca15c873","grantRole(bytes32,address)":"2f2ff15d","hasRole(bytes32,address)":"91d14854","initialize(string,string,string)":"a6487c53","isApprovedForAll(address,address)":"e985e9c5","mint(address)":"6a627842","name()":"06fdde03","ownerOf(uint256)":"6352211e","pause()":"8456cb59","paused()":"5c975abb","renounceRole(bytes32,address)":"36568abe","revokeRole(bytes32,address)":"d547741f","safeTransferFrom(address,address,uint256)":"42842e0e","safeTransferFrom(address,address,uint256,bytes)":"b88d4fde","setApprovalForAll(address,bool)":"a22cb465","supportsInterface(bytes4)":"01ffc9a7","symbol()":"95d89b41","tokenByIndex(uint256)":"4f6ccce7","tokenOfOwnerByIndex(address,uint256)":"2f745c59","tokenURI(uint256)":"c87b56dd","totalSupply()":"18160ddd","transferFrom(address,address,uint256)":"23b872dd","unpause()":"3f4ba83a"},"id":128}