{"abi":[{"type":"fallback","stateMutability":"payable"},{"type":"function","name":"resolver","inputs":[],"outputs":[{"name":"","type":"address","internalType":"contract Resolver"}],"stateMutability":"view"},{"type":"function","name":"setResolver","inputs":[{"name":"_resolver","type":"address","internalType":"address"}],"outputs":[],"stateMutability":"nonpayable"}],"bytecode":{"object":"0x608060405234801561001057600080fd5b506101cb806100206000396000f3fe6080604052600436106100295760003560e01c806304f3bcec146101015780634e543b2614610132575b6001600160e01b03196000351661003f576100ff565b60008054604080516337b4746960e11b81526001600160e01b0319843516600482015290516001600160a01b0390921691636f68e8d291602480820192602092909190829003018186803b15801561009657600080fd5b505afa1580156100aa573d6000803e3d6000fd5b505050506040513d60208110156100c057600080fd5b50519050803b806100d057600080fd5b36600060405137600060405136604051855af43d60006040513e80600181146100f9573d604051fd5b3d604051f35b005b34801561010d57600080fd5b50610116610165565b604080516001600160a01b039092168252519081900360200190f35b34801561013e57600080fd5b506100ff6004803603602081101561015557600080fd5b50356001600160a01b0316610174565b6000546001600160a01b031681565b600080546001600160a01b0319166001600160a01b039290921691909117905556fea265627a7a72315820cb49c1ad67c388e4d6c51703d1104e1e247e8dcd286ce13696419c7367e9484164736f6c63430005110032","linkReferences":{}},"methodIdentifiers":{"resolver()":"04f3bcec","setResolver(address)":"4e543b26"},"id":2}