{"abi":[{"type":"function","name":"allowance","inputs":[{"name":"holder","type":"address","internalType":"address"},{"name":"spender","type":"address","internalType":"address"}],"outputs":[{"name":"","type":"uint256","internalType":"uint256"}],"stateMutability":"view"},{"type":"function","name":"approve","inputs":[{"name":"spender","type":"address","internalType":"address"},{"name":"value","type":"uint256","internalType":"uint256"}],"outputs":[{"name":"","type":"bool","internalType":"bool"}],"stateMutability":"nonpayable"},{"type":"function","name":"authorizeOperator","inputs":[{"name":"operator","type":"address","internalType":"address"}],"outputs":[],"stateMutability":"nonpayable"},{"type":"function","name":"balanceOf","inputs":[{"name":"tokenHolder","type":"address","internalType":"address"}],"outputs":[{"name":"","type":"uint256","internalType":"uint256"}],"stateMutability":"view"},{"type":"function","name":"burn","inputs":[{"name":"amount","type":"uint256","internalType":"uint256"},{"name":"data","type":"bytes","internalType":"bytes"}],"outputs":[],"stateMutability":"nonpayable"},{"type":"function","name":"decimals","inputs":[],"outputs":[{"name":"","type":"uint8","internalType":"uint8"}],"stateMutability":"pure"},{"type":"function","name":"defaultOperators","inputs":[],"outputs":[{"name":"","type":"address[]","internalType":"address[]"}],"stateMutability":"view"},{"type":"function","name":"granularity","inputs":[],"outputs":[{"name":"","type":"uint256","internalType":"uint256"}],"stateMutability":"view"},{"type":"function","name":"initialize","inputs":[{"name":"name","type":"string","internalType":"string"},{"name":"symbol","type":"string","internalType":"string"},{"name":"defaultOperators","type":"address[]","internalType":"address[]"},{"name":"initialSupply","type":"uint256","internalType":"uint256"},{"name":"owner","type":"address","internalType":"address"}],"outputs":[],"stateMutability":"nonpayable"},{"type":"function","name":"isOperatorFor","inputs":[{"name":"operator","type":"address","internalType":"address"},{"name":"tokenHolder","type":"address","internalType":"address"}],"outputs":[{"name":"","type":"bool","internalType":"bool"}],"stateMutability":"view"},{"type":"function","name":"name","inputs":[],"outputs":[{"name":"","type":"string","internalType":"string"}],"stateMutability":"view"},{"type":"function","name":"operatorBurn","inputs":[{"name":"account","type":"address","internalType":"address"},{"name":"amount","type":"uint256","internalType":"uint256"},{"name":"data","type":"bytes","internalType":"bytes"},{"name":"operatorData","type":"bytes","internalType":"bytes"}],"outputs":[],"stateMutability":"nonpayable"},{"type":"function","name":"operatorSend","inputs":[{"name":"sender","type":"address","internalType":"address"},{"name":"recipient","type":"address","internalType":"address"},{"name":"amount","type":"uint256","internalType":"uint256"},{"name":"data","type":"bytes","internalType":"bytes"},{"name":"operatorData","type":"bytes","internalType":"bytes"}],"outputs":[],"stateMutability":"nonpayable"},{"type":"function","name":"revokeOperator","inputs":[{"name":"operator","type":"address","internalType":"address"}],"outputs":[],"stateMutability":"nonpayable"},{"type":"function","name":"send","inputs":[{"name":"recipient","type":"address","internalType":"address"},{"name":"amount","type":"uint256","internalType":"uint256"},{"name":"data","type":"bytes","internalType":"bytes"}],"outputs":[],"stateMutability":"nonpayable"},{"type":"function","name":"symbol","inputs":[],"outputs":[{"name":"","type":"string","internalType":"string"}],"stateMutability":"view"},{"type":"function","name":"totalSupply","inputs":[],"outputs":[{"name":"","type":"uint256","internalType":"uint256"}],"stateMutability":"view"},{"type":"function","name":"transfer","inputs":[{"name":"recipient","type":"address","internalType":"address"},{"name":"amount","type":"uint256","internalType":"uint256"}],"outputs":[{"name":"","type":"bool","internalType":"bool"}],"stateMutability":"nonpayable"},{"type":"function","name":"transferFrom","inputs":[{"name":"holder","type":"address","internalType":"address"},{"name":"recipient","type":"address","internalType":"address"},{"name":"amount","type":"uint256","internalType":"uint256"}],"outputs":[{"name":"","type":"bool","internalType":"bool"}],"stateMutability":"nonpayable"},{"type":"event","name":"Approval","inputs":[{"name":"owner","type":"address","indexed":true,"internalType":"address"},{"name":"spender","type":"address","indexed":true,"internalType":"address"},{"name":"value","type":"uint256","indexed":false,"internalType":"uint256"}],"anonymous":false},{"type":"event","name":"AuthorizedOperator","inputs":[{"name":"operator","type":"address","indexed":true,"internalType":"address"},{"name":"tokenHolder","type":"address","indexed":true,"internalType":"address"}],"anonymous":false},{"type":"event","name":"Burned","inputs":[{"name":"operator","type":"address","indexed":true,"internalType":"address"},{"name":"from","type":"address","indexed":true,"internalType":"address"},{"name":"amount","type":"uint256","indexed":false,"internalType":"uint256"},{"name":"data","type":"bytes","indexed":false,"internalType":"bytes"},{"name":"operatorData","type":"bytes","indexed":false,"internalType":"bytes"}],"anonymous":false},{"type":"event","name":"Initialized","inputs":[{"name":"version","type":"uint8","indexed":false,"internalType":"uint8"}],"anonymous":false},{"type":"event","name":"Minted","inputs":[{"name":"operator","type":"address","indexed":true,"internalType":"address"},{"name":"to","type":"address","indexed":true,"internalType":"address"},{"name":"amount","type":"uint256","indexed":false,"internalType":"uint256"},{"name":"data","type":"bytes","indexed":false,"internalType":"bytes"},{"name":"operatorData","type":"bytes","indexed":false,"internalType":"bytes"}],"anonymous":false},{"type":"event","name":"RevokedOperator","inputs":[{"name":"operator","type":"address","indexed":true,"internalType":"address"},{"name":"tokenHolder","type":"address","indexed":true,"internalType":"address"}],"anonymous":false},{"type":"event","name":"Sent","inputs":[{"name":"operator","type":"address","indexed":true,"internalType":"address"},{"name":"from","type":"address","indexed":true,"internalType":"address"},{"name":"to","type":"address","indexed":true,"internalType":"address"},{"name":"amount","type":"uint256","indexed":false,"internalType":"uint256"},{"name":"data","type":"bytes","indexed":false,"internalType":"bytes"},{"name":"operatorData","type":"bytes","indexed":false,"internalType":"bytes"}],"anonymous":false},{"type":"event","name":"Transfer","inputs":[{"name":"from","type":"address","indexed":true,"internalType":"address"},{"name":"to","type":"address","indexed":true,"internalType":"address"},{"name":"value","type":"uint256","indexed":false,"internalType":"uint256"}],"anonymous":false}],"bytecode":{"object":"0x6080604052348015600f57600080fd5b50611e1c8061001f6000396000f3fe608060405234801561001057600080fd5b50600436106101215760003560e01c8063768f950a116100ad578063d95b637111610071578063d95b637114610249578063dd62ed3e1461025c578063fad8b32a14610295578063fc673c4f146102a8578063fe9d9303146102bb57600080fd5b8063768f950a146101f5578063959b8c3f1461020857806395d89b411461021b5780639bd9bbc614610223578063a9059cbb1461023657600080fd5b806323b872dd116100f457806323b872dd1461018e578063313ce567146101a1578063556f0dc7146101b057806362ad1b83146101b757806370a08231146101cc57600080fd5b806306e485381461012657806306fdde0314610144578063095ea7b31461015957806318160ddd1461017c575b600080fd5b61012e6102ce565b60405161013b91906115e7565b60405180910390f35b61014c610330565b60405161013b9190611679565b61016c6101673660046116b4565b6103b9565b604051901515815260200161013b565b6034545b60405190815260200161013b565b61016c61019c3660046116e0565b6103d3565b6040516012815260200161013b565b6001610180565b6101ca6101c53660046117dd565b610419565b005b6101806101da366004611873565b6001600160a01b031660009081526033602052604090205490565b6101ca610203366004611890565b61045e565b6101ca610216366004611873565b610579565b61014c610696565b6101ca6102313660046119b8565b6106a5565b61016c6102443660046116b4565b6106c8565b61016c610257366004611a10565b610700565b61018061026a366004611a10565b6001600160a01b039182166000908152603b6020908152604080832093909416825291909152205490565b6101ca6102a3366004611873565b6107a2565b6101ca6102b6366004611a49565b6108bd565b6101ca6102c9366004611acc565b6108f5565b6060603780548060200260200160405190810160405280929190818152602001828054801561032657602002820191906000526020600020905b81546001600160a01b03168152600190910190602001808311610308575b5050505050905090565b60606035805461033f90611b12565b80601f016020809104026020016040519081016040528092919081815260200182805461036b90611b12565b80156103265780601f1061038d57610100808354040283529160200191610326565b820191906000526020600020905b81548152906001019060200180831161039b57509395945050505050565b6000336103c7818585610914565b60019150505b92915050565b6000336103e1858285610a3b565b61040e85858560405180602001604052806000815250604051806020016040528060008152506000610ac7565b506001949350505050565b6104233386610700565b6104485760405162461bcd60e51b815260040161043f90611b4c565b60405180910390fd5b61045785858585856001610ac7565b5050505050565b600054610100900460ff161580801561047e5750600054600160ff909116105b806104985750303b158015610498575060005460ff166001145b6104fb5760405162461bcd60e51b815260206004820152602e60248201527f496e697469616c697a61626c653a20636f6e747261637420697320616c72656160448201526d191e481a5b9a5d1a585b1a5e995960921b606482015260840161043f565b6000805460ff19166001179055801561051e576000805461ff0019166101001790555b61052b8686868686610bc3565b8015610571576000805461ff0019169055604051600181527f7f26b83ff96e1f2b6a682f133852f6798a09c465da95921460cefb38474024989060200160405180910390a15b505050505050565b6001600160a01b03811633036105dd5760405162461bcd60e51b8152602060048201526024808201527f4552433737373a20617574686f72697a696e672073656c66206173206f70657260448201526330ba37b960e11b606482015260840161043f565b6001600160a01b03811660009081526038602052604090205460ff161561062e57336000908152603a602090815260408083206001600160a01b03851684529091529020805460ff1916905561065d565b3360009081526039602090815260408083206001600160a01b03851684529091529020805460ff191660011790555b60405133906001600160a01b038316907ff4caeb2d6ca8932a215a353d0703c326ec2d81fc68170f320eb2ab49e9df61f990600090a350565b60606036805461033f90611b12565b6106c333848484604051806020016040528060008152506001610ac7565b505050565b60006106f733848460405180602001604052806000815250604051806020016040528060008152506000610ac7565b50600192915050565b6000816001600160a01b0316836001600160a01b0316148061076b57506001600160a01b03831660009081526038602052604090205460ff16801561076b57506001600160a01b038083166000908152603a602090815260408083209387168352929052205460ff16155b8061079b57506001600160a01b0380831660009081526039602090815260408083209387168352929052205460ff165b9392505050565b336001600160a01b038216036108045760405162461bcd60e51b815260206004820152602160248201527f4552433737373a207265766f6b696e672073656c66206173206f70657261746f6044820152603960f91b606482015260840161043f565b6001600160a01b03811660009081526038602052604090205460ff161561085857336000908152603a602090815260408083206001600160a01b03851684529091529020805460ff19166001179055610884565b3360009081526039602090815260408083206001600160a01b03851684529091529020805460ff191690555b60405133906001600160a01b038316907f50546e66e5f44d728365dc3908c63bc5cfeeab470722c1677e3073a6ac294aa190600090a350565b6108c73385610700565b6108e35760405162461bcd60e51b815260040161043f90611b4c565b6108ef84848484610c02565b50505050565b61091033838360405180602001604052806000815250610c02565b5050565b6001600160a01b0383166109785760405162461bcd60e51b815260206004820152602560248201527f4552433737373a20617070726f76652066726f6d20746865207a65726f206164604482015264647265737360d81b606482015260840161043f565b6001600160a01b0382166109da5760405162461bcd60e51b815260206004820152602360248201527f4552433737373a20617070726f766520746f20746865207a65726f206164647260448201526265737360e81b606482015260840161043f565b6001600160a01b038381166000818152603b602090815260408083209487168084529482529182902085905590518481527f8c5be1e5ebec7d5bd14f71427d1e84f3dd0314c0f7b2291e5b200ac8c7c3b925910160405180910390a3505050565b6001600160a01b038381166000908152603b602090815260408083209386168352929052205460001981146108ef5781811015610aba5760405162461bcd60e51b815260206004820152601e60248201527f4552433737373a20696e73756666696369656e7420616c6c6f77616e63650000604482015260640161043f565b6108ef8484848403610914565b6001600160a01b038616610b2c5760405162461bcd60e51b815260206004820152602660248201527f4552433737373a207472616e736665722066726f6d20746865207a65726f206160448201526564647265737360d01b606482015260840161043f565b6001600160a01b038516610b8e5760405162461bcd60e51b8152602060048201526024808201527f4552433737373a207472616e7366657220746f20746865207a65726f206164646044820152637265737360e01b606482015260840161043f565b33610b9d818888888888610db7565b610bab818888888888610ede565b610bba81888888888888611044565b50505050505050565b600054610100900460ff16610bea5760405162461bcd60e51b815260040161043f90611b98565b610bf5858585611209565b61045785858585856113db565b6001600160a01b038416610c635760405162461bcd60e51b815260206004820152602260248201527f4552433737373a206275726e2066726f6d20746865207a65726f206164647265604482015261737360f01b606482015260840161043f565b33610c7381866000878787610db7565b6001600160a01b03851660009081526033602052604090205484811015610ce85760405162461bcd60e51b815260206004820152602360248201527f4552433737373a206275726e20616d6f756e7420657863656564732062616c616044820152626e636560e81b606482015260840161043f565b6001600160a01b0386166000908152603360205260408120868303905560348054879290610d17908490611bf9565b92505081905550856001600160a01b0316826001600160a01b03167fa78a9be3a7b862d26933ad85fb11d80ef66b8f972d7cbba06621d583943a4098878787604051610d6593929190611c0c565b60405180910390a36040518581526000906001600160a01b038816907fddf252ad1be2c89b69c2b068fc378daa952ba7f163c4a11628f55a4df523b3ef906020015b60405180910390a3505050505050565b60405163555ddc6560e11b81526001600160a01b03861660048201527f29ddb589b1fb5fc7cf394961c1adf5f8c6454761adf795e67fe149f658abe8956024820152600090731820a4b7618bde71dce8cdc73aab6c95905fad249063aabbb8ca90604401602060405180830381865afa158015610e38573d6000803e3d6000fd5b505050506040513d601f19601f82011682018060405250810190610e5c9190611c41565b90506001600160a01b03811615610bba57604051633ad5cbc160e11b81526001600160a01b038216906375ab978290610ea3908a908a908a908a908a908a90600401611c5e565b600060405180830381600087803b158015610ebd57600080fd5b505af1158015610ed1573d6000803e3d6000fd5b5050505050505050505050565b6001600160a01b03851660009081526033602052604090205483811015610f575760405162461bcd60e51b815260206004820152602760248201527f4552433737373a207472616e7366657220616d6f756e7420657863656564732060448201526662616c616e636560c81b606482015260840161043f565b6001600160a01b03808716600090815260336020526040808220878503905591871681529081208054869290610f8e908490611cb8565b92505081905550846001600160a01b0316866001600160a01b0316886001600160a01b03167f06b541ddaa720db2b10a4d0cdac39b8d360425fc073085fac19bc82614677987878787604051610fe693929190611c0c565b60405180910390a4846001600160a01b0316866001600160a01b03167fddf252ad1be2c89b69c2b068fc378daa952ba7f163c4a11628f55a4df523b3ef8660405161103391815260200190565b60405180910390a350505050505050565b60405163555ddc6560e11b81526001600160a01b03861660048201527fb281fc8c12954d22544db45de3159a39272895b169a852b314f9cc762e44c53b6024820152600090731820a4b7618bde71dce8cdc73aab6c95905fad249063aabbb8ca90604401602060405180830381865afa1580156110c5573d6000803e3d6000fd5b505050506040513d601f19601f820116820180604052508101906110e99190611c41565b90506001600160a01b03811615611165576040516223de2960e01b81526001600160a01b038216906223de299061112e908b908b908b908b908b908b90600401611c5e565b600060405180830381600087803b15801561114857600080fd5b505af115801561115c573d6000803e3d6000fd5b505050506111ff565b81156111ff576001600160a01b0386163b156111ff5760405162461bcd60e51b815260206004820152604d60248201527f4552433737373a20746f6b656e20726563697069656e7420636f6e747261637460448201527f20686173206e6f20696d706c656d656e74657220666f7220455243373737546f60648201526c1ad95b9cd49958da5c1a595b9d609a1b608482015260a40161043f565b5050505050505050565b600054610100900460ff166112305760405162461bcd60e51b815260040161043f90611b98565b603561123c8482611d12565b5060366112498382611d12565b50805161125d90603790602084019061156d565b5060005b81518110156112bc5760016038600084848151811061128257611282611dd0565b6020908102919091018101516001600160a01b03168252810191909152604001600020805460ff1916911515919091179055600101611261565b506040516329965a1d60e01b815230600482018190527fac7fbab5f54a3ca8194167523c6753bfeb96a445279294b6125b68cce217705460248301526044820152731820a4b7618bde71dce8cdc73aab6c95905fad24906329965a1d90606401600060405180830381600087803b15801561133657600080fd5b505af115801561134a573d6000803e3d6000fd5b50506040516329965a1d60e01b815230600482018190527faea199e31a596269b42cdafd93407f14436db6e4cad65417994c2eb37381e05a60248301526044820152731820a4b7618bde71dce8cdc73aab6c95905fad2492506329965a1d9150606401600060405180830381600087803b1580156113c757600080fd5b505af1158015610bba573d6000803e3d6000fd5b600054610100900460ff166114025760405162461bcd60e51b815260040161043f90611b98565b610457818360405180602001604052806000815250604051806020016040528060008152506108ef8484848460016001600160a01b0385166114865760405162461bcd60e51b815260206004820181905260248201527f4552433737373a206d696e7420746f20746865207a65726f2061646472657373604482015260640161043f565b6000339050846034600082825461149d9190611cb8565b90915550506001600160a01b038616600090815260336020526040812080548792906114ca908490611cb8565b909155506114e090508160008888888888611044565b856001600160a01b0316816001600160a01b03167f2fe5be0146f74c5bce36c0b80911af6c7d86ff27e89d5cfa61fc681327954e5d87878760405161152793929190611c0c565b60405180910390a36040518581526001600160a01b038716906000907fddf252ad1be2c89b69c2b068fc378daa952ba7f163c4a11628f55a4df523b3ef90602001610da7565b8280548282559060005260206000209081019282156115c2579160200282015b828111156115c257825182546001600160a01b0319166001600160a01b0390911617825560209092019160019091019061158d565b506115ce9291506115d2565b5090565b5b808211156115ce57600081556001016115d3565b602080825282518282018190526000918401906040840190835b818110156116285783516001600160a01b0316835260209384019390920191600101611601565b509095945050505050565b6000815180845260005b818110156116595760208185018101518683018201520161163d565b506000602082860101526020601f19601f83011685010191505092915050565b60208152600061079b6020830184611633565b6001600160a01b03811681146116a157600080fd5b50565b80356116af8161168c565b919050565b600080604083850312156116c757600080fd5b82356116d28161168c565b946020939093013593505050565b6000806000606084860312156116f557600080fd5b83356117008161168c565b925060208401356117108161168c565b929592945050506040919091013590565b634e487b7160e01b600052604160045260246000fd5b604051601f8201601f191681016001600160401b038111828210171561175f5761175f611721565b604052919050565b600082601f83011261177857600080fd5b8135602083016000806001600160401b0384111561179857611798611721565b50601f8301601f19166020016117ad81611737565b9150508281528583830111156117c257600080fd5b82826020830137600092810160200192909252509392505050565b600080600080600060a086880312156117f557600080fd5b85356118008161168c565b945060208601356118108161168c565b93506040860135925060608601356001600160401b0381111561183257600080fd5b61183e88828901611767565b92505060808601356001600160401b0381111561185a57600080fd5b61186688828901611767565b9150509295509295909350565b60006020828403121561188557600080fd5b813561079b8161168c565b600080600080600060a086880312156118a857600080fd5b85356001600160401b038111156118be57600080fd5b6118ca88828901611767565b95505060208601356001600160401b038111156118e657600080fd5b6118f288828901611767565b94505060408601356001600160401b0381111561190e57600080fd5b8601601f8101881361191f57600080fd5b80356001600160401b0381111561193857611938611721565b8060051b61194860208201611737565b9182526020818401810192908101908b84111561196457600080fd5b6020850194505b8385101561199257843592506119808361168c565b8282526020948501949091019061196b565b9650505050606087013592506119ac9050608087016116a4565b90509295509295909350565b6000806000606084860312156119cd57600080fd5b83356119d88161168c565b92506020840135915060408401356001600160401b038111156119fa57600080fd5b611a0686828701611767565b9150509250925092565b60008060408385031215611a2357600080fd5b8235611a2e8161168c565b91506020830135611a3e8161168c565b809150509250929050565b60008060008060808587031215611a5f57600080fd5b8435611a6a8161168c565b93506020850135925060408501356001600160401b03811115611a8c57600080fd5b611a9887828801611767565b92505060608501356001600160401b03811115611ab457600080fd5b611ac087828801611767565b91505092959194509250565b60008060408385031215611adf57600080fd5b8235915060208301356001600160401b03811115611afc57600080fd5b611b0885828601611767565b9150509250929050565b600181811c90821680611b2657607f821691505b602082108103611b4657634e487b7160e01b600052602260045260246000fd5b50919050565b6020808252602c908201527f4552433737373a2063616c6c6572206973206e6f7420616e206f70657261746f60408201526b39103337b9103437b63232b960a11b606082015260800190565b6020808252602b908201527f496e697469616c697a61626c653a20636f6e7472616374206973206e6f74206960408201526a6e697469616c697a696e6760a81b606082015260800190565b634e487b7160e01b600052601160045260246000fd5b818103818111156103cd576103cd611be3565b838152606060208201526000611c256060830185611633565b8281036040840152611c378185611633565b9695505050505050565b600060208284031215611c5357600080fd5b815161079b8161168c565b6001600160a01b0387811682528681166020830152851660408201526060810184905260c060808201819052600090611c9990830185611633565b82810360a0840152611cab8185611633565b9998505050505050505050565b808201808211156103cd576103cd611be3565b601f8211156106c357806000526020600020601f840160051c81016020851015611cf25750805b601f840160051c820191505b818110156104575760008155600101611cfe565b81516001600160401b03811115611d2b57611d2b611721565b611d3f81611d398454611b12565b84611ccb565b6020601f821160018114611d735760008315611d5b5750848201515b600019600385901b1c1916600184901b178455610457565b600084815260208120601f198516915b82811015611da35787850151825560209485019460019092019101611d83565b5084821015611dc15786840151600019600387901b60f8161c191681555b50505050600190811b01905550565b634e487b7160e01b600052603260045260246000fdfea264697066735822122002efbdca1d1af6adea056e93b2528bed22335549b26557033e7de725f584f1d764736f6c634300081a0033","linkReferences":{}},"methodIdentifiers":{"allowance(address,address)":"dd62ed3e","approve(address,uint256)":"095ea7b3","authorizeOperator(address)":"959b8c3f","balanceOf(address)":"70a08231","burn(uint256,bytes)":"fe9d9303","decimals()":"313ce567","defaultOperators()":"06e48538","granularity()":"556f0dc7","initialize(string,string,address[],uint256,address)":"768f950a","isOperatorFor(address,address)":"d95b6371","name()":"06fdde03","operatorBurn(address,uint256,bytes,bytes)":"fc673c4f","operatorSend(address,address,uint256,bytes,bytes)":"62ad1b83","revokeOperator(address)":"fad8b32a","send(address,uint256,bytes)":"9bd9bbc6","symbol()":"95d89b41","totalSupply()":"18160ddd","transfer(address,uint256)":"a9059cbb","transferFrom(address,address,uint256)":"23b872dd"},"id":135}