{"abi":[{"type":"constructor","inputs":[],"stateMutability":"nonpayable"},{"type":"function","name":"setValue","inputs":[],"outputs":[],"stateMutability":"nonpayable"}],"bytecode":{"object":"0x6080604052348015600f57600080fd5b50606c80601d6000396000f3fe6080604052348015600f57600080fd5b506004361060285760003560e01c80634fa519fa14602d575b600080fd5b60336035565b005b56fea265627a7a72315820a628d9c5e4189a5ea7062d61f5c90de51cedb0cd1ddd156042edf6f58db388db64736f6c63430005110032","linkReferences":{}},"methodIdentifiers":{"setValue()":"4fa519fa"},"id":5}