{"abi":[{"type":"function","name":"DEFAULT_ADMIN_ROLE","inputs":[],"outputs":[{"name":"","type":"bytes32","internalType":"bytes32"}],"stateMutability":"view"},{"type":"function","name":"MINTER_ROLE","inputs":[],"outputs":[{"name":"","type":"bytes32","internalType":"bytes32"}],"stateMutability":"view"},{"type":"function","name":"PAUSER_ROLE","inputs":[],"outputs":[{"name":"","type":"bytes32","internalType":"bytes32"}],"stateMutability":"view"},{"type":"function","name":"balanceOf","inputs":[{"name":"account","type":"address","internalType":"address"},{"name":"id","type":"uint256","internalType":"uint256"}],"outputs":[{"name":"","type":"uint256","internalType":"uint256"}],"stateMutability":"view"},{"type":"function","name":"balanceOfBatch","inputs":[{"name":"accounts","type":"address[]","internalType":"address[]"},{"name":"ids","type":"uint256[]","internalType":"uint256[]"}],"outputs":[{"name":"","type":"uint256[]","internalType":"uint256[]"}],"stateMutability":"view"},{"type":"function","name":"burn","inputs":[{"name":"account","type":"address","internalType":"address"},{"name":"id","type":"uint256","internalType":"uint256"},{"name":"value","type":"uint256","internalType":"uint256"}],"outputs":[],"stateMutability":"nonpayable"},{"type":"function","name":"burnBatch","inputs":[{"name":"account","type":"address","internalType":"address"},{"name":"ids","type":"uint256[]","internalType":"uint256[]"},{"name":"values","type":"uint256[]","internalType":"uint256[]"}],"outputs":[],"stateMutability":"nonpayable"},{"type":"function","name":"getRoleAdmin","inputs":[{"name":"role","type":"bytes32","internalType":"bytes32"}],"outputs":[{"name":"","type":"bytes32","internalType":"bytes32"}],"stateMutability":"view"},{"type":"function","name":"getRoleMember","inputs":[{"name":"role","type":"bytes32","internalType":"bytes32"},{"name":"index","type":"uint256","internalType":"uint256"}],"outputs":[{"name":"","type":"address","internalType":"address"}],"stateMutability":"view"},{"type":"function","name":"getRoleMemberCount","inputs":[{"name":"role","type":"bytes32","internalType":"bytes32"}],"outputs":[{"name":"","type":"uint256","internalType":"uint256"}],"stateMutability":"view"},{"type":"function","name":"grantRole","inputs":[{"name":"role","type":"bytes32","internalType":"bytes32"},{"name":"account","type":"address","internalType":"address"}],"outputs":[],"stateMutability":"nonpayable"},{"type":"function","name":"hasRole","inputs":[{"name":"role","type":"bytes32","internalType":"bytes32"},{"name":"account","type":"address","internalType":"address"}],"outputs":[{"name":"","type":"bool","internalType":"bool"}],"stateMutability":"view"},{"type":"function","name":"initialize","inputs":[{"name":"uri","type":"string","internalType":"string"}],"outputs":[],"stateMutability":"nonpayable"},{"type":"function","name":"isApprovedForAll","inputs":[{"name":"account","type":"address","internalType":"address"},{"name":"operator","type":"address","internalType":"address"}],"outputs":[{"name":"","type":"bool","internalType":"bool"}],"stateMutability":"view"},{"type":"function","name":"mint","inputs":[{"name":"to","type":"address","internalType":"address"},{"name":"id","type":"uint256","internalType":"uint256"},{"name":"amount","type":"uint256","internalType":"uint256"},{"name":"data","type":"bytes","internalType":"bytes"}],"outputs":[],"stateMutability":"nonpayable"},{"type":"function","name":"mintBatch","inputs":[{"name":"to","type":"address","internalType":"address"},{"name":"ids","type":"uint256[]","internalType":"uint256[]"},{"name":"amounts","type":"uint256[]","internalType":"uint256[]"},{"name":"data","type":"bytes","internalType":"bytes"}],"outputs":[],"stateMutability":"nonpayable"},{"type":"function","name":"pause","inputs":[],"outputs":[],"stateMutability":"nonpayable"},{"type":"function","name":"paused","inputs":[],"outputs":[{"name":"","type":"bool","internalType":"bool"}],"stateMutability":"view"},{"type":"function","name":"renounceRole","inputs":[{"name":"role","type":"bytes32","internalType":"bytes32"},{"name":"account","type":"address","internalType":"address"}],"outputs":[],"stateMutability":"nonpayable"},{"type":"function","name":"revokeRole","inputs":[{"name":"role","type":"bytes32","internalType":"bytes32"},{"name":"account","type":"address","internalType":"address"}],"outputs":[],"stateMutability":"nonpayable"},{"type":"function","name":"safeBatchTransferFrom","inputs":[{"name":"from","type":"address","internalType":"address"},{"name":"to","type":"address","internalType":"address"},{"name":"ids","type":"uint256[]","internalType":"uint256[]"},{"name":"amounts","type":"uint256[]","internalType":"uint256[]"},{"name":"data","type":"bytes","internalType":"bytes"}],"outputs":[],"stateMutability":"nonpayable"},{"type":"function","name":"safeTransferFrom","inputs":[{"name":"from","type":"address","internalType":"address"},{"name":"to","type":"address","internalType":"address"},{"name":"id","type":"uint256","internalType":"uint256"},{"name":"amount","type":"uint256","internalType":"uint256"},{"name":"data","type":"bytes","internalType":"bytes"}],"outputs":[],"stateMutability":"nonpayable"},{"type":"function","name":"setApprovalForAll","inputs":[{"name":"operator","type":"address","internalType":"address"},{"name":"approved","type":"bool","internalType":"bool"}],"outputs":[],"stateMutability":"nonpayable"},{"type":"function","name":"supportsInterface","inputs":[{"name":"interfaceId","type":"bytes4","internalType":"bytes4"}],"outputs":[{"name":"","type":"bool","internalType":"bool"}],"stateMutability":"view"},{"type":"function","name":"unpause","inputs":[],"outputs":[],"stateMutability":"nonpayable"},{"type":"function","name":"uri","inputs":[{"name":"","type":"uint256","internalType":"uint256"}],"outputs":[{"name":"","type":"string","internalType":"string"}],"stateMutability":"view"},{"type":"event","name":"ApprovalForAll","inputs":[{"name":"account","type":"address","indexed":true,"internalType":"address"},{"name":"operator","type":"address","indexed":true,"internalType":"address"},{"name":"approved","type":"bool","indexed":false,"internalType":"bool"}],"anonymous":false},{"type":"event","name":"Initialized","inputs":[{"name":"version","type":"uint8","indexed":false,"internalType":"uint8"}],"anonymous":false},{"type":"event","name":"Paused","inputs":[{"name":"account","type":"address","indexed":false,"internalType":"address"}],"anonymous":false},{"type":"event","name":"RoleAdminChanged","inputs":[{"name":"role","type":"bytes32","indexed":true,"internalType":"bytes32"},{"name":"previousAdminRole","type":"bytes32","indexed":true,"internalType":"bytes32"},{"name":"newAdminRole","type":"bytes32","indexed":true,"internalType":"bytes32"}],"anonymous":false},{"type":"event","name":"RoleGranted","inputs":[{"name":"role","type":"bytes32","indexed":true,"internalType":"bytes32"},{"name":"account","type":"address","indexed":true,"internalType":"address"},{"name":"sender","type":"address","indexed":true,"internalType":"address"}],"anonymous":false},{"type":"event","name":"RoleRevoked","inputs":[{"name":"role","type":"bytes32","indexed":true,"internalType":"bytes32"},{"name":"account","type":"address","indexed":true,"internalType":"address"},{"name":"sender","type":"address","indexed":true,"internalType":"address"}],"anonymous":false},{"type":"event","name":"TransferBatch","inputs":[{"name":"operator","type":"address","indexed":true,"internalType":"address"},{"name":"from","type":"address","indexed":true,"internalType":"address"},{"name":"to","type":"address","indexed":true,"internalType":"address"},{"name":"ids","type":"uint256[]","indexed":false,"internalType":"uint256[]"},{"name":"values","type":"uint256[]","indexed":false,"internalType":"uint256[]"}],"anonymous":false},{"type":"event","name":"TransferSingle","inputs":[{"name":"operator","type":"address","indexed":true,"internalType":"address"},{"name":"from","type":"address","indexed":true,"internalType":"address"},{"name":"to","type":"address","indexed":true,"internalType":"address"},{"name":"id","type":"uint256","indexed":false,"internalType":"uint256"},{"name":"value","type":"uint256","indexed":false,"internalType":"uint256"}],"anonymous":false},{"type":"event","name":"URI","inputs":[{"name":"value","type":"string","indexed":false,"internalType":"string"},{"name":"id","type":"uint256","indexed":true,"internalType":"uint256"}],"anonymous":false},{"type":"event","name":"Unpaused","inputs":[{"name":"account","type":"address","indexed":false,"internalType":"address"}],"anonymous":false}],"bytecode":{"object":"0x6080604052348015600f57600080fd5b50612cdb8061001f6000396000f3fe608060405234801561001057600080fd5b506004361061018d5760003560e01c80638456cb59116100de578063d539139311610097578063e985e9c511610071578063e985e9c514610377578063f242432a146103b3578063f5298aca146103c6578063f62d1888146103d957600080fd5b8063d53913931461033a578063d547741f1461034f578063e63ab1e91461036257600080fd5b80638456cb59146102c65780639010d07c146102ce57806391d14854146102f9578063a217fddf1461030c578063a22cb46514610314578063ca15c8731461032757600080fd5b80632f2ff15d1161014b5780634e1273f4116101255780634e1273f4146102745780635c975abb146102945780636b20c454146102a0578063731133e9146102b357600080fd5b80632f2ff15d1461024657806336568abe146102595780633f4ba83a1461026c57600080fd5b8062fdd58e1461019257806301ffc9a7146101b85780630e89341c146101db5780631f7fdffa146101fb578063248a9ca3146102105780632eb2c2d614610233575b600080fd5b6101a56101a0366004611ec0565b6103ec565b6040519081526020015b60405180910390f35b6101cb6101c6366004611f00565b610487565b60405190151581526020016101af565b6101ee6101e9366004611f1d565b610492565b6040516101af9190611f86565b61020e6102093660046120f4565b610526565b005b6101a561021e366004611f1d565b60009081526065602052604090206001015490565b61020e610241366004612196565b61056c565b61020e610254366004612249565b6105b8565b61020e610267366004612249565b6105e2565b61020e610660565b610287610282366004612275565b6106f4565b6040516101af9190612384565b61012d5460ff166101cb565b61020e6102ae366004612397565b610815565b61020e6102c136600461240e565b610858565b61020e610898565b6102e16102dc366004612456565b61092a565b6040516001600160a01b0390911681526020016101af565b6101cb610307366004612249565b610949565b6101a5600081565b61020e610322366004612478565b610974565b6101a5610335366004611f1d565b61097f565b6101a5600080516020612c8683398151915281565b61020e61035d366004612249565b610996565b6101a5600080516020612c6683398151915281565b6101cb6103853660046124b4565b6001600160a01b03918216600090815260ca6020908152604080832093909416825291909152205460ff1690565b61020e6103c13660046124de565b6109bb565b61020e6103d4366004612536565b610a00565b61020e6103e7366004612569565b610a43565b60006001600160a01b03831661045c5760405162461bcd60e51b815260206004820152602a60248201527f455243313135353a2061646472657373207a65726f206973206e6f742061207660448201526930b634b21037bbb732b960b11b60648201526084015b60405180910390fd5b50600081815260c9602090815260408083206001600160a01b03861684529091529020545b92915050565b600061048182610b55565b606060cb80546104a1906125b9565b80601f01602080910402602001604051908101604052809291908181526020018280546104cd906125b9565b801561051a5780601f106104ef5761010080835404028352916020019161051a565b820191906000526020600020905b8154815290600101906020018083116104fd57829003601f168201915b50505050509050919050565b61053e600080516020612c8683398151915233610949565b61055a5760405162461bcd60e51b8152600401610453906125f3565b61056684848484610b95565b50505050565b6001600160a01b03851633148061058857506105888533610385565b6105a45760405162461bcd60e51b815260040161045390612650565b6105b18585858585610ce5565b5050505050565b6000828152606560205260409020600101546105d381610e8b565b6105dd8383610e98565b505050565b6001600160a01b03811633146106525760405162461bcd60e51b815260206004820152602f60248201527f416363657373436f6e74726f6c3a2063616e206f6e6c792072656e6f756e636560448201526e103937b632b9903337b91039b2b63360891b6064820152608401610453565b61065c8282610eba565b5050565b610678600080516020612c6683398151915233610949565b6106ea5760405162461bcd60e51b815260206004820152603b60248201527f455243313135355072657365744d696e7465725061757365723a206d7573742060448201527f686176652070617573657220726f6c6520746f20756e706175736500000000006064820152608401610453565b6106f2610edc565b565b606081518351146107595760405162461bcd60e51b815260206004820152602960248201527f455243313135353a206163636f756e747320616e6420696473206c656e677468604482015268040dad2e6dac2e8c6d60bb1b6064820152608401610453565b600083516001600160401b0381111561077457610774611f99565b60405190808252806020026020018201604052801561079d578160200160208202803683370190505b50905060005b845181101561080d576107e88582815181106107c1576107c161269e565b60200260200101518583815181106107db576107db61269e565b60200260200101516103ec565b8282815181106107fa576107fa61269e565b60209081029190910101526001016107a3565b509392505050565b6001600160a01b03831633148061083157506108318333610385565b61084d5760405162461bcd60e51b815260040161045390612650565b6105dd838383610f2f565b610870600080516020612c8683398151915233610949565b61088c5760405162461bcd60e51b8152600401610453906125f3565b610566848484846110c4565b6108b0600080516020612c6683398151915233610949565b6109225760405162461bcd60e51b815260206004820152603960248201527f455243313135355072657365744d696e7465725061757365723a206d7573742060448201527f686176652070617573657220726f6c6520746f207061757365000000000000006064820152608401610453565b6106f26111af565b600082815260976020526040812061094290836111ed565b9392505050565b60009182526065602090815260408084206001600160a01b0393909316845291905290205460ff1690565b61065c3383836111f9565b6000818152609760205260408120610481906112d9565b6000828152606560205260409020600101546109b181610e8b565b6105dd8383610eba565b6001600160a01b0385163314806109d757506109d78533610385565b6109f35760405162461bcd60e51b815260040161045390612650565b6105b185858585856112e3565b6001600160a01b038316331480610a1c5750610a1c8333610385565b610a385760405162461bcd60e51b815260040161045390612650565b6105dd83838361141f565b600054610100900460ff1615808015610a635750600054600160ff909116105b80610a7d5750303b158015610a7d575060005460ff166001145b610ae05760405162461bcd60e51b815260206004820152602e60248201527f496e697469616c697a61626c653a20636f6e747261637420697320616c72656160448201526d191e481a5b9a5d1a585b1a5e995960921b6064820152608401610453565b6000805460ff191660011790558015610b03576000805461ff0019166101001790555b610b0c8261153b565b801561065c576000805461ff0019169055604051600181527f7f26b83ff96e1f2b6a682f133852f6798a09c465da95921460cefb38474024989060200160405180910390a15050565b60006001600160e01b03198216636cdb3d1360e11b1480610b8657506001600160e01b031982166303a24d0760e21b145b8061048157506104818261157c565b6001600160a01b038416610bbb5760405162461bcd60e51b8152600401610453906126b4565b8151835114610bdc5760405162461bcd60e51b8152600401610453906126f5565b33610bec816000878787876115a1565b60005b8451811015610c7d57838181518110610c0a57610c0a61269e565b602002602001015160c96000878481518110610c2857610c2861269e565b602002602001015181526020019081526020016000206000886001600160a01b03166001600160a01b031681526020019081526020016000206000828254610c709190612753565b9091555050600101610bef565b50846001600160a01b031660006001600160a01b0316826001600160a01b03167f4a39dc06d4c0dbc64b70af90fd698a233a518aa5d07e595d983b8c0526c8f7fb8787604051610cce929190612766565b60405180910390a46105b1816000878787876115af565b8151835114610d065760405162461bcd60e51b8152600401610453906126f5565b6001600160a01b038416610d2c5760405162461bcd60e51b815260040161045390612794565b33610d3b8187878787876115a1565b60005b8451811015610e1d576000858281518110610d5b57610d5b61269e565b602002602001015190506000858381518110610d7957610d7961269e565b602090810291909101810151600084815260c9835260408082206001600160a01b038e168352909352919091205490915081811015610dca5760405162461bcd60e51b8152600401610453906127d9565b600083815260c9602090815260408083206001600160a01b038e8116855292528083208585039055908b16825281208054849290610e09908490612753565b909155505060019093019250610d3e915050565b50846001600160a01b0316866001600160a01b0316826001600160a01b03167f4a39dc06d4c0dbc64b70af90fd698a233a518aa5d07e595d983b8c0526c8f7fb8787604051610e6d929190612766565b60405180910390a4610e838187878787876115af565b505050505050565b610e95813361170a565b50565b610ea28282611763565b60008281526097602052604090206105dd90826117e9565b610ec482826117fe565b60008281526097602052604090206105dd9082611865565b610ee461187a565b61012d805460ff191690557f5db9ee0a495bf2e6ff9c91a7834c1ba4fdd244a5e8aa4e537bd38aeae4b073aa335b6040516001600160a01b03909116815260200160405180910390a1565b6001600160a01b038316610f555760405162461bcd60e51b815260040161045390612823565b8051825114610f765760405162461bcd60e51b8152600401610453906126f5565b6000339050610f99818560008686604051806020016040528060008152506115a1565b60005b8351811015611057576000848281518110610fb957610fb961269e565b602002602001015190506000848381518110610fd757610fd761269e565b602090810291909101810151600084815260c9835260408082206001600160a01b038c1683529093529190912054909150818110156110285760405162461bcd60e51b815260040161045390612866565b600092835260c9602090815260408085206001600160a01b038b16865290915290922091039055600101610f9c565b5060006001600160a01b0316846001600160a01b0316826001600160a01b03167f4a39dc06d4c0dbc64b70af90fd698a233a518aa5d07e595d983b8c0526c8f7fb86866040516110a8929190612766565b60405180910390a4604080516020810190915260009052610566565b6001600160a01b0384166110ea5760405162461bcd60e51b8152600401610453906126b4565b3360006110f6856118c4565b90506000611103856118c4565b9050611114836000898585896115a1565b600086815260c9602090815260408083206001600160a01b038b16845290915281208054879290611146908490612753565b909155505060408051878152602081018790526001600160a01b03808a1692600092918716917fc3d58168c5ae7397731d063d5bbf3d657854427343f4c083240f7aacaa2d0f62910160405180910390a46111a68360008989898961190f565b50505050505050565b6111b76119ca565b61012d805460ff191660011790557f62e78cea01bee320cd4e420270b5ea74000d11b0c9f74754ebdbfc544b05a258610f123390565b60006109428383611a11565b816001600160a01b0316836001600160a01b03160361126c5760405162461bcd60e51b815260206004820152602960248201527f455243313135353a2073657474696e6720617070726f76616c20737461747573604482015268103337b91039b2b63360b91b6064820152608401610453565b6001600160a01b03838116600081815260ca6020908152604080832094871680845294825291829020805460ff191686151590811790915591519182527f17307eab39ab6107e8899845ad3d59bd9653f200f220920489ca2b5937696c31910160405180910390a3505050565b6000610481825490565b6001600160a01b0384166113095760405162461bcd60e51b815260040161045390612794565b336000611315856118c4565b90506000611322856118c4565b90506113328389898585896115a1565b600086815260c9602090815260408083206001600160a01b038c168452909152902054858110156113755760405162461bcd60e51b8152600401610453906127d9565b600087815260c9602090815260408083206001600160a01b038d8116855292528083208985039055908a168252812080548892906113b4908490612753565b909155505060408051888152602081018890526001600160a01b03808b16928c821692918816917fc3d58168c5ae7397731d063d5bbf3d657854427343f4c083240f7aacaa2d0f62910160405180910390a4611414848a8a8a8a8a61190f565b505050505050505050565b6001600160a01b0383166114455760405162461bcd60e51b815260040161045390612823565b336000611451846118c4565b9050600061145e846118c4565b905061147e838760008585604051806020016040528060008152506115a1565b600085815260c9602090815260408083206001600160a01b038a168452909152902054848110156114c15760405162461bcd60e51b815260040161045390612866565b600086815260c9602090815260408083206001600160a01b038b81168086529184528285208a8703905582518b81529384018a90529092908816917fc3d58168c5ae7397731d063d5bbf3d657854427343f4c083240f7aacaa2d0f62910160405180910390a46040805160208101909152600090526111a6565b600054610100900460ff166115625760405162461bcd60e51b8152600401610453906128aa565b61156b81611a3b565b611573611a6b565b610e9581611a9f565b60006001600160e01b03198216635a05180f60e01b1480610481575061048182611b01565b610e83868686868686611b36565b6001600160a01b0384163b15610e835760405163bc197c8160e01b81526001600160a01b0385169063bc197c81906115f390899089908890889088906004016128f5565b6020604051808303816000875af192505050801561162e575060408051601f3d908101601f1916820190925261162b91810190612953565b60015b6116da5761163a612970565b806308c379a003611673575061164e61298c565b806116595750611675565b8060405162461bcd60e51b81526004016104539190611f86565b505b60405162461bcd60e51b815260206004820152603460248201527f455243313135353a207472616e7366657220746f206e6f6e2d455243313135356044820152732932b1b2b4bb32b91034b6b83632b6b2b73a32b960611b6064820152608401610453565b6001600160e01b0319811663bc197c8160e01b146111a65760405162461bcd60e51b815260040161045390612a07565b6117148282610949565b61065c5761172181611b9f565b61172c836020611bb1565b60405160200161173d929190612a4f565b60408051601f198184030181529082905262461bcd60e51b825261045391600401611f86565b61176d8282610949565b61065c5760008281526065602090815260408083206001600160a01b03851684529091529020805460ff191660011790556117a53390565b6001600160a01b0316816001600160a01b0316837f2f8788117e7eff1d82e926ec794901d17c78024a50270940304540a733656f0d60405160405180910390a45050565b6000610942836001600160a01b038416611d4c565b6118088282610949565b1561065c5760008281526065602090815260408083206001600160a01b0385168085529252808320805460ff1916905551339285917ff6391f5c32d9c69d2a47ea670b442974b53935d1edc7fd64eb21e047a839171b9190a45050565b6000610942836001600160a01b038416611d9b565b61012d5460ff166106f25760405162461bcd60e51b815260206004820152601460248201527314185d5cd8589b194e881b9bdd081c185d5cd95960621b6044820152606401610453565b604080516001808252818301909252606091600091906020808301908036833701905050905082816000815181106118fe576118fe61269e565b602090810291909101015292915050565b6001600160a01b0384163b15610e835760405163f23a6e6160e01b81526001600160a01b0385169063f23a6e61906119539089908990889088908890600401612ac4565b6020604051808303816000875af192505050801561198e575060408051601f3d908101601f1916820190925261198b91810190612953565b60015b61199a5761163a612970565b6001600160e01b0319811663f23a6e6160e01b146111a65760405162461bcd60e51b815260040161045390612a07565b61012d5460ff16156106f25760405162461bcd60e51b815260206004820152601060248201526f14185d5cd8589b194e881c185d5cd95960821b6044820152606401610453565b6000826000018281548110611a2857611a2861269e565b9060005260206000200154905092915050565b600054610100900460ff16611a625760405162461bcd60e51b8152600401610453906128aa565b610e9581611e8e565b600054610100900460ff16611a925760405162461bcd60e51b8152600401610453906128aa565b61012d805460ff19169055565b600054610100900460ff16611ac65760405162461bcd60e51b8152600401610453906128aa565b611ad1600033611e9a565b611ae9600080516020612c8683398151915233611e9a565b610e95600080516020612c6683398151915233611e9a565b60006001600160e01b03198216637965db0b60e01b148061048157506301ffc9a760e01b6001600160e01b0319831614610481565b61012d5460ff1615610e835760405162461bcd60e51b815260206004820152602c60248201527f455243313135355061757361626c653a20746f6b656e207472616e736665722060448201526b1dda1a5b19481c185d5cd95960a21b6064820152608401610453565b60606104816001600160a01b03831660145b60606000611bc0836002612b09565b611bcb906002612753565b6001600160401b03811115611be257611be2611f99565b6040519080825280601f01601f191660200182016040528015611c0c576020820181803683370190505b509050600360fc1b81600081518110611c2757611c2761269e565b60200101906001600160f81b031916908160001a905350600f60fb1b81600181518110611c5657611c5661269e565b60200101906001600160f81b031916908160001a9053506000611c7a846002612b09565b611c85906001612753565b90505b6001811115611cfd576f181899199a1a9b1b9c1cb0b131b232b360811b85600f1660108110611cb957611cb961269e565b1a60f81b828281518110611ccf57611ccf61269e565b60200101906001600160f81b031916908160001a90535060049490941c93611cf681612b20565b9050611c88565b5083156109425760405162461bcd60e51b815260206004820181905260248201527f537472696e67733a20686578206c656e67746820696e73756666696369656e746044820152606401610453565b6000818152600183016020526040812054611d9357508154600181810184556000848152602080822090930184905584548482528286019093526040902091909155610481565b506000610481565b60008181526001830160205260408120548015611e84576000611dbf600183612b37565b8554909150600090611dd390600190612b37565b9050818114611e38576000866000018281548110611df357611df361269e565b9060005260206000200154905080876000018481548110611e1657611e1661269e565b6000918252602080832090910192909255918252600188019052604090208390555b8554869080611e4957611e49612b4a565b600190038181906000526020600020016000905590558560010160008681526020019081526020016000206000905560019350505050610481565b6000915050610481565b60cb61065c8282612ba7565b61065c8282610e98565b80356001600160a01b0381168114611ebb57600080fd5b919050565b60008060408385031215611ed357600080fd5b611edc83611ea4565b946020939093013593505050565b6001600160e01b031981168114610e9557600080fd5b600060208284031215611f1257600080fd5b813561094281611eea565b600060208284031215611f2f57600080fd5b5035919050565b60005b83811015611f51578181015183820152602001611f39565b50506000910152565b60008151808452611f72816020860160208601611f36565b601f01601f19169290920160200192915050565b6020815260006109426020830184611f5a565b634e487b7160e01b600052604160045260246000fd5b601f8201601f191681016001600160401b0381118282101715611fd457611fd4611f99565b6040525050565b60006001600160401b03821115611ff457611ff4611f99565b5060051b60200190565b600082601f83011261200f57600080fd5b813561201a81611fdb565b6040516120278282611faf565b80915082815260208101915060208360051b86010192508583111561204b57600080fd5b602085015b83811015612068578035835260209283019201612050565b5095945050505050565b6000806001600160401b0384111561208c5761208c611f99565b50604051601f8401601f1916602001906120a68282611faf565b8092508481528585850111156120bb57600080fd5b8484602083013760006020868301015250509392505050565b600082601f8301126120e557600080fd5b61094283833560208501612072565b6000806000806080858703121561210a57600080fd5b61211385611ea4565b935060208501356001600160401b0381111561212e57600080fd5b61213a87828801611ffe565b93505060408501356001600160401b0381111561215657600080fd5b61216287828801611ffe565b92505060608501356001600160401b0381111561217e57600080fd5b61218a878288016120d4565b91505092959194509250565b600080600080600060a086880312156121ae57600080fd5b6121b786611ea4565b94506121c560208701611ea4565b935060408601356001600160401b038111156121e057600080fd5b6121ec88828901611ffe565b93505060608601356001600160401b0381111561220857600080fd5b61221488828901611ffe565b92505060808601356001600160401b0381111561223057600080fd5b61223c888289016120d4565b9150509295509295909350565b6000806040838503121561225c57600080fd5b8235915061226c60208401611ea4565b90509250929050565b6000806040838503121561228857600080fd5b82356001600160401b0381111561229e57600080fd5b8301601f810185136122af57600080fd5b80356122ba81611fdb565b6040516122c78282611faf565b80915082815260208101915060208360051b8501019250878311156122eb57600080fd5b6020840193505b828410156123145761230384611ea4565b8252602093840193909101906122f2565b945050505060208301356001600160401b0381111561233257600080fd5b61233e85828601611ffe565b9150509250929050565b600081518084526020840193506020830160005b8281101561237a57815186526020958601959091019060010161235c565b5093949350505050565b6020815260006109426020830184612348565b6000806000606084860312156123ac57600080fd5b6123b584611ea4565b925060208401356001600160401b038111156123d057600080fd5b6123dc86828701611ffe565b92505060408401356001600160401b038111156123f857600080fd5b61240486828701611ffe565b9150509250925092565b6000806000806080858703121561242457600080fd5b61242d85611ea4565b9350602085013592506040850135915060608501356001600160401b0381111561217e57600080fd5b6000806040838503121561246957600080fd5b50508035926020909101359150565b6000806040838503121561248b57600080fd5b61249483611ea4565b9150602083013580151581146124a957600080fd5b809150509250929050565b600080604083850312156124c757600080fd5b6124d083611ea4565b915061226c60208401611ea4565b600080600080600060a086880312156124f657600080fd5b6124ff86611ea4565b945061250d60208701611ea4565b9350604086013592506060860135915060808601356001600160401b0381111561223057600080fd5b60008060006060848603121561254b57600080fd5b61255484611ea4565b95602085013595506040909401359392505050565b60006020828403121561257b57600080fd5b81356001600160401b0381111561259157600080fd5b8201601f810184136125a257600080fd5b6125b184823560208401612072565b949350505050565b600181811c908216806125cd57607f821691505b6020821081036125ed57634e487b7160e01b600052602260045260246000fd5b50919050565b60208082526038908201527f455243313135355072657365744d696e7465725061757365723a206d7573742060408201527f68617665206d696e74657220726f6c6520746f206d696e740000000000000000606082015260800190565b6020808252602e908201527f455243313135353a2063616c6c6572206973206e6f7420746f6b656e206f776e60408201526d195c881bdc88185c1c1c9bdd995960921b606082015260800190565b634e487b7160e01b600052603260045260246000fd5b60208082526021908201527f455243313135353a206d696e7420746f20746865207a65726f206164647265736040820152607360f81b606082015260800190565b60208082526028908201527f455243313135353a2069647320616e6420616d6f756e7473206c656e677468206040820152670dad2e6dac2e8c6d60c31b606082015260800190565b634e487b7160e01b600052601160045260246000fd5b808201808211156104815761048161273d565b6040815260006127796040830185612348565b828103602084015261278b8185612348565b95945050505050565b60208082526025908201527f455243313135353a207472616e7366657220746f20746865207a65726f206164604082015264647265737360d81b606082015260800190565b6020808252602a908201527f455243313135353a20696e73756666696369656e742062616c616e636520666f60408201526939103a3930b739b332b960b11b606082015260800190565b60208082526023908201527f455243313135353a206275726e2066726f6d20746865207a65726f206164647260408201526265737360e81b606082015260800190565b60208082526024908201527f455243313135353a206275726e20616d6f756e7420657863656564732062616c604082015263616e636560e01b606082015260800190565b6020808252602b908201527f496e697469616c697a61626c653a20636f6e7472616374206973206e6f74206960408201526a6e697469616c697a696e6760a81b606082015260800190565b6001600160a01b0386811682528516602082015260a06040820181905260009061292190830186612348565b82810360608401526129338186612348565b905082810360808401526129478185611f5a565b98975050505050505050565b60006020828403121561296557600080fd5b815161094281611eea565b600060033d11156129895760046000803e5060005160e01c5b90565b600060443d101561299a5790565b6040513d600319016004823e80513d60248201116001600160401b03821117156129c357505090565b80820180516001600160401b038111156129de575050505090565b3d84016003190182820160200111156129f8575050505090565b61080d60208285010185611faf565b60208082526028908201527f455243313135353a204552433131353552656365697665722072656a656374656040820152676420746f6b656e7360c01b606082015260800190565b7f416363657373436f6e74726f6c3a206163636f756e7420000000000000000000815260008351612a87816017850160208801611f36565b7001034b99036b4b9b9b4b733903937b6329607d1b6017918401918201528351612ab8816028840160208801611f36565b01602801949350505050565b6001600160a01b03868116825285166020820152604081018490526060810183905260a060808201819052600090612afe90830184611f5a565b979650505050505050565b80820281158282048414176104815761048161273d565b600081612b2f57612b2f61273d565b506000190190565b818103818111156104815761048161273d565b634e487b7160e01b600052603160045260246000fd5b601f8211156105dd57806000526020600020601f840160051c81016020851015612b875750805b601f840160051c820191505b818110156105b15760008155600101612b93565b81516001600160401b03811115612bc057612bc0611f99565b612bd481612bce84546125b9565b84612b60565b6020601f821160018114612c085760008315612bf05750848201515b600019600385901b1c1916600184901b1784556105b1565b600084815260208120601f198516915b82811015612c385787850151825560209485019460019092019101612c18565b5084821015612c565786840151600019600387901b60f8161c191681555b50505050600190811b0190555056fe65d7a28e3265b37a6474929f336521b332c1681b933f6cb9f3376673440d862a9f2df0fed2c77648de5860a4cc508cd0818c85b8b8a1ab4ceeef8d981c8956a6a26469706673582212209fe6d4d653cdc93fdda060bb7689acca5398ed242d238b7128b642ca123b1cf164736f6c634300081a0033","linkReferences":{}},"methodIdentifiers":{"DEFAULT_ADMIN_ROLE()":"a217fddf","MINTER_ROLE()":"d5391393","PAUSER_ROLE()":"e63ab1e9","balanceOf(address,uint256)":"00fdd58e","balanceOfBatch(address[],uint256[])":"4e1273f4","burn(address,uint256,uint256)":"f5298aca","burnBatch(address,uint256[],uint256[])":"6b20c454","getRoleAdmin(bytes32)":"248a9ca3","getRoleMember(bytes32,uint256)":"9010d07c","getRoleMemberCount(bytes32)":"ca15c873","grantRole(bytes32,address)":"2f2ff15d","hasRole(bytes32,address)":"91d14854","initialize(string)":"f62d1888","isApprovedForAll(address,address)":"e985e9c5","mint(address,uint256,uint256,bytes)":"731133e9","mintBatch(address,uint256[],uint256[],bytes)":"1f7fdffa","pause()":"8456cb59","paused()":"5c975abb","renounceRole(bytes32,address)":"36568abe","revokeRole(bytes32,address)":"d547741f","safeBatchTransferFrom(address,address,uint256[],uint256[],bytes)":"2eb2c2d6","safeTransferFrom(address,address,uint256,uint256,bytes)":"f242432a","setApprovalForAll(address,bool)":"a22cb465","supportsInterface(bytes4)":"01ffc9a7","unpause()":"3f4ba83a","uri(uint256)":"0e89341c"},"id":94}