{"abi":[{"type":"constructor","inputs":[],"stateMutability":"nonpayable"},{"type":"function","name":"setAnotherValue","inputs":[],"outputs":[],"stateMutability":"nonpayable"},{"type":"function","name":"setValue","inputs":[],"outputs":[],"stateMutability":"nonpayable"}],"bytecode":{"object":"0x6080604052348015600f57600080fd5b5060768061001e6000396000f3fe6080604052348015600f57600080fd5b506004361060325760003560e01c8063441a7a271460375780634fa519fa146037575b600080fd5b603d603f565b005b56fea265627a7a72315820aaca96f249a1ef8f440f462567e5e787b35714182e7f36bf7ef4a397741b7e4064736f6c63430005110032","linkReferences":{}},"methodIdentifiers":{"setAnotherValue()":"441a7a27","setValue()":"4fa519fa"},"id":6}